{
  "abi": [
    {
      "inputs": [
        {
          "internalType": "address",
          "name": "baseFactory",
          "type": "address"
        },
        {
          "internalType": "string",
          "name": "customBaseURI_",
          "type": "string"
        }
      ],
      "stateMutability": "nonpayable",
      "type": "constructor"
    },
    {
      "stateMutability": "nonpayable",
      "type": "fallback"
    },
    {
      "inputs": [],
      "name": "implementation",
      "outputs": [
        {
          "internalType": "address",
          "name": "",
          "type": "address"
        }
      ],
      "stateMutability": "view",
      "type": "function"
    },
    {
      "inputs": [],
      "name": "mint",
      "outputs": [],
      "stateMutability": "nonpayable",
      "type": "function"
    },
    {
      "inputs": [],
      "name": "saleIsActive",
      "outputs": [
        {
          "internalType": "bool",
          "name": "",
          "type": "bool"
        }
      ],
      "stateMutability": "view",
      "type": "function"
    },
    {
      "inputs": [
        {
          "internalType": "string",
          "name": "customBaseURI_",
          "type": "string"
        }
      ],
      "name": "setBaseURI",
      "outputs": [],
      "stateMutability": "nonpayable",
      "type": "function"
    },
    {
      "inputs": [
        {
          "internalType": "bool",
          "name": "saleIsActive_",
          "type": "bool"
        }
      ],
      "name": "setSaleIsActive",
      "outputs": [],
      "stateMutability": "nonpayable",
      "type": "function"
    },
    {
      "inputs": [],
      "name": "totalSupply",
      "outputs": [
        {
          "internalType": "uint256",
          "name": "",
          "type": "uint256"
        }
      ],
      "stateMutability": "view",
      "type": "function"
    },
    {
      "inputs": [],
      "name": "withdraw",
      "outputs": [],
      "stateMutability": "nonpayable",
      "type": "function"
    },
    {
      "stateMutability": "payable",
      "type": "receive"
    }
  ],
  "devdoc": {
    "kind": "dev",
    "methods": {},
    "version": 1
  },
  "evm": {
    "assembly": "    /* \"__xalzzy__.sol\":405:1601  contract __xalzzy__ is ERC721Delegated, ReentrancyGuard {... */\n  mstore(0x40, 0x80)\n    /* \"__xalzzy__.sol\":1157:1188  bool public saleIsActive = true */\n  0x0186a2\n  dup1\n  sload\n  not(0xff)\n  and\n    /* \"__xalzzy__.sol\":1184:1188  true */\n  0x01\n    /* \"__xalzzy__.sol\":1157:1188  bool public saleIsActive = true */\n  or\n  swap1\n  sstore\n    /* \"__xalzzy__.sol\":505:799  constructor(address baseFactory, string memory customBaseURI_)... */\n  callvalue\n  dup1\n  iszero\n  tag_1\n  jumpi\n  0x00\n  dup1\n  revert\ntag_1:\n  pop\n  mload(0x40)\n  sub(codesize, bytecodeSize)\n  dup1\n  bytecodeSize\n  dup4\n  codecopy\n  dup2\n  add\n  0x40\n  dup2\n  swap1\n  mstore\n  tag_2\n  swap2\n  tag_3\n  jump\t// in\ntag_2:\n    /* \"__xalzzy__.sol\":595:606  baseFactory */\n  dup2\n    /* \"gwei-slim-nft-contracts/contracts/base/ERC721Delegated.sol\":872:1658  constructor(... */\n  mload(0x40)\n  dup1\n  0x40\n  add\n  0x40\n  mstore\n  dup1\n  0x0a\n  dup2\n  mstore\n  0x20\n  add\n  shl(0xb0, 0x5f5f78616c7a7a795f5f)\n  dup2\n  mstore\n  pop\n  mload(0x40)\n  dup1\n  0x40\n  add\n  0x40\n  mstore\n  dup1\n  0x03\n  dup2\n  mstore\n  0x20\n  add\n  shl(0xe8, 0x307861)\n  dup2\n  mstore\n  pop\n    /* \"__xalzzy__.sol\":647:788  ConfigSettings({... */\n  mload(0x40)\n  dup1\n  0x80\n  add\n  0x40\n  mstore\n  dup1\n    /* \"__xalzzy__.sol\":684:688  2500 */\n  0x09c4\n    /* \"__xalzzy__.sol\":647:788  ConfigSettings({... */\n  0xffff\n  and\n  dup2\n  mstore\n  0x20\n  add\n    /* \"__xalzzy__.sol\":707:721  customBaseURI_ */\n  dup6\n    /* \"__xalzzy__.sol\":647:788  ConfigSettings({... */\n  dup2\n  mstore\n  0x20\n  add\n  mload(0x40)\n  dup1\n  0x20\n  add\n  0x40\n  mstore\n  dup1\n  0x00\n  dup2\n  mstore\n  pop\n  dup2\n  mstore\n  0x20\n  add\n    /* \"__xalzzy__.sol\":774:779  false */\n  0x00\n    /* \"__xalzzy__.sol\":647:788  ConfigSettings({... */\n  iszero\n  iszero\n  dup2\n  mstore\n  pop\n    /* \"gwei-slim-nft-contracts/contracts/base/ERC721Delegated.sol\":1284:1323  _initImplementation(_nftImplementation) */\n  tag_8\n    /* \"gwei-slim-nft-contracts/contracts/base/ERC721Delegated.sol\":1304:1322  _nftImplementation */\n  dup5\n    /* \"gwei-slim-nft-contracts/contracts/base/ERC721Delegated.sol\":1284:1303  _initImplementation */\n  shl(0x20, tag_9)\n    /* \"gwei-slim-nft-contracts/contracts/base/ERC721Delegated.sol\":1284:1323  _initImplementation(_nftImplementation) */\n  0x20\n  shr\n  jump\t// in\ntag_8:\n    /* \"gwei-slim-nft-contracts/contracts/base/ERC721Delegated.sol\":1334:1346  bool success */\n  0x00\n    /* \"gwei-slim-nft-contracts/contracts/base/ERC721Delegated.sol\":1352:1370  _nftImplementation */\n  dup5\n  sub(shl(0xa0, 0x01), 0x01)\n    /* \"gwei-slim-nft-contracts/contracts/base/ERC721Delegated.sol\":1352:1383  _nftImplementation.delegatecall */\n  and\n    /* \"gwei-slim-nft-contracts/contracts/base/ERC721Delegated.sol\":1519:1529  msg.sender */\n  caller\n    /* \"gwei-slim-nft-contracts/contracts/base/ERC721Delegated.sol\":1547:1551  name */\n  dup6\n    /* \"gwei-slim-nft-contracts/contracts/base/ERC721Delegated.sol\":1569:1575  symbol */\n  dup6\n    /* \"gwei-slim-nft-contracts/contracts/base/ERC721Delegated.sol\":1593:1601  settings */\n  dup6\n    /* \"gwei-slim-nft-contracts/contracts/base/ERC721Delegated.sol\":1397:1615  abi.encodeWithSignature(... */\n  add(0x24, mload(0x40))\n  tag_10\n  swap5\n  swap4\n  swap3\n  swap2\n  swap1\n  tag_11\n  jump\t// in\ntag_10:\n  0x40\n  dup1\n  mload\n  not(0x1f)\n  dup2\n  dup5\n  sub\n  add\n  dup2\n  mstore\n  swap2\n  dup2\n  mstore\n  0x20\n  dup3\n  add\n  dup1\n  mload\n  sub(shl(0xe0, 0x01), 0x01)\n  and\n  shl(0xe0, 0xb1a78e3f)\n  or\n  swap1\n  mstore\n    /* \"gwei-slim-nft-contracts/contracts/base/ERC721Delegated.sol\":1352:1625  _nftImplementation.delegatecall(... */\n  mload\n  tag_12\n  swap2\n    /* \"gwei-slim-nft-contracts/contracts/base/ERC721Delegated.sol\":1397:1615  abi.encodeWithSignature(... */\n  swap1\n    /* \"gwei-slim-nft-contracts/contracts/base/ERC721Delegated.sol\":1352:1625  _nftImplementation.delegatecall(... */\n  tag_13\n  jump\t// in\ntag_12:\n  0x00\n  mload(0x40)\n  dup1\n  dup4\n  sub\n  dup2\n  dup6\n  gas\n  delegatecall\n  swap2\n  pop\n  pop\n  returndatasize\n  dup1\n  0x00\n  dup2\n  eq\n  tag_16\n  jumpi\n  mload(0x40)\n  swap2\n  pop\n  and(add(returndatasize, 0x3f), not(0x1f))\n  dup3\n  add\n  0x40\n  mstore\n  returndatasize\n  dup3\n  mstore\n  returndatasize\n  0x00\n  0x20\n  dup5\n  add\n  returndatacopy\n  jump(tag_15)\ntag_16:\n  0x60\n  swap2\n  pop\ntag_15:\n  pop\n    /* \"gwei-slim-nft-contracts/contracts/base/ERC721Delegated.sol\":1333:1625  (bool success, ) = _nftImplementation.delegatecall(... */\n  pop\n  swap1\n  pop\n    /* \"gwei-slim-nft-contracts/contracts/base/ERC721Delegated.sol\":1643:1650  success */\n  dup1\n    /* \"gwei-slim-nft-contracts/contracts/base/ERC721Delegated.sol\":1635:1651  require(success) */\n  tag_17\n  jumpi\n  0x00\n  dup1\n  revert\ntag_17:\n  pop\n  pop\n    /* \"@openzeppelin/contracts/security/ReentrancyGuard.sol\":1637:1638  1 */\n  0x01\n    /* \"@openzeppelin/contracts/security/ReentrancyGuard.sol\":1742:1749  _status */\n  0x0186a0\n    /* \"@openzeppelin/contracts/security/ReentrancyGuard.sol\":1742:1764  _status = _NOT_ENTERED */\n  sstore\n  pop\n    /* \"__xalzzy__.sol\":405:1601  contract __xalzzy__ is ERC721Delegated, ReentrancyGuard {... */\n  tag_28\n  swap4\n  pop\n  pop\n  pop\n  pop\n  jump\n    /* \"gwei-slim-nft-contracts/contracts/base/ERC721Delegated.sol\":635:829  function _initImplementation(address _nftImplementation) private {... */\ntag_9:\n    /* \"gwei-slim-nft-contracts/contracts/base/ERC721Delegated.sol\":804:822  _nftImplementation */\n  dup1\n    /* \"gwei-slim-nft-contracts/contracts/base/ERC721Delegated.sol\":710:782  StorageSlotUpgradeable... */\n  tag_22\n    /* \"gwei-slim-nft-contracts/contracts/base/ERC721Delegated.sol\":355:421  0x360894a13ba1a3210667c828492db98dca3e2076cc3735a920a3ca505d382bbc */\n  0x360894a13ba1a3210667c828492db98dca3e2076cc3735a920a3ca505d382bbc\n    /* \"gwei-slim-nft-contracts/contracts/base/ERC721Delegated.sol\":761:781  _IMPLEMENTATION_SLOT */\n  0x00\n  shl\n    /* \"gwei-slim-nft-contracts/contracts/base/ERC721Delegated.sol\":710:760  StorageSlotUpgradeable... */\n  or(tag_0_49, shl(0x20, tag_23))\n    /* \"gwei-slim-nft-contracts/contracts/base/ERC721Delegated.sol\":710:782  StorageSlotUpgradeable... */\n  0x20\n  shr\n  jump\t// in\ntag_22:\n    /* \"gwei-slim-nft-contracts/contracts/base/ERC721Delegated.sol\":710:822  StorageSlotUpgradeable... */\n  dup1\n  sload\n  not(sub(shl(0xa0, 0x01), 0x01))\n  and\n  sub(shl(0xa0, 0x01), 0x01)\n  swap3\n  swap1\n  swap3\n  and\n  swap2\n  swap1\n  swap2\n  or\n  swap1\n  sstore\n  pop\n    /* \"gwei-slim-nft-contracts/contracts/base/ERC721Delegated.sol\":635:829  function _initImplementation(address _nftImplementation) private {... */\n  jump\t// out\n    /* \"@openzeppelin/contracts-upgradeable/utils/StorageSlotUpgradeable.sol\":1553:1700  function getAddressSlot(bytes32 slot) internal pure returns (AddressSlot storage r) {... */\ntag_23:\n    /* \"@openzeppelin/contracts-upgradeable/utils/StorageSlotUpgradeable.sol\":1680:1684  slot */\n  swap1\n    /* \"@openzeppelin/contracts-upgradeable/utils/StorageSlotUpgradeable.sol\":1553:1700  function getAddressSlot(bytes32 slot) internal pure returns (AddressSlot storage r) {... */\n  jump\t// out\n    /* \"#utility.yul\":14:141   */\ntag_25:\n    /* \"#utility.yul\":75:85   */\n  0x4e487b71\n    /* \"#utility.yul\":70:73   */\n  0xe0\n    /* \"#utility.yul\":66:86   */\n  shl\n    /* \"#utility.yul\":63:64   */\n  0x00\n    /* \"#utility.yul\":56:87   */\n  mstore\n    /* \"#utility.yul\":106:110   */\n  0x41\n    /* \"#utility.yul\":103:104   */\n  0x04\n    /* \"#utility.yul\":96:111   */\n  mstore\n    /* \"#utility.yul\":130:134   */\n  0x24\n    /* \"#utility.yul\":127:128   */\n  0x00\n    /* \"#utility.yul\":120:135   */\n  revert\n    /* \"#utility.yul\":146:404   */\ntag_26:\n    /* \"#utility.yul\":218:219   */\n  0x00\n    /* \"#utility.yul\":228:341   */\ntag_31:\n    /* \"#utility.yul\":242:248   */\n  dup4\n    /* \"#utility.yul\":239:240   */\n  dup2\n    /* \"#utility.yul\":236:249   */\n  lt\n    /* \"#utility.yul\":228:341   */\n  iszero\n  tag_33\n  jumpi\n    /* \"#utility.yul\":318:329   */\n  dup2\n  dup2\n  add\n    /* \"#utility.yul\":312:330   */\n  mload\n    /* \"#utility.yul\":299:310   */\n  dup4\n  dup3\n  add\n    /* \"#utility.yul\":292:331   */\n  mstore\n    /* \"#utility.yul\":264:266   */\n  0x20\n    /* \"#utility.yul\":257:267   */\n  add\n    /* \"#utility.yul\":228:341   */\n  jump(tag_31)\ntag_33:\n    /* \"#utility.yul\":359:365   */\n  dup4\n    /* \"#utility.yul\":356:357   */\n  dup2\n    /* \"#utility.yul\":353:366   */\n  gt\n    /* \"#utility.yul\":350:398   */\n  iszero\n  tag_34\n  jumpi\n    /* \"#utility.yul\":394:395   */\n  0x00\n    /* \"#utility.yul\":385:391   */\n  dup5\n    /* \"#utility.yul\":380:383   */\n  dup5\n    /* \"#utility.yul\":376:392   */\n  add\n    /* \"#utility.yul\":369:396   */\n  mstore\n    /* \"#utility.yul\":350:398   */\ntag_34:\n  pop\n    /* \"#utility.yul\":146:404   */\n  pop\n  pop\n  pop\n  jump\t// out\n    /* \"#utility.yul\":409:1460   */\ntag_3:\n    /* \"#utility.yul\":498:504   */\n  0x00\n    /* \"#utility.yul\":506:512   */\n  dup1\n    /* \"#utility.yul\":559:561   */\n  0x40\n    /* \"#utility.yul\":547:556   */\n  dup4\n    /* \"#utility.yul\":538:545   */\n  dup6\n    /* \"#utility.yul\":534:557   */\n  sub\n    /* \"#utility.yul\":530:562   */\n  slt\n    /* \"#utility.yul\":527:579   */\n  iszero\n  tag_36\n  jumpi\n    /* \"#utility.yul\":575:576   */\n  0x00\n    /* \"#utility.yul\":572:573   */\n  dup1\n    /* \"#utility.yul\":565:577   */\n  revert\n    /* \"#utility.yul\":527:579   */\ntag_36:\n    /* \"#utility.yul\":601:617   */\n  dup3\n  mload\n  sub(shl(0xa0, 0x01), 0x01)\n    /* \"#utility.yul\":646:677   */\n  dup2\n  and\n    /* \"#utility.yul\":636:678   */\n  dup2\n  eq\n    /* \"#utility.yul\":626:696   */\n  tag_37\n  jumpi\n    /* \"#utility.yul\":692:693   */\n  0x00\n    /* \"#utility.yul\":689:690   */\n  dup1\n    /* \"#utility.yul\":682:694   */\n  revert\n    /* \"#utility.yul\":626:696   */\ntag_37:\n    /* \"#utility.yul\":764:766   */\n  0x20\n    /* \"#utility.yul\":749:767   */\n  dup5\n  add\n    /* \"#utility.yul\":743:768   */\n  mload\n    /* \"#utility.yul\":715:720   */\n  swap1\n  swap3\n  pop\n  sub(shl(0x40, 0x01), 0x01)\n    /* \"#utility.yul\":817:831   */\n  dup1\n  dup3\n  gt\n    /* \"#utility.yul\":814:848   */\n  iszero\n  tag_38\n  jumpi\n    /* \"#utility.yul\":844:845   */\n  0x00\n    /* \"#utility.yul\":841:842   */\n  dup1\n    /* \"#utility.yul\":834:846   */\n  revert\n    /* \"#utility.yul\":814:848   */\ntag_38:\n    /* \"#utility.yul\":882:888   */\n  dup2\n    /* \"#utility.yul\":871:880   */\n  dup6\n    /* \"#utility.yul\":867:889   */\n  add\n    /* \"#utility.yul\":857:889   */\n  swap2\n  pop\n    /* \"#utility.yul\":927:934   */\n  dup6\n    /* \"#utility.yul\":920:924   */\n  0x1f\n    /* \"#utility.yul\":916:918   */\n  dup4\n    /* \"#utility.yul\":912:925   */\n  add\n    /* \"#utility.yul\":908:935   */\n  slt\n    /* \"#utility.yul\":898:953   */\n  tag_39\n  jumpi\n    /* \"#utility.yul\":949:950   */\n  0x00\n    /* \"#utility.yul\":946:947   */\n  dup1\n    /* \"#utility.yul\":939:951   */\n  revert\n    /* \"#utility.yul\":898:953   */\ntag_39:\n    /* \"#utility.yul\":978:980   */\n  dup2\n    /* \"#utility.yul\":972:981   */\n  mload\n    /* \"#utility.yul\":1000:1002   */\n  dup2\n    /* \"#utility.yul\":996:998   */\n  dup2\n    /* \"#utility.yul\":993:1003   */\n  gt\n    /* \"#utility.yul\":990:1026   */\n  iszero\n  tag_41\n  jumpi\n    /* \"#utility.yul\":1006:1024   */\n  tag_41\n  tag_25\n  jump\t// in\ntag_41:\n    /* \"#utility.yul\":1081:1083   */\n  0x40\n    /* \"#utility.yul\":1075:1084   */\n  mload\n    /* \"#utility.yul\":1049:1051   */\n  0x1f\n    /* \"#utility.yul\":1135:1148   */\n  dup3\n  add\n  not(0x1f)\n    /* \"#utility.yul\":1131:1153   */\n  swap1\n  dup2\n  and\n    /* \"#utility.yul\":1155:1157   */\n  0x3f\n    /* \"#utility.yul\":1127:1158   */\n  add\n    /* \"#utility.yul\":1123:1163   */\n  and\n    /* \"#utility.yul\":1111:1164   */\n  dup2\n  add\n  swap1\n    /* \"#utility.yul\":1179:1197   */\n  dup4\n  dup3\n  gt\n    /* \"#utility.yul\":1199:1221   */\n  dup2\n  dup4\n  lt\n    /* \"#utility.yul\":1176:1222   */\n  or\n    /* \"#utility.yul\":1173:1245   */\n  iszero\n  tag_43\n  jumpi\n    /* \"#utility.yul\":1225:1243   */\n  tag_43\n  tag_25\n  jump\t// in\ntag_43:\n    /* \"#utility.yul\":1265:1275   */\n  dup2\n    /* \"#utility.yul\":1261:1263   */\n  0x40\n    /* \"#utility.yul\":1254:1276   */\n  mstore\n    /* \"#utility.yul\":1300:1302   */\n  dup3\n    /* \"#utility.yul\":1292:1298   */\n  dup2\n    /* \"#utility.yul\":1285:1303   */\n  mstore\n    /* \"#utility.yul\":1340:1347   */\n  dup9\n    /* \"#utility.yul\":1335:1337   */\n  0x20\n    /* \"#utility.yul\":1330:1332   */\n  dup5\n    /* \"#utility.yul\":1326:1328   */\n  dup8\n    /* \"#utility.yul\":1322:1333   */\n  add\n    /* \"#utility.yul\":1318:1338   */\n  add\n    /* \"#utility.yul\":1315:1348   */\n  gt\n    /* \"#utility.yul\":1312:1365   */\n  iszero\n  tag_44\n  jumpi\n    /* \"#utility.yul\":1361:1362   */\n  0x00\n    /* \"#utility.yul\":1358:1359   */\n  dup1\n    /* \"#utility.yul\":1351:1363   */\n  revert\n    /* \"#utility.yul\":1312:1365   */\ntag_44:\n    /* \"#utility.yul\":1374:1429   */\n  tag_45\n    /* \"#utility.yul\":1426:1428   */\n  dup4\n    /* \"#utility.yul\":1421:1423   */\n  0x20\n    /* \"#utility.yul\":1413:1419   */\n  dup4\n    /* \"#utility.yul\":1409:1424   */\n  add\n    /* \"#utility.yul\":1404:1406   */\n  0x20\n    /* \"#utility.yul\":1400:1402   */\n  dup9\n    /* \"#utility.yul\":1396:1407   */\n  add\n    /* \"#utility.yul\":1374:1429   */\n  tag_26\n  jump\t// in\ntag_45:\n    /* \"#utility.yul\":1448:1454   */\n  dup1\n    /* \"#utility.yul\":1438:1454   */\n  swap6\n  pop\n  pop\n  pop\n  pop\n  pop\n  pop\n    /* \"#utility.yul\":409:1460   */\n  swap3\n  pop\n  swap3\n  swap1\n  pop\n  jump\t// out\n    /* \"#utility.yul\":1465:1723   */\ntag_27:\n    /* \"#utility.yul\":1507:1510   */\n  0x00\n    /* \"#utility.yul\":1545:1550   */\n  dup2\n    /* \"#utility.yul\":1539:1551   */\n  mload\n    /* \"#utility.yul\":1572:1578   */\n  dup1\n    /* \"#utility.yul\":1567:1570   */\n  dup5\n    /* \"#utility.yul\":1560:1579   */\n  mstore\n    /* \"#utility.yul\":1588:1651   */\n  tag_47\n    /* \"#utility.yul\":1644:1650   */\n  dup2\n    /* \"#utility.yul\":1637:1641   */\n  0x20\n    /* \"#utility.yul\":1632:1635   */\n  dup7\n    /* \"#utility.yul\":1628:1642   */\n  add\n    /* \"#utility.yul\":1621:1625   */\n  0x20\n    /* \"#utility.yul\":1614:1619   */\n  dup7\n    /* \"#utility.yul\":1610:1626   */\n  add\n    /* \"#utility.yul\":1588:1651   */\n  tag_26\n  jump\t// in\ntag_47:\n    /* \"#utility.yul\":1705:1707   */\n  0x1f\n    /* \"#utility.yul\":1684:1699   */\n  add\n  not(0x1f)\n    /* \"#utility.yul\":1680:1709   */\n  and\n    /* \"#utility.yul\":1671:1710   */\n  swap3\n  swap1\n  swap3\n  add\n    /* \"#utility.yul\":1712:1716   */\n  0x20\n    /* \"#utility.yul\":1667:1717   */\n  add\n  swap3\n    /* \"#utility.yul\":1465:1723   */\n  swap2\n  pop\n  pop\n  jump\t// out\n    /* \"#utility.yul\":1728:2843   */\ntag_11:\n  sub(shl(0xa0, 0x01), 0x01)\n    /* \"#utility.yul\":2045:2077   */\n  dup6\n  and\n    /* \"#utility.yul\":2027:2078   */\n  dup2\n  mstore\n    /* \"#utility.yul\":2114:2117   */\n  0x80\n    /* \"#utility.yul\":2109:2111   */\n  0x20\n    /* \"#utility.yul\":2094:2112   */\n  dup3\n  add\n    /* \"#utility.yul\":2087:2118   */\n  dup2\n  swap1\n  mstore\n  0x00\n  swap1\n    /* \"#utility.yul\":2141:2187   */\n  tag_49\n  swap1\n    /* \"#utility.yul\":2167:2186   */\n  dup4\n  add\n    /* \"#utility.yul\":2159:2165   */\n  dup7\n    /* \"#utility.yul\":2141:2187   */\n  tag_27\n  jump\t// in\ntag_49:\n    /* \"#utility.yul\":2235:2244   */\n  dup3\n    /* \"#utility.yul\":2227:2233   */\n  dup2\n    /* \"#utility.yul\":2223:2245   */\n  sub\n    /* \"#utility.yul\":2218:2220   */\n  0x40\n    /* \"#utility.yul\":2207:2216   */\n  dup5\n    /* \"#utility.yul\":2203:2221   */\n  add\n    /* \"#utility.yul\":2196:2246   */\n  mstore\n    /* \"#utility.yul\":2269:2302   */\n  tag_50\n    /* \"#utility.yul\":2295:2301   */\n  dup2\n    /* \"#utility.yul\":2287:2293   */\n  dup7\n    /* \"#utility.yul\":2269:2302   */\n  tag_27\n  jump\t// in\ntag_50:\n    /* \"#utility.yul\":2255:2302   */\n  swap1\n  pop\n    /* \"#utility.yul\":2350:2359   */\n  dup3\n    /* \"#utility.yul\":2342:2348   */\n  dup2\n    /* \"#utility.yul\":2338:2360   */\n  sub\n    /* \"#utility.yul\":2333:2335   */\n  0x60\n    /* \"#utility.yul\":2322:2331   */\n  dup5\n    /* \"#utility.yul\":2318:2336   */\n  add\n    /* \"#utility.yul\":2311:2361   */\n  mstore\n    /* \"#utility.yul\":2404:2410   */\n  0xffff\n    /* \"#utility.yul\":2395:2401   */\n  dup5\n    /* \"#utility.yul\":2389:2402   */\n  mload\n    /* \"#utility.yul\":2385:2411   */\n  and\n    /* \"#utility.yul\":2377:2383   */\n  dup2\n    /* \"#utility.yul\":2370:2412   */\n  mstore\n    /* \"#utility.yul\":2459:2461   */\n  0x20\n    /* \"#utility.yul\":2451:2457   */\n  dup5\n    /* \"#utility.yul\":2447:2462   */\n  add\n    /* \"#utility.yul\":2441:2463   */\n  mload\n    /* \"#utility.yul\":2496:2499   */\n  0x80\n    /* \"#utility.yul\":2491:2493   */\n  0x20\n    /* \"#utility.yul\":2483:2489   */\n  dup4\n    /* \"#utility.yul\":2479:2494   */\n  add\n    /* \"#utility.yul\":2472:2500   */\n  mstore\n    /* \"#utility.yul\":2523:2572   */\n  tag_51\n    /* \"#utility.yul\":2567:2570   */\n  0x80\n    /* \"#utility.yul\":2559:2565   */\n  dup4\n    /* \"#utility.yul\":2555:2571   */\n  add\n    /* \"#utility.yul\":2541:2553   */\n  dup3\n    /* \"#utility.yul\":2523:2572   */\n  tag_27\n  jump\t// in\ntag_51:\n    /* \"#utility.yul\":2509:2572   */\n  swap1\n  pop\n    /* \"#utility.yul\":2621:2623   */\n  0x40\n    /* \"#utility.yul\":2613:2619   */\n  dup6\n    /* \"#utility.yul\":2609:2624   */\n  add\n    /* \"#utility.yul\":2603:2625   */\n  mload\n    /* \"#utility.yul\":2670:2676   */\n  dup3\n    /* \"#utility.yul\":2662:2668   */\n  dup3\n    /* \"#utility.yul\":2658:2677   */\n  sub\n    /* \"#utility.yul\":2653:2655   */\n  0x40\n    /* \"#utility.yul\":2645:2651   */\n  dup5\n    /* \"#utility.yul\":2641:2656   */\n  add\n    /* \"#utility.yul\":2634:2678   */\n  mstore\n    /* \"#utility.yul\":2701:2742   */\n  tag_52\n    /* \"#utility.yul\":2735:2741   */\n  dup3\n    /* \"#utility.yul\":2719:2733   */\n  dup3\n    /* \"#utility.yul\":2701:2742   */\n  tag_27\n  jump\t// in\ntag_52:\n    /* \"#utility.yul\":2687:2742   */\n  swap2\n  pop\n  pop\n    /* \"#utility.yul\":2807:2809   */\n  0x60\n    /* \"#utility.yul\":2799:2805   */\n  dup6\n    /* \"#utility.yul\":2795:2810   */\n  add\n    /* \"#utility.yul\":2789:2811   */\n  mload\n    /* \"#utility.yul\":2782:2812   */\n  iszero\n    /* \"#utility.yul\":2775:2813   */\n  iszero\n    /* \"#utility.yul\":2770:2772   */\n  0x60\n    /* \"#utility.yul\":2762:2768   */\n  dup4\n    /* \"#utility.yul\":2758:2773   */\n  add\n    /* \"#utility.yul\":2751:2814   */\n  mstore\n    /* \"#utility.yul\":2831:2837   */\n  dup1\n    /* \"#utility.yul\":2823:2837   */\n  swap3\n  pop\n  pop\n  pop\n    /* \"#utility.yul\":1728:2843   */\n  swap6\n  swap5\n  pop\n  pop\n  pop\n  pop\n  pop\n  jump\t// out\n    /* \"#utility.yul\":2848:3122   */\ntag_13:\n    /* \"#utility.yul\":2977:2980   */\n  0x00\n    /* \"#utility.yul\":3015:3021   */\n  dup3\n    /* \"#utility.yul\":3009:3022   */\n  mload\n    /* \"#utility.yul\":3031:3084   */\n  tag_54\n    /* \"#utility.yul\":3077:3083   */\n  dup2\n    /* \"#utility.yul\":3072:3075   */\n  dup5\n    /* \"#utility.yul\":3065:3069   */\n  0x20\n    /* \"#utility.yul\":3057:3063   */\n  dup8\n    /* \"#utility.yul\":3053:3070   */\n  add\n    /* \"#utility.yul\":3031:3084   */\n  tag_26\n  jump\t// in\ntag_54:\n    /* \"#utility.yul\":3100:3116   */\n  swap2\n  swap1\n  swap2\n  add\n  swap3\n    /* \"#utility.yul\":2848:3122   */\n  swap2\n  pop\n  pop\n  jump\t// out\ntag_28:\n    /* \"__xalzzy__.sol\":405:1601  contract __xalzzy__ is ERC721Delegated, ReentrancyGuard {... */\n  dataSize(sub_0)\n  dup1\n  dataOffset(sub_0)\n  0x00\n  codecopy\n  0x00\n  return\nstop\n\nsub_0: assembly {\n        /* \"__xalzzy__.sol\":405:1601  contract __xalzzy__ is ERC721Delegated, ReentrancyGuard {... */\n      mstore(0x40, 0x80)\n      jumpi(tag_1, lt(calldatasize, 0x04))\n      shr(0xe0, calldataload(0x00))\n      dup1\n      0x3ccfd60b\n      gt\n      tag_10\n      jumpi\n      dup1\n      0x3ccfd60b\n      eq\n      tag_6\n      jumpi\n      dup1\n      0x55f804b3\n      eq\n      tag_7\n      jumpi\n      dup1\n      0x5c60da1b\n      eq\n      tag_8\n      jumpi\n      dup1\n      0xeb8d2444\n      eq\n      tag_9\n      jumpi\n      jump(tag_2)\n    tag_10:\n      dup1\n      0x02c88989\n      eq\n      tag_3\n      jumpi\n      dup1\n      0x1249c58b\n      eq\n      tag_4\n      jumpi\n      dup1\n      0x18160ddd\n      eq\n      tag_5\n      jumpi\n      jump(tag_2)\n    tag_1:\n      jumpi(tag_2, calldatasize)\n        /* \"gwei-slim-nft-contracts/contracts/base/ERC721Delegated.sol\":5734:5742  revert() */\n      0x00\n      dup1\n      revert\n        /* \"__xalzzy__.sol\":405:1601  contract __xalzzy__ is ERC721Delegated, ReentrancyGuard {... */\n    tag_2:\n      callvalue\n      dup1\n      iszero\n      tag_13\n      jumpi\n      0x00\n      dup1\n      revert\n    tag_13:\n      pop\n        /* \"gwei-slim-nft-contracts/contracts/base/ERC721Delegated.sol\":5605:5616  _fallback() */\n      tag_16\n        /* \"gwei-slim-nft-contracts/contracts/base/ERC721Delegated.sol\":5605:5614  _fallback */\n      tag_17\n        /* \"gwei-slim-nft-contracts/contracts/base/ERC721Delegated.sol\":5605:5616  _fallback() */\n      jump\t// in\n    tag_16:\n        /* \"__xalzzy__.sol\":405:1601  contract __xalzzy__ is ERC721Delegated, ReentrancyGuard {... */\n      stop\n        /* \"__xalzzy__.sol\":1193:1296  function setSaleIsActive(bool saleIsActive_) external onlyOwner {... */\n    tag_3:\n      callvalue\n      dup1\n      iszero\n      tag_18\n      jumpi\n      0x00\n      dup1\n      revert\n    tag_18:\n      pop\n      tag_16\n      tag_20\n      calldatasize\n      0x04\n      tag_21\n      jump\t// in\n    tag_20:\n      tag_22\n      jump\t// in\n        /* \"__xalzzy__.sol\":865:1033  function mint() public nonReentrant onlyOwner {... */\n    tag_4:\n      callvalue\n      dup1\n      iszero\n      tag_23\n      jumpi\n      0x00\n      dup1\n      revert\n    tag_23:\n      pop\n      tag_16\n      tag_25\n      jump\t// in\n        /* \"__xalzzy__.sol\":1037:1131  function totalSupply() public view returns (uint256) {... */\n    tag_5:\n      callvalue\n      dup1\n      iszero\n      tag_26\n      jumpi\n      0x00\n      dup1\n      revert\n    tag_26:\n      pop\n      tag_27\n      tag_28\n      jump\t// in\n    tag_27:\n      mload(0x40)\n        /* \"#utility.yul\":438:463   */\n      swap1\n      dup2\n      mstore\n        /* \"#utility.yul\":426:428   */\n      0x20\n        /* \"#utility.yul\":411:429   */\n      add\n        /* \"__xalzzy__.sol\":1037:1131  function totalSupply() public view returns (uint256) {... */\n    tag_29:\n      mload(0x40)\n      dup1\n      swap2\n      sub\n      swap1\n      return\n        /* \"__xalzzy__.sol\":1457:1599  function withdraw() public nonReentrant {... */\n    tag_6:\n      callvalue\n      dup1\n      iszero\n      tag_31\n      jumpi\n      0x00\n      dup1\n      revert\n    tag_31:\n      pop\n      tag_16\n      tag_33\n      jump\t// in\n        /* \"__xalzzy__.sol\":1324:1435  function setBaseURI(string memory customBaseURI_) external onlyOwner {... */\n    tag_7:\n      callvalue\n      dup1\n      iszero\n      tag_34\n      jumpi\n      0x00\n      dup1\n      revert\n    tag_34:\n      pop\n      tag_16\n      tag_36\n      calldatasize\n      0x04\n      tag_37\n      jump\t// in\n    tag_36:\n      tag_38\n      jump\t// in\n        /* \"gwei-slim-nft-contracts/contracts/base/ERC721Delegated.sol\":472:629  function implementation() public view returns (address) {... */\n    tag_8:\n      callvalue\n      dup1\n      iszero\n      tag_39\n      jumpi\n      0x00\n      dup1\n      revert\n    tag_39:\n      pop\n        /* \"gwei-slim-nft-contracts/contracts/base/ERC721Delegated.sol\":355:421  0x360894a13ba1a3210667c828492db98dca3e2076cc3735a920a3ca505d382bbc */\n      0x360894a13ba1a3210667c828492db98dca3e2076cc3735a920a3ca505d382bbc\n        /* \"gwei-slim-nft-contracts/contracts/base/ERC721Delegated.sol\":557:622  StorageSlotUpgradeable.getAddressSlot(_IMPLEMENTATION_SLOT).value */\n      sload\n        /* \"gwei-slim-nft-contracts/contracts/base/ERC721Delegated.sol\":472:629  function implementation() public view returns (address) {... */\n      mload(0x40)\n      sub(shl(0xa0, 0x01), 0x01)\n        /* \"gwei-slim-nft-contracts/contracts/base/ERC721Delegated.sol\":557:622  StorageSlotUpgradeable.getAddressSlot(_IMPLEMENTATION_SLOT).value */\n      swap1\n      swap2\n      and\n        /* \"#utility.yul\":1679:1730   */\n      dup2\n      mstore\n        /* \"#utility.yul\":1667:1669   */\n      0x20\n        /* \"#utility.yul\":1652:1670   */\n      add\n        /* \"gwei-slim-nft-contracts/contracts/base/ERC721Delegated.sol\":472:629  function implementation() public view returns (address) {... */\n      tag_29\n        /* \"#utility.yul\":1533:1736   */\n      jump\n        /* \"__xalzzy__.sol\":1157:1188  bool public saleIsActive = true */\n    tag_9:\n      callvalue\n      dup1\n      iszero\n      tag_44\n      jumpi\n      0x00\n      dup1\n      revert\n    tag_44:\n      pop\n      sload(0x0186a2)\n      tag_45\n      swap1\n      0xff\n      and\n      dup2\n      jump\n    tag_45:\n      mload(0x40)\n        /* \"#utility.yul\":1906:1920   */\n      swap1\n      iszero\n        /* \"#utility.yul\":1899:1921   */\n      iszero\n        /* \"#utility.yul\":1881:1922   */\n      dup2\n      mstore\n        /* \"#utility.yul\":1869:1871   */\n      0x20\n        /* \"#utility.yul\":1854:1872   */\n      add\n        /* \"__xalzzy__.sol\":1157:1188  bool public saleIsActive = true */\n      tag_29\n        /* \"#utility.yul\":1741:1928   */\n      jump\n        /* \"gwei-slim-nft-contracts/contracts/base/ERC721Delegated.sol\":4465:5370  function _fallback() internal virtual {... */\n    tag_17:\n        /* \"gwei-slim-nft-contracts/contracts/base/ERC721Delegated.sol\":4513:4525  address impl */\n      0x00\n        /* \"gwei-slim-nft-contracts/contracts/base/ERC721Delegated.sol\":4528:4544  implementation() */\n      tag_51\n        /* \"gwei-slim-nft-contracts/contracts/base/ERC721Delegated.sol\":355:421  0x360894a13ba1a3210667c828492db98dca3e2076cc3735a920a3ca505d382bbc */\n      0x360894a13ba1a3210667c828492db98dca3e2076cc3735a920a3ca505d382bbc\n        /* \"gwei-slim-nft-contracts/contracts/base/ERC721Delegated.sol\":557:622  StorageSlotUpgradeable.getAddressSlot(_IMPLEMENTATION_SLOT).value */\n      sload\n      sub(shl(0xa0, 0x01), 0x01)\n      and\n      swap1\n        /* \"gwei-slim-nft-contracts/contracts/base/ERC721Delegated.sol\":472:629  function implementation() public view returns (address) {... */\n      jump\n        /* \"gwei-slim-nft-contracts/contracts/base/ERC721Delegated.sol\":4528:4544  implementation() */\n    tag_51:\n        /* \"gwei-slim-nft-contracts/contracts/base/ERC721Delegated.sol\":4513:4544  address impl = implementation() */\n      swap1\n      pop\n        /* \"gwei-slim-nft-contracts/contracts/base/ERC721Delegated.sol\":4823:4837  calldatasize() */\n      calldatasize\n        /* \"gwei-slim-nft-contracts/contracts/base/ERC721Delegated.sol\":4820:4821  0 */\n      0x00\n        /* \"gwei-slim-nft-contracts/contracts/base/ERC721Delegated.sol\":4817:4818  0 */\n      dup1\n        /* \"gwei-slim-nft-contracts/contracts/base/ERC721Delegated.sol\":4804:4838  calldatacopy(0, 0, calldatasize()) */\n      calldatacopy\n        /* \"gwei-slim-nft-contracts/contracts/base/ERC721Delegated.sol\":5027:5028  0 */\n      0x00\n        /* \"gwei-slim-nft-contracts/contracts/base/ERC721Delegated.sol\":5024:5025  0 */\n      dup1\n        /* \"gwei-slim-nft-contracts/contracts/base/ERC721Delegated.sol\":5008:5022  calldatasize() */\n      calldatasize\n        /* \"gwei-slim-nft-contracts/contracts/base/ERC721Delegated.sol\":5005:5006  0 */\n      0x00\n        /* \"gwei-slim-nft-contracts/contracts/base/ERC721Delegated.sol\":4999:5003  impl */\n      dup5\n        /* \"gwei-slim-nft-contracts/contracts/base/ERC721Delegated.sol\":4992:4997  gas() */\n      gas\n        /* \"gwei-slim-nft-contracts/contracts/base/ERC721Delegated.sol\":4979:5029  delegatecall(gas(), impl, 0, calldatasize(), 0, 0) */\n      delegatecall\n        /* \"gwei-slim-nft-contracts/contracts/base/ERC721Delegated.sol\":5103:5119  returndatasize() */\n      returndatasize\n        /* \"gwei-slim-nft-contracts/contracts/base/ERC721Delegated.sol\":5100:5101  0 */\n      0x00\n        /* \"gwei-slim-nft-contracts/contracts/base/ERC721Delegated.sol\":5097:5098  0 */\n      dup1\n        /* \"gwei-slim-nft-contracts/contracts/base/ERC721Delegated.sol\":5082:5120  returndatacopy(0, 0, returndatasize()) */\n      returndatacopy\n        /* \"gwei-slim-nft-contracts/contracts/base/ERC721Delegated.sol\":5141:5147  result */\n      dup1\n        /* \"gwei-slim-nft-contracts/contracts/base/ERC721Delegated.sol\":5208:5274  case 0 {... */\n      dup1\n      iszero\n      tag_53\n      jumpi\n        /* \"gwei-slim-nft-contracts/contracts/base/ERC721Delegated.sol\":5323:5339  returndatasize() */\n      returndatasize\n        /* \"gwei-slim-nft-contracts/contracts/base/ERC721Delegated.sol\":5320:5321  0 */\n      0x00\n        /* \"gwei-slim-nft-contracts/contracts/base/ERC721Delegated.sol\":5313:5340  return(0, returndatasize()) */\n      return\n        /* \"gwei-slim-nft-contracts/contracts/base/ERC721Delegated.sol\":5208:5274  case 0 {... */\n    tag_53:\n        /* \"gwei-slim-nft-contracts/contracts/base/ERC721Delegated.sol\":5243:5259  returndatasize() */\n      returndatasize\n        /* \"gwei-slim-nft-contracts/contracts/base/ERC721Delegated.sol\":5240:5241  0 */\n      0x00\n        /* \"gwei-slim-nft-contracts/contracts/base/ERC721Delegated.sol\":5233:5260  revert(0, returndatasize()) */\n      revert\n        /* \"gwei-slim-nft-contracts/contracts/base/ERC721Delegated.sol\":5134:5354  switch result... */\n    tag_52:\n      pop\n      pop\n        /* \"gwei-slim-nft-contracts/contracts/base/ERC721Delegated.sol\":4564:5364  {... */\n      pop\n        /* \"gwei-slim-nft-contracts/contracts/base/ERC721Delegated.sol\":4465:5370  function _fallback() internal virtual {... */\n      jump\t// out\n        /* \"__xalzzy__.sol\":1193:1296  function setSaleIsActive(bool saleIsActive_) external onlyOwner {... */\n    tag_22:\n        /* \"gwei-slim-nft-contracts/contracts/base/ERC721Delegated.sol\":2132:2136  this */\n      address\n      sub(shl(0xa0, 0x01), 0x01)\n        /* \"gwei-slim-nft-contracts/contracts/base/ERC721Delegated.sol\":1796:1810  base().__owner */\n      and\n      0x13effa0f\n        /* \"gwei-slim-nft-contracts/contracts/base/ERC721Delegated.sol\":1796:1812  base().__owner() */\n      mload(0x40)\n      dup2\n      0xffffffff\n      and\n      0xe0\n      shl\n      dup2\n      mstore\n      0x04\n      add\n      0x20\n      mload(0x40)\n      dup1\n      dup4\n      sub\n      dup2\n      dup7\n      dup1\n      extcodesize\n      iszero\n      dup1\n      iszero\n      tag_57\n      jumpi\n      0x00\n      dup1\n      revert\n    tag_57:\n      pop\n      gas\n      staticcall\n      iszero\n      dup1\n      iszero\n      tag_59\n      jumpi\n      returndatasize\n      0x00\n      dup1\n      returndatacopy\n      revert(0x00, returndatasize)\n    tag_59:\n      pop\n      pop\n      pop\n      pop\n      mload(0x40)\n      returndatasize\n      not(0x1f)\n      0x1f\n      dup3\n      add\n      and\n      dup3\n      add\n      dup1\n      0x40\n      mstore\n      pop\n      dup2\n      add\n      swap1\n      tag_60\n      swap2\n      swap1\n      tag_61\n      jump\t// in\n    tag_60:\n      sub(shl(0xa0, 0x01), 0x01)\n        /* \"gwei-slim-nft-contracts/contracts/base/ERC721Delegated.sol\":1782:1812  msg.sender == base().__owner() */\n      and\n        /* \"gwei-slim-nft-contracts/contracts/base/ERC721Delegated.sol\":1782:1792  msg.sender */\n      caller\n      sub(shl(0xa0, 0x01), 0x01)\n        /* \"gwei-slim-nft-contracts/contracts/base/ERC721Delegated.sol\":1782:1812  msg.sender == base().__owner() */\n      and\n      eq\n        /* \"gwei-slim-nft-contracts/contracts/base/ERC721Delegated.sol\":1774:1826  require(msg.sender == base().__owner(), \"Not owner\") */\n      tag_62\n      jumpi\n      mload(0x40)\n      shl(0xe5, 0x461bcd)\n      dup2\n      mstore\n      0x04\n      add\n      tag_63\n      swap1\n      tag_64\n      jump\t// in\n    tag_63:\n      mload(0x40)\n      dup1\n      swap2\n      sub\n      swap1\n      revert\n    tag_62:\n        /* \"__xalzzy__.sol\":1263:1275  saleIsActive */\n      0x0186a2\n        /* \"__xalzzy__.sol\":1263:1291  saleIsActive = saleIsActive_ */\n      dup1\n      sload\n      not(0xff)\n      and\n      swap2\n      iszero\n      iszero\n      swap2\n      swap1\n      swap2\n      or\n      swap1\n      sstore\n        /* \"__xalzzy__.sol\":1193:1296  function setSaleIsActive(bool saleIsActive_) external onlyOwner {... */\n      jump\t// out\n        /* \"__xalzzy__.sol\":865:1033  function mint() public nonReentrant onlyOwner {... */\n    tag_25:\n        /* \"@openzeppelin/contracts/security/ReentrancyGuard.sol\":1680:1681  2 */\n      0x02\n        /* \"@openzeppelin/contracts/security/ReentrancyGuard.sol\":2259:2266  _status */\n      sload(0x0186a0)\n        /* \"@openzeppelin/contracts/security/ReentrancyGuard.sol\":2259:2278  _status != _ENTERED */\n      eq\n      iszero\n        /* \"@openzeppelin/contracts/security/ReentrancyGuard.sol\":2251:2314  require(_status != _ENTERED, \"ReentrancyGuard: reentrant call\") */\n      tag_67\n      jumpi\n      mload(0x40)\n      shl(0xe5, 0x461bcd)\n      dup2\n      mstore\n        /* \"#utility.yul\":2767:2769   */\n      0x20\n        /* \"@openzeppelin/contracts/security/ReentrancyGuard.sol\":2251:2314  require(_status != _ENTERED, \"ReentrancyGuard: reentrant call\") */\n      0x04\n      dup3\n      add\n        /* \"#utility.yul\":2749:2770   */\n      mstore\n        /* \"#utility.yul\":2806:2808   */\n      0x1f\n        /* \"#utility.yul\":2786:2804   */\n      0x24\n      dup3\n      add\n        /* \"#utility.yul\":2779:2809   */\n      mstore\n        /* \"#utility.yul\":2845:2878   */\n      0x5265656e7472616e637947756172643a207265656e7472616e742063616c6c00\n        /* \"#utility.yul\":2825:2843   */\n      0x44\n      dup3\n      add\n        /* \"#utility.yul\":2818:2879   */\n      mstore\n        /* \"#utility.yul\":2896:2914   */\n      0x64\n      add\n        /* \"@openzeppelin/contracts/security/ReentrancyGuard.sol\":2251:2314  require(_status != _ENTERED, \"ReentrancyGuard: reentrant call\") */\n      tag_63\n        /* \"#utility.yul\":2565:2920   */\n      jump\n        /* \"@openzeppelin/contracts/security/ReentrancyGuard.sol\":2251:2314  require(_status != _ENTERED, \"ReentrancyGuard: reentrant call\") */\n    tag_67:\n        /* \"@openzeppelin/contracts/security/ReentrancyGuard.sol\":1680:1681  2 */\n      0x02\n        /* \"@openzeppelin/contracts/security/ReentrancyGuard.sol\":2389:2396  _status */\n      0x0186a0\n        /* \"@openzeppelin/contracts/security/ReentrancyGuard.sol\":2389:2407  _status = _ENTERED */\n      sstore\n        /* \"gwei-slim-nft-contracts/contracts/base/ERC721Delegated.sol\":2132:2136  this */\n      address\n      sub(shl(0xa0, 0x01), 0x01)\n        /* \"gwei-slim-nft-contracts/contracts/base/ERC721Delegated.sol\":1796:1810  base().__owner */\n      and\n      0x13effa0f\n        /* \"gwei-slim-nft-contracts/contracts/base/ERC721Delegated.sol\":1796:1812  base().__owner() */\n      mload(0x40)\n      dup2\n      0xffffffff\n      and\n      0xe0\n      shl\n      dup2\n      mstore\n      0x04\n      add\n      0x20\n      mload(0x40)\n      dup1\n      dup4\n      sub\n      dup2\n      dup7\n      dup1\n      extcodesize\n      iszero\n      dup1\n      iszero\n      tag_72\n      jumpi\n      0x00\n      dup1\n      revert\n    tag_72:\n      pop\n      gas\n      staticcall\n      iszero\n      dup1\n      iszero\n      tag_74\n      jumpi\n      returndatasize\n      0x00\n      dup1\n      returndatacopy\n      revert(0x00, returndatasize)\n    tag_74:\n      pop\n      pop\n      pop\n      pop\n      mload(0x40)\n      returndatasize\n      not(0x1f)\n      0x1f\n      dup3\n      add\n      and\n      dup3\n      add\n      dup1\n      0x40\n      mstore\n      pop\n      dup2\n      add\n      swap1\n      tag_75\n      swap2\n      swap1\n      tag_61\n      jump\t// in\n    tag_75:\n      sub(shl(0xa0, 0x01), 0x01)\n        /* \"gwei-slim-nft-contracts/contracts/base/ERC721Delegated.sol\":1782:1812  msg.sender == base().__owner() */\n      and\n        /* \"gwei-slim-nft-contracts/contracts/base/ERC721Delegated.sol\":1782:1792  msg.sender */\n      caller\n      sub(shl(0xa0, 0x01), 0x01)\n        /* \"gwei-slim-nft-contracts/contracts/base/ERC721Delegated.sol\":1782:1812  msg.sender == base().__owner() */\n      and\n      eq\n        /* \"gwei-slim-nft-contracts/contracts/base/ERC721Delegated.sol\":1774:1826  require(msg.sender == base().__owner(), \"Not owner\") */\n      tag_76\n      jumpi\n      mload(0x40)\n      shl(0xe5, 0x461bcd)\n      dup2\n      mstore\n      0x04\n      add\n      tag_63\n      swap1\n      tag_64\n      jump\t// in\n    tag_76:\n        /* \"__xalzzy__.sol\":925:937  saleIsActive */\n      and(0xff, sload(0x0186a2))\n        /* \"__xalzzy__.sol\":917:957  require(saleIsActive, \"Sale not active\") */\n      tag_79\n      jumpi\n      mload(0x40)\n      shl(0xe5, 0x461bcd)\n      dup2\n      mstore\n        /* \"#utility.yul\":3127:3129   */\n      0x20\n        /* \"__xalzzy__.sol\":917:957  require(saleIsActive, \"Sale not active\") */\n      0x04\n      dup3\n      add\n        /* \"#utility.yul\":3109:3130   */\n      mstore\n        /* \"#utility.yul\":3166:3168   */\n      0x0f\n        /* \"#utility.yul\":3146:3164   */\n      0x24\n      dup3\n      add\n        /* \"#utility.yul\":3139:3169   */\n      mstore\n      shl(0x88, 0x53616c65206e6f7420616374697665)\n        /* \"#utility.yul\":3185:3203   */\n      0x44\n      dup3\n      add\n        /* \"#utility.yul\":3178:3223   */\n      mstore\n        /* \"#utility.yul\":3240:3258   */\n      0x64\n      add\n        /* \"__xalzzy__.sol\":917:957  require(saleIsActive, \"Sale not active\") */\n      tag_63\n        /* \"#utility.yul\":2925:3264   */\n      jump\n        /* \"__xalzzy__.sol\":917:957  require(saleIsActive, \"Sale not active\") */\n    tag_79:\n        /* \"__xalzzy__.sol\":964:996  _mint(msg.sender, totalSupply()) */\n      tag_82\n        /* \"__xalzzy__.sol\":970:980  msg.sender */\n      caller\n        /* \"__xalzzy__.sol\":982:995  totalSupply() */\n      tag_83\n        /* \"__xalzzy__.sol\":982:993  totalSupply */\n      tag_28\n        /* \"__xalzzy__.sol\":982:995  totalSupply() */\n      jump\t// in\n    tag_83:\n        /* \"__xalzzy__.sol\":964:969  _mint */\n      tag_84\n        /* \"__xalzzy__.sol\":964:996  _mint(msg.sender, totalSupply()) */\n      jump\t// in\n    tag_82:\n        /* \"__xalzzy__.sol\":1003:1028  supplyCounter.increment() */\n      tag_85\n        /* \"__xalzzy__.sol\":1003:1016  supplyCounter */\n      0x0186a1\n        /* \"@openzeppelin/contracts/utils/Counters.sol\":978:997  counter._value += 1 */\n      dup1\n      sload\n        /* \"@openzeppelin/contracts/utils/Counters.sol\":996:997  1 */\n      0x01\n        /* \"@openzeppelin/contracts/utils/Counters.sol\":978:997  counter._value += 1 */\n      add\n      swap1\n      sstore\n        /* \"@openzeppelin/contracts/utils/Counters.sol\":891:1014  function increment(Counter storage counter) internal {... */\n      jump\n        /* \"__xalzzy__.sol\":1003:1028  supplyCounter.increment() */\n    tag_85:\n        /* \"@openzeppelin/contracts/security/ReentrancyGuard.sol\":1637:1638  1 */\n      0x01\n        /* \"@openzeppelin/contracts/security/ReentrancyGuard.sol\":2562:2569  _status */\n      0x0186a0\n        /* \"@openzeppelin/contracts/security/ReentrancyGuard.sol\":2562:2584  _status = _NOT_ENTERED */\n      sstore\n        /* \"__xalzzy__.sol\":865:1033  function mint() public nonReentrant onlyOwner {... */\n      jump\t// out\n        /* \"__xalzzy__.sol\":1037:1131  function totalSupply() public view returns (uint256) {... */\n    tag_28:\n        /* \"__xalzzy__.sol\":1081:1088  uint256 */\n      0x00\n        /* \"__xalzzy__.sol\":1103:1126  supplyCounter.current() */\n      tag_88\n        /* \"__xalzzy__.sol\":1103:1116  supplyCounter */\n      0x0186a1\n        /* \"@openzeppelin/contracts/utils/Counters.sol\":864:878  counter._value */\n      sload\n      swap1\n        /* \"@openzeppelin/contracts/utils/Counters.sol\":773:885  function current(Counter storage counter) internal view returns (uint256) {... */\n      jump\n        /* \"__xalzzy__.sol\":1103:1126  supplyCounter.current() */\n    tag_88:\n        /* \"__xalzzy__.sol\":1096:1126  return supplyCounter.current() */\n      swap1\n      pop\n        /* \"__xalzzy__.sol\":1037:1131  function totalSupply() public view returns (uint256) {... */\n      swap1\n      jump\t// out\n        /* \"__xalzzy__.sol\":1457:1599  function withdraw() public nonReentrant {... */\n    tag_33:\n        /* \"@openzeppelin/contracts/security/ReentrancyGuard.sol\":1680:1681  2 */\n      0x02\n        /* \"@openzeppelin/contracts/security/ReentrancyGuard.sol\":2259:2266  _status */\n      sload(0x0186a0)\n        /* \"@openzeppelin/contracts/security/ReentrancyGuard.sol\":2259:2278  _status != _ENTERED */\n      eq\n      iszero\n        /* \"@openzeppelin/contracts/security/ReentrancyGuard.sol\":2251:2314  require(_status != _ENTERED, \"ReentrancyGuard: reentrant call\") */\n      tag_91\n      jumpi\n      mload(0x40)\n      shl(0xe5, 0x461bcd)\n      dup2\n      mstore\n        /* \"#utility.yul\":2767:2769   */\n      0x20\n        /* \"@openzeppelin/contracts/security/ReentrancyGuard.sol\":2251:2314  require(_status != _ENTERED, \"ReentrancyGuard: reentrant call\") */\n      0x04\n      dup3\n      add\n        /* \"#utility.yul\":2749:2770   */\n      mstore\n        /* \"#utility.yul\":2806:2808   */\n      0x1f\n        /* \"#utility.yul\":2786:2804   */\n      0x24\n      dup3\n      add\n        /* \"#utility.yul\":2779:2809   */\n      mstore\n        /* \"#utility.yul\":2845:2878   */\n      0x5265656e7472616e637947756172643a207265656e7472616e742063616c6c00\n        /* \"#utility.yul\":2825:2843   */\n      0x44\n      dup3\n      add\n        /* \"#utility.yul\":2818:2879   */\n      mstore\n        /* \"#utility.yul\":2896:2914   */\n      0x64\n      add\n        /* \"@openzeppelin/contracts/security/ReentrancyGuard.sol\":2251:2314  require(_status != _ENTERED, \"ReentrancyGuard: reentrant call\") */\n      tag_63\n        /* \"#utility.yul\":2565:2920   */\n      jump\n        /* \"@openzeppelin/contracts/security/ReentrancyGuard.sol\":2251:2314  require(_status != _ENTERED, \"ReentrancyGuard: reentrant call\") */\n    tag_91:\n        /* \"@openzeppelin/contracts/security/ReentrancyGuard.sol\":1680:1681  2 */\n      0x02\n        /* \"@openzeppelin/contracts/security/ReentrancyGuard.sol\":2389:2396  _status */\n      0x0186a0\n        /* \"@openzeppelin/contracts/security/ReentrancyGuard.sol\":2389:2407  _status = _ENTERED */\n      sstore\n        /* \"__xalzzy__.sol\":1521:1542  address(this).balance */\n      selfbalance\n        /* \"__xalzzy__.sol\":1549:1594  Address.sendValue(payable(_owner()), balance) */\n      tag_94\n        /* \"__xalzzy__.sol\":1575:1583  _owner() */\n      tag_95\n        /* \"__xalzzy__.sol\":1575:1581  _owner */\n      tag_96\n        /* \"__xalzzy__.sol\":1575:1583  _owner() */\n      jump\t// in\n    tag_95:\n        /* \"__xalzzy__.sol\":1586:1593  balance */\n      dup3\n        /* \"__xalzzy__.sol\":1549:1566  Address.sendValue */\n      tag_97\n        /* \"__xalzzy__.sol\":1549:1594  Address.sendValue(payable(_owner()), balance) */\n      jump\t// in\n    tag_94:\n      pop\n        /* \"@openzeppelin/contracts/security/ReentrancyGuard.sol\":1637:1638  1 */\n      0x01\n        /* \"@openzeppelin/contracts/security/ReentrancyGuard.sol\":2562:2569  _status */\n      0x0186a0\n        /* \"@openzeppelin/contracts/security/ReentrancyGuard.sol\":2562:2584  _status = _NOT_ENTERED */\n      sstore\n        /* \"__xalzzy__.sol\":1457:1599  function withdraw() public nonReentrant {... */\n      jump\t// out\n        /* \"__xalzzy__.sol\":1324:1435  function setBaseURI(string memory customBaseURI_) external onlyOwner {... */\n    tag_38:\n        /* \"gwei-slim-nft-contracts/contracts/base/ERC721Delegated.sol\":2132:2136  this */\n      address\n      sub(shl(0xa0, 0x01), 0x01)\n        /* \"gwei-slim-nft-contracts/contracts/base/ERC721Delegated.sol\":1796:1810  base().__owner */\n      and\n      0x13effa0f\n        /* \"gwei-slim-nft-contracts/contracts/base/ERC721Delegated.sol\":1796:1812  base().__owner() */\n      mload(0x40)\n      dup2\n      0xffffffff\n      and\n      0xe0\n      shl\n      dup2\n      mstore\n      0x04\n      add\n      0x20\n      mload(0x40)\n      dup1\n      dup4\n      sub\n      dup2\n      dup7\n      dup1\n      extcodesize\n      iszero\n      dup1\n      iszero\n      tag_100\n      jumpi\n      0x00\n      dup1\n      revert\n    tag_100:\n      pop\n      gas\n      staticcall\n      iszero\n      dup1\n      iszero\n      tag_102\n      jumpi\n      returndatasize\n      0x00\n      dup1\n      returndatacopy\n      revert(0x00, returndatasize)\n    tag_102:\n      pop\n      pop\n      pop\n      pop\n      mload(0x40)\n      returndatasize\n      not(0x1f)\n      0x1f\n      dup3\n      add\n      and\n      dup3\n      add\n      dup1\n      0x40\n      mstore\n      pop\n      dup2\n      add\n      swap1\n      tag_103\n      swap2\n      swap1\n      tag_61\n      jump\t// in\n    tag_103:\n      sub(shl(0xa0, 0x01), 0x01)\n        /* \"gwei-slim-nft-contracts/contracts/base/ERC721Delegated.sol\":1782:1812  msg.sender == base().__owner() */\n      and\n        /* \"gwei-slim-nft-contracts/contracts/base/ERC721Delegated.sol\":1782:1792  msg.sender */\n      caller\n      sub(shl(0xa0, 0x01), 0x01)\n        /* \"gwei-slim-nft-contracts/contracts/base/ERC721Delegated.sol\":1782:1812  msg.sender == base().__owner() */\n      and\n      eq\n        /* \"gwei-slim-nft-contracts/contracts/base/ERC721Delegated.sol\":1774:1826  require(msg.sender == base().__owner(), \"Not owner\") */\n      tag_104\n      jumpi\n      mload(0x40)\n      shl(0xe5, 0x461bcd)\n      dup2\n      mstore\n      0x04\n      add\n      tag_63\n      swap1\n      tag_64\n      jump\t// in\n    tag_104:\n        /* \"__xalzzy__.sol\":1399:1430  _setBaseURI(customBaseURI_, \"\") */\n      tag_107\n        /* \"__xalzzy__.sol\":1411:1425  customBaseURI_ */\n      dup2\n        /* \"__xalzzy__.sol\":1399:1430  _setBaseURI(customBaseURI_, \"\") */\n      mload(0x40)\n      dup1\n      0x20\n      add\n      0x40\n      mstore\n      dup1\n      0x00\n      dup2\n      mstore\n      pop\n        /* \"__xalzzy__.sol\":1399:1410  _setBaseURI */\n      tag_108\n        /* \"__xalzzy__.sol\":1399:1430  _setBaseURI(customBaseURI_, \"\") */\n      jump\t// in\n    tag_107:\n        /* \"__xalzzy__.sol\":1324:1435  function setBaseURI(string memory customBaseURI_) external onlyOwner {... */\n      pop\n      jump\t// out\n        /* \"@openzeppelin/contracts-upgradeable/utils/StorageSlotUpgradeable.sol\":1553:1700  function getAddressSlot(bytes32 slot) internal pure returns (AddressSlot storage r) {... */\n    tag_49:\n        /* \"@openzeppelin/contracts-upgradeable/utils/StorageSlotUpgradeable.sol\":1680:1684  slot */\n      swap1\n        /* \"@openzeppelin/contracts-upgradeable/utils/StorageSlotUpgradeable.sol\":1553:1700  function getAddressSlot(bytes32 slot) internal pure returns (AddressSlot storage r) {... */\n      jump\t// out\n        /* \"gwei-slim-nft-contracts/contracts/base/ERC721Delegated.sol\":2701:2787  function _mint(address to, uint256 id) internal {... */\n    tag_84:\n        /* \"gwei-slim-nft-contracts/contracts/base/ERC721Delegated.sol\":2759:2780  base().__mint(to, id) */\n      mload(0x40)\n      shl(0xe0, 0x3dc8ded7)\n      dup2\n      mstore\n      sub(shl(0xa0, 0x01), 0x01)\n        /* \"#utility.yul\":3461:3493   */\n      dup4\n      and\n        /* \"gwei-slim-nft-contracts/contracts/base/ERC721Delegated.sol\":2759:2780  base().__mint(to, id) */\n      0x04\n      dup3\n      add\n        /* \"#utility.yul\":3443:3494   */\n      mstore\n        /* \"#utility.yul\":3510:3528   */\n      0x24\n      dup2\n      add\n        /* \"#utility.yul\":3503:3537   */\n      dup3\n      swap1\n      mstore\n        /* \"gwei-slim-nft-contracts/contracts/base/ERC721Delegated.sol\":2132:2136  this */\n      address\n      swap1\n        /* \"gwei-slim-nft-contracts/contracts/base/ERC721Delegated.sol\":2759:2772  base().__mint */\n      0x3dc8ded7\n      swap1\n        /* \"#utility.yul\":3416:3434   */\n      0x44\n      add\n        /* \"gwei-slim-nft-contracts/contracts/base/ERC721Delegated.sol\":2759:2780  base().__mint(to, id) */\n    tag_115:\n      0x00\n      mload(0x40)\n      dup1\n      dup4\n      sub\n      dup2\n      0x00\n      dup8\n      dup1\n      extcodesize\n      iszero\n      dup1\n      iszero\n      tag_117\n      jumpi\n      0x00\n      dup1\n      revert\n    tag_117:\n      pop\n      gas\n      call\n      iszero\n      dup1\n      iszero\n      tag_119\n      jumpi\n      returndatasize\n      0x00\n      dup1\n      returndatacopy\n      revert(0x00, returndatasize)\n    tag_119:\n      pop\n      pop\n      pop\n      pop\n        /* \"gwei-slim-nft-contracts/contracts/base/ERC721Delegated.sol\":2701:2787  function _mint(address to, uint256 id) internal {... */\n      pop\n      pop\n      jump\t// out\n        /* \"gwei-slim-nft-contracts/contracts/base/ERC721Delegated.sol\":2284:2374  function _owner() internal view returns (address) {... */\n    tag_96:\n        /* \"gwei-slim-nft-contracts/contracts/base/ERC721Delegated.sol\":2325:2332  address */\n      0x00\n        /* \"gwei-slim-nft-contracts/contracts/base/ERC721Delegated.sol\":2132:2136  this */\n      address\n      sub(shl(0xa0, 0x01), 0x01)\n        /* \"gwei-slim-nft-contracts/contracts/base/ERC721Delegated.sol\":2351:2365  base().__owner */\n      and\n      0x13effa0f\n        /* \"gwei-slim-nft-contracts/contracts/base/ERC721Delegated.sol\":2351:2367  base().__owner() */\n      mload(0x40)\n      dup2\n      0xffffffff\n      and\n      0xe0\n      shl\n      dup2\n      mstore\n      0x04\n      add\n      0x20\n      mload(0x40)\n      dup1\n      dup4\n      sub\n      dup2\n      dup7\n      dup1\n      extcodesize\n      iszero\n      dup1\n      iszero\n      tag_124\n      jumpi\n      0x00\n      dup1\n      revert\n    tag_124:\n      pop\n      gas\n      staticcall\n      iszero\n      dup1\n      iszero\n      tag_126\n      jumpi\n      returndatasize\n      0x00\n      dup1\n      returndatacopy\n      revert(0x00, returndatasize)\n    tag_126:\n      pop\n      pop\n      pop\n      pop\n      mload(0x40)\n      returndatasize\n      not(0x1f)\n      0x1f\n      dup3\n      add\n      and\n      dup3\n      add\n      dup1\n      0x40\n      mstore\n      pop\n      dup2\n      add\n      swap1\n      tag_88\n      swap2\n      swap1\n      tag_61\n      jump\t// in\n        /* \"@openzeppelin/contracts/utils/Address.sol\":2012:2324  function sendValue(address payable recipient, uint256 amount) internal {... */\n    tag_97:\n        /* \"@openzeppelin/contracts/utils/Address.sol\":2126:2132  amount */\n      dup1\n        /* \"@openzeppelin/contracts/utils/Address.sol\":2101:2122  address(this).balance */\n      selfbalance\n        /* \"@openzeppelin/contracts/utils/Address.sol\":2101:2132  address(this).balance >= amount */\n      lt\n      iszero\n        /* \"@openzeppelin/contracts/utils/Address.sol\":2093:2166  require(address(this).balance >= amount, \"Address: insufficient balance\") */\n      tag_129\n      jumpi\n      mload(0x40)\n      shl(0xe5, 0x461bcd)\n      dup2\n      mstore\n        /* \"#utility.yul\":3750:3752   */\n      0x20\n        /* \"@openzeppelin/contracts/utils/Address.sol\":2093:2166  require(address(this).balance >= amount, \"Address: insufficient balance\") */\n      0x04\n      dup3\n      add\n        /* \"#utility.yul\":3732:3753   */\n      mstore\n        /* \"#utility.yul\":3789:3791   */\n      0x1d\n        /* \"#utility.yul\":3769:3787   */\n      0x24\n      dup3\n      add\n        /* \"#utility.yul\":3762:3792   */\n      mstore\n        /* \"#utility.yul\":3828:3859   */\n      0x416464726573733a20696e73756666696369656e742062616c616e6365000000\n        /* \"#utility.yul\":3808:3826   */\n      0x44\n      dup3\n      add\n        /* \"#utility.yul\":3801:3860   */\n      mstore\n        /* \"#utility.yul\":3877:3895   */\n      0x64\n      add\n        /* \"@openzeppelin/contracts/utils/Address.sol\":2093:2166  require(address(this).balance >= amount, \"Address: insufficient balance\") */\n      tag_63\n        /* \"#utility.yul\":3548:3901   */\n      jump\n        /* \"@openzeppelin/contracts/utils/Address.sol\":2093:2166  require(address(this).balance >= amount, \"Address: insufficient balance\") */\n    tag_129:\n        /* \"@openzeppelin/contracts/utils/Address.sol\":2178:2190  bool success */\n      0x00\n        /* \"@openzeppelin/contracts/utils/Address.sol\":2196:2205  recipient */\n      dup3\n      sub(shl(0xa0, 0x01), 0x01)\n        /* \"@openzeppelin/contracts/utils/Address.sol\":2196:2210  recipient.call */\n      and\n        /* \"@openzeppelin/contracts/utils/Address.sol\":2218:2224  amount */\n      dup3\n        /* \"@openzeppelin/contracts/utils/Address.sol\":2196:2229  recipient.call{value: amount}(\"\") */\n      mload(0x40)\n      0x00\n      mload(0x40)\n      dup1\n      dup4\n      sub\n      dup2\n      dup6\n      dup8\n      gas\n      call\n      swap3\n      pop\n      pop\n      pop\n      returndatasize\n      dup1\n      0x00\n      dup2\n      eq\n      tag_136\n      jumpi\n      mload(0x40)\n      swap2\n      pop\n      and(add(returndatasize, 0x3f), not(0x1f))\n      dup3\n      add\n      0x40\n      mstore\n      returndatasize\n      dup3\n      mstore\n      returndatasize\n      0x00\n      0x20\n      dup5\n      add\n      returndatacopy\n      jump(tag_135)\n    tag_136:\n      0x60\n      swap2\n      pop\n    tag_135:\n      pop\n        /* \"@openzeppelin/contracts/utils/Address.sol\":2177:2229  (bool success, ) = recipient.call{value: amount}(\"\") */\n      pop\n      swap1\n      pop\n        /* \"@openzeppelin/contracts/utils/Address.sol\":2247:2254  success */\n      dup1\n        /* \"@openzeppelin/contracts/utils/Address.sol\":2239:2317  require(success, \"Address: unable to send value, recipient may have reverted\") */\n      tag_52\n      jumpi\n      mload(0x40)\n      shl(0xe5, 0x461bcd)\n      dup2\n      mstore\n        /* \"#utility.yul\":4318:4320   */\n      0x20\n        /* \"@openzeppelin/contracts/utils/Address.sol\":2239:2317  require(success, \"Address: unable to send value, recipient may have reverted\") */\n      0x04\n      dup3\n      add\n        /* \"#utility.yul\":4300:4321   */\n      mstore\n        /* \"#utility.yul\":4357:4359   */\n      0x3a\n        /* \"#utility.yul\":4337:4355   */\n      0x24\n      dup3\n      add\n        /* \"#utility.yul\":4330:4360   */\n      mstore\n        /* \"#utility.yul\":4396:4430   */\n      0x416464726573733a20756e61626c6520746f2073656e642076616c75652c2072\n        /* \"#utility.yul\":4376:4394   */\n      0x44\n      dup3\n      add\n        /* \"#utility.yul\":4369:4431   */\n      mstore\n        /* \"#utility.yul\":4467:4495   */\n      0x6563697069656e74206d61792068617665207265766572746564000000000000\n        /* \"#utility.yul\":4447:4465   */\n      0x64\n      dup3\n      add\n        /* \"#utility.yul\":4440:4496   */\n      mstore\n        /* \"#utility.yul\":4513:4532   */\n      0x84\n      add\n        /* \"@openzeppelin/contracts/utils/Address.sol\":2239:2317  require(success, \"Address: unable to send value, recipient may have reverted\") */\n      tag_63\n        /* \"#utility.yul\":4116:4538   */\n      jump\n        /* \"gwei-slim-nft-contracts/contracts/base/ERC721Delegated.sol\":4112:4262  function _setBaseURI(string memory newUri, string memory newExtension)... */\n    tag_108:\n        /* \"gwei-slim-nft-contracts/contracts/base/ERC721Delegated.sol\":4214:4255  base().__setBaseURI(newUri, newExtension) */\n      mload(0x40)\n      shl(0xe1, 0x93c581)\n      dup2\n      mstore\n        /* \"gwei-slim-nft-contracts/contracts/base/ERC721Delegated.sol\":2132:2136  this */\n      address\n      swap1\n        /* \"gwei-slim-nft-contracts/contracts/base/ERC721Delegated.sol\":4214:4233  base().__setBaseURI */\n      0x01278b02\n      swap1\n        /* \"gwei-slim-nft-contracts/contracts/base/ERC721Delegated.sol\":4214:4255  base().__setBaseURI(newUri, newExtension) */\n      tag_115\n      swap1\n        /* \"gwei-slim-nft-contracts/contracts/base/ERC721Delegated.sol\":4234:4240  newUri */\n      dup6\n      swap1\n        /* \"gwei-slim-nft-contracts/contracts/base/ERC721Delegated.sol\":4242:4254  newExtension */\n      dup6\n      swap1\n        /* \"gwei-slim-nft-contracts/contracts/base/ERC721Delegated.sol\":4214:4255  base().__setBaseURI(newUri, newExtension) */\n      0x04\n      add\n      tag_143\n      jump\t// in\n        /* \"#utility.yul\":14:287   */\n    tag_21:\n        /* \"#utility.yul\":70:76   */\n      0x00\n        /* \"#utility.yul\":123:125   */\n      0x20\n        /* \"#utility.yul\":111:120   */\n      dup3\n        /* \"#utility.yul\":102:109   */\n      dup5\n        /* \"#utility.yul\":98:121   */\n      sub\n        /* \"#utility.yul\":94:126   */\n      slt\n        /* \"#utility.yul\":91:143   */\n      iszero\n      tag_151\n      jumpi\n        /* \"#utility.yul\":139:140   */\n      0x00\n        /* \"#utility.yul\":136:137   */\n      dup1\n        /* \"#utility.yul\":129:141   */\n      revert\n        /* \"#utility.yul\":91:143   */\n    tag_151:\n        /* \"#utility.yul\":178:187   */\n      dup2\n        /* \"#utility.yul\":165:188   */\n      calldataload\n        /* \"#utility.yul\":231:236   */\n      dup1\n        /* \"#utility.yul\":224:237   */\n      iszero\n        /* \"#utility.yul\":217:238   */\n      iszero\n        /* \"#utility.yul\":210:215   */\n      dup2\n        /* \"#utility.yul\":207:239   */\n      eq\n        /* \"#utility.yul\":197:257   */\n      tag_152\n      jumpi\n        /* \"#utility.yul\":253:254   */\n      0x00\n        /* \"#utility.yul\":250:251   */\n      dup1\n        /* \"#utility.yul\":243:255   */\n      revert\n        /* \"#utility.yul\":197:257   */\n    tag_152:\n        /* \"#utility.yul\":276:281   */\n      swap4\n        /* \"#utility.yul\":14:287   */\n      swap3\n      pop\n      pop\n      pop\n      jump\t// out\n        /* \"#utility.yul\":474:601   */\n    tag_147:\n        /* \"#utility.yul\":535:545   */\n      0x4e487b71\n        /* \"#utility.yul\":530:533   */\n      0xe0\n        /* \"#utility.yul\":526:546   */\n      shl\n        /* \"#utility.yul\":523:524   */\n      0x00\n        /* \"#utility.yul\":516:547   */\n      mstore\n        /* \"#utility.yul\":566:570   */\n      0x41\n        /* \"#utility.yul\":563:564   */\n      0x04\n        /* \"#utility.yul\":556:571   */\n      mstore\n        /* \"#utility.yul\":590:594   */\n      0x24\n        /* \"#utility.yul\":587:588   */\n      0x00\n        /* \"#utility.yul\":580:595   */\n      revert\n        /* \"#utility.yul\":606:1528   */\n    tag_37:\n        /* \"#utility.yul\":675:681   */\n      0x00\n        /* \"#utility.yul\":728:730   */\n      0x20\n        /* \"#utility.yul\":716:725   */\n      dup3\n        /* \"#utility.yul\":707:714   */\n      dup5\n        /* \"#utility.yul\":703:726   */\n      sub\n        /* \"#utility.yul\":699:731   */\n      slt\n        /* \"#utility.yul\":696:748   */\n      iszero\n      tag_156\n      jumpi\n        /* \"#utility.yul\":744:745   */\n      0x00\n        /* \"#utility.yul\":741:742   */\n      dup1\n        /* \"#utility.yul\":734:746   */\n      revert\n        /* \"#utility.yul\":696:748   */\n    tag_156:\n        /* \"#utility.yul\":784:793   */\n      dup2\n        /* \"#utility.yul\":771:794   */\n      calldataload\n        /* \"#utility.yul\":813:831   */\n      0xffffffffffffffff\n        /* \"#utility.yul\":854:856   */\n      dup1\n        /* \"#utility.yul\":846:852   */\n      dup3\n        /* \"#utility.yul\":843:857   */\n      gt\n        /* \"#utility.yul\":840:874   */\n      iszero\n      tag_157\n      jumpi\n        /* \"#utility.yul\":870:871   */\n      0x00\n        /* \"#utility.yul\":867:868   */\n      dup1\n        /* \"#utility.yul\":860:872   */\n      revert\n        /* \"#utility.yul\":840:874   */\n    tag_157:\n        /* \"#utility.yul\":908:914   */\n      dup2\n        /* \"#utility.yul\":897:906   */\n      dup5\n        /* \"#utility.yul\":893:915   */\n      add\n        /* \"#utility.yul\":883:915   */\n      swap2\n      pop\n        /* \"#utility.yul\":953:960   */\n      dup5\n        /* \"#utility.yul\":946:950   */\n      0x1f\n        /* \"#utility.yul\":942:944   */\n      dup4\n        /* \"#utility.yul\":938:951   */\n      add\n        /* \"#utility.yul\":934:961   */\n      slt\n        /* \"#utility.yul\":924:979   */\n      tag_158\n      jumpi\n        /* \"#utility.yul\":975:976   */\n      0x00\n        /* \"#utility.yul\":972:973   */\n      dup1\n        /* \"#utility.yul\":965:977   */\n      revert\n        /* \"#utility.yul\":924:979   */\n    tag_158:\n        /* \"#utility.yul\":1011:1013   */\n      dup2\n        /* \"#utility.yul\":998:1014   */\n      calldataload\n        /* \"#utility.yul\":1033:1035   */\n      dup2\n        /* \"#utility.yul\":1029:1031   */\n      dup2\n        /* \"#utility.yul\":1026:1036   */\n      gt\n        /* \"#utility.yul\":1023:1059   */\n      iszero\n      tag_160\n      jumpi\n        /* \"#utility.yul\":1039:1057   */\n      tag_160\n      tag_147\n      jump\t// in\n    tag_160:\n        /* \"#utility.yul\":1114:1116   */\n      0x40\n        /* \"#utility.yul\":1108:1117   */\n      mload\n        /* \"#utility.yul\":1082:1084   */\n      0x1f\n        /* \"#utility.yul\":1168:1181   */\n      dup3\n      add\n      not(0x1f)\n        /* \"#utility.yul\":1164:1186   */\n      swap1\n      dup2\n      and\n        /* \"#utility.yul\":1188:1190   */\n      0x3f\n        /* \"#utility.yul\":1160:1191   */\n      add\n        /* \"#utility.yul\":1156:1196   */\n      and\n        /* \"#utility.yul\":1144:1197   */\n      dup2\n      add\n      swap1\n        /* \"#utility.yul\":1212:1230   */\n      dup4\n      dup3\n      gt\n        /* \"#utility.yul\":1232:1254   */\n      dup2\n      dup4\n      lt\n        /* \"#utility.yul\":1209:1255   */\n      or\n        /* \"#utility.yul\":1206:1278   */\n      iszero\n      tag_162\n      jumpi\n        /* \"#utility.yul\":1258:1276   */\n      tag_162\n      tag_147\n      jump\t// in\n    tag_162:\n        /* \"#utility.yul\":1298:1308   */\n      dup2\n        /* \"#utility.yul\":1294:1296   */\n      0x40\n        /* \"#utility.yul\":1287:1309   */\n      mstore\n        /* \"#utility.yul\":1333:1335   */\n      dup3\n        /* \"#utility.yul\":1325:1331   */\n      dup2\n        /* \"#utility.yul\":1318:1336   */\n      mstore\n        /* \"#utility.yul\":1373:1380   */\n      dup8\n        /* \"#utility.yul\":1368:1370   */\n      0x20\n        /* \"#utility.yul\":1363:1365   */\n      dup5\n        /* \"#utility.yul\":1359:1361   */\n      dup8\n        /* \"#utility.yul\":1355:1366   */\n      add\n        /* \"#utility.yul\":1351:1371   */\n      add\n        /* \"#utility.yul\":1348:1381   */\n      gt\n        /* \"#utility.yul\":1345:1398   */\n      iszero\n      tag_163\n      jumpi\n        /* \"#utility.yul\":1394:1395   */\n      0x00\n        /* \"#utility.yul\":1391:1392   */\n      dup1\n        /* \"#utility.yul\":1384:1396   */\n      revert\n        /* \"#utility.yul\":1345:1398   */\n    tag_163:\n        /* \"#utility.yul\":1450:1452   */\n      dup3\n        /* \"#utility.yul\":1445:1447   */\n      0x20\n        /* \"#utility.yul\":1441:1443   */\n      dup7\n        /* \"#utility.yul\":1437:1448   */\n      add\n        /* \"#utility.yul\":1432:1434   */\n      0x20\n        /* \"#utility.yul\":1424:1430   */\n      dup4\n        /* \"#utility.yul\":1420:1435   */\n      add\n        /* \"#utility.yul\":1407:1453   */\n      calldatacopy\n        /* \"#utility.yul\":1495:1496   */\n      0x00\n        /* \"#utility.yul\":1473:1488   */\n      swap3\n      dup2\n      add\n        /* \"#utility.yul\":1490:1492   */\n      0x20\n        /* \"#utility.yul\":1469:1493   */\n      add\n        /* \"#utility.yul\":1462:1497   */\n      swap3\n      swap1\n      swap3\n      mstore\n      pop\n        /* \"#utility.yul\":1477:1483   */\n      swap6\n        /* \"#utility.yul\":606:1528   */\n      swap5\n      pop\n      pop\n      pop\n      pop\n      pop\n      jump\t// out\n        /* \"#utility.yul\":1933:2223   */\n    tag_61:\n        /* \"#utility.yul\":2003:2009   */\n      0x00\n        /* \"#utility.yul\":2056:2058   */\n      0x20\n        /* \"#utility.yul\":2044:2053   */\n      dup3\n        /* \"#utility.yul\":2035:2042   */\n      dup5\n        /* \"#utility.yul\":2031:2054   */\n      sub\n        /* \"#utility.yul\":2027:2059   */\n      slt\n        /* \"#utility.yul\":2024:2076   */\n      iszero\n      tag_167\n      jumpi\n        /* \"#utility.yul\":2072:2073   */\n      0x00\n        /* \"#utility.yul\":2069:2070   */\n      dup1\n        /* \"#utility.yul\":2062:2074   */\n      revert\n        /* \"#utility.yul\":2024:2076   */\n    tag_167:\n        /* \"#utility.yul\":2098:2114   */\n      dup2\n      mload\n      sub(shl(0xa0, 0x01), 0x01)\n        /* \"#utility.yul\":2143:2174   */\n      dup2\n      and\n        /* \"#utility.yul\":2133:2175   */\n      dup2\n      eq\n        /* \"#utility.yul\":2123:2193   */\n      tag_152\n      jumpi\n        /* \"#utility.yul\":2189:2190   */\n      0x00\n        /* \"#utility.yul\":2186:2187   */\n      dup1\n        /* \"#utility.yul\":2179:2191   */\n      revert\n        /* \"#utility.yul\":2228:2560   */\n    tag_64:\n        /* \"#utility.yul\":2430:2432   */\n      0x20\n        /* \"#utility.yul\":2412:2433   */\n      dup1\n      dup3\n      mstore\n        /* \"#utility.yul\":2469:2470   */\n      0x09\n        /* \"#utility.yul\":2449:2467   */\n      swap1\n      dup3\n      add\n        /* \"#utility.yul\":2442:2471   */\n      mstore\n      shl(0xb9, 0x2737ba1037bbb732b9)\n        /* \"#utility.yul\":2502:2504   */\n      0x40\n        /* \"#utility.yul\":2487:2505   */\n      dup3\n      add\n        /* \"#utility.yul\":2480:2519   */\n      mstore\n        /* \"#utility.yul\":2551:2553   */\n      0x60\n        /* \"#utility.yul\":2536:2554   */\n      add\n      swap1\n        /* \"#utility.yul\":2228:2560   */\n      jump\t// out\n        /* \"#utility.yul\":4543:5015   */\n    tag_148:\n        /* \"#utility.yul\":4585:4588   */\n      0x00\n        /* \"#utility.yul\":4623:4628   */\n      dup2\n        /* \"#utility.yul\":4617:4629   */\n      mload\n        /* \"#utility.yul\":4650:4656   */\n      dup1\n        /* \"#utility.yul\":4645:4648   */\n      dup5\n        /* \"#utility.yul\":4638:4657   */\n      mstore\n        /* \"#utility.yul\":4675:4676   */\n      0x00\n        /* \"#utility.yul\":4685:4847   */\n    tag_177:\n        /* \"#utility.yul\":4699:4705   */\n      dup2\n        /* \"#utility.yul\":4696:4697   */\n      dup2\n        /* \"#utility.yul\":4693:4706   */\n      lt\n        /* \"#utility.yul\":4685:4847   */\n      iszero\n      tag_179\n      jumpi\n        /* \"#utility.yul\":4761:4765   */\n      0x20\n        /* \"#utility.yul\":4817:4830   */\n      dup2\n      dup6\n      add\n        /* \"#utility.yul\":4813:4835   */\n      dup2\n      add\n        /* \"#utility.yul\":4807:4836   */\n      mload\n        /* \"#utility.yul\":4789:4800   */\n      dup7\n      dup4\n      add\n        /* \"#utility.yul\":4785:4805   */\n      dup3\n      add\n        /* \"#utility.yul\":4778:4837   */\n      mstore\n        /* \"#utility.yul\":4714:4726   */\n      add\n        /* \"#utility.yul\":4685:4847   */\n      jump(tag_177)\n    tag_179:\n        /* \"#utility.yul\":4865:4871   */\n      dup2\n        /* \"#utility.yul\":4862:4863   */\n      dup2\n        /* \"#utility.yul\":4859:4872   */\n      gt\n        /* \"#utility.yul\":4856:4943   */\n      iszero\n      tag_180\n      jumpi\n        /* \"#utility.yul\":4931:4932   */\n      0x00\n        /* \"#utility.yul\":4924:4928   */\n      0x20\n        /* \"#utility.yul\":4915:4921   */\n      dup4\n        /* \"#utility.yul\":4910:4913   */\n      dup8\n        /* \"#utility.yul\":4906:4922   */\n      add\n        /* \"#utility.yul\":4902:4929   */\n      add\n        /* \"#utility.yul\":4895:4933   */\n      mstore\n        /* \"#utility.yul\":4856:4943   */\n    tag_180:\n      pop\n        /* \"#utility.yul\":4997:4999   */\n      0x1f\n        /* \"#utility.yul\":4976:4991   */\n      add\n      not(0x1f)\n        /* \"#utility.yul\":4972:5001   */\n      and\n        /* \"#utility.yul\":4963:5002   */\n      swap3\n      swap1\n      swap3\n      add\n        /* \"#utility.yul\":5004:5008   */\n      0x20\n        /* \"#utility.yul\":4959:5009   */\n      add\n      swap3\n        /* \"#utility.yul\":4543:5015   */\n      swap2\n      pop\n      pop\n      jump\t// out\n        /* \"#utility.yul\":5020:5403   */\n    tag_143:\n        /* \"#utility.yul\":5217:5219   */\n      0x40\n        /* \"#utility.yul\":5206:5215   */\n      dup2\n        /* \"#utility.yul\":5199:5220   */\n      mstore\n        /* \"#utility.yul\":5180:5184   */\n      0x00\n        /* \"#utility.yul\":5243:5288   */\n      tag_182\n        /* \"#utility.yul\":5284:5286   */\n      0x40\n        /* \"#utility.yul\":5273:5282   */\n      dup4\n        /* \"#utility.yul\":5269:5287   */\n      add\n        /* \"#utility.yul\":5261:5267   */\n      dup6\n        /* \"#utility.yul\":5243:5288   */\n      tag_148\n      jump\t// in\n    tag_182:\n        /* \"#utility.yul\":5336:5345   */\n      dup3\n        /* \"#utility.yul\":5328:5334   */\n      dup2\n        /* \"#utility.yul\":5324:5346   */\n      sub\n        /* \"#utility.yul\":5319:5321   */\n      0x20\n        /* \"#utility.yul\":5308:5317   */\n      dup5\n        /* \"#utility.yul\":5304:5322   */\n      add\n        /* \"#utility.yul\":5297:5347   */\n      mstore\n        /* \"#utility.yul\":5364:5397   */\n      tag_183\n        /* \"#utility.yul\":5390:5396   */\n      dup2\n        /* \"#utility.yul\":5382:5388   */\n      dup6\n        /* \"#utility.yul\":5364:5397   */\n      tag_148\n      jump\t// in\n    tag_183:\n        /* \"#utility.yul\":5356:5397   */\n      swap6\n        /* \"#utility.yul\":5020:5403   */\n      swap5\n      pop\n      pop\n      pop\n      pop\n      pop\n      jump\t// out\n\n    auxdata: 0xa2646970667358221220e74308ee6cee535bc688ffb9c05787fb3bbd50d6b1f50d62daebb5b27f2eaf0264736f6c63430008090033\n}\n",
    "bytecode": {
      "linkReferences": {},
      "object": "6080604052620186a2805460ff191660011790553480156200002057600080fd5b5060405162000d7c38038062000d7c833981016040819052620000439162000236565b816040518060400160405280600a8152602001695f5f78616c7a7a795f5f60b01b8152506040518060400160405280600381526020016230786160e81b81525060405180608001604052806109c461ffff16815260200185815260200160405180602001604052806000815250815260200160001515815250620000cd846200018f60201b60201c565b6000846001600160a01b031633858585604051602401620000f294939291906200033f565b60408051601f198184030181529181526020820180516001600160e01b031663b1a78e3f60e01b17905251620001299190620003de565b600060405180830381855af49150503d806000811462000166576040519150601f19603f3d011682016040523d82523d6000602084013e6200016b565b606091505b50509050806200017a57600080fd5b50506001620186a05550620003fc9350505050565b80620001c97f360894a13ba1a3210667c828492db98dca3e2076cc3735a920a3ca505d382bbc60001b620001ea60201b6200056b1760201c565b80546001600160a01b0319166001600160a01b039290921691909117905550565b90565b634e487b7160e01b600052604160045260246000fd5b60005b838110156200022057818101518382015260200162000206565b8381111562000230576000848401525b50505050565b600080604083850312156200024a57600080fd5b82516001600160a01b03811681146200026257600080fd5b60208401519092506001600160401b03808211156200028057600080fd5b818501915085601f8301126200029557600080fd5b815181811115620002aa57620002aa620001ed565b604051601f8201601f19908116603f01168101908382118183101715620002d557620002d5620001ed565b81604052828152886020848701011115620002ef57600080fd5b6200030283602083016020880162000203565b80955050505050509250929050565b600081518084526200032b81602086016020860162000203565b601f01601f19169290920160200192915050565b6001600160a01b0385168152608060208201819052600090620003659083018662000311565b828103604084015262000379818662000311565b9050828103606084015261ffff8451168152602084015160806020830152620003a6608083018262000311565b905060408501518282036040840152620003c1828262000311565b915050606085015115156060830152809250505095945050505050565b60008251620003f281846020870162000203565b9190910192915050565b610970806200040c6000396000f3fe6080604052600436106100745760003560e01c80633ccfd60b1161004e5780633ccfd60b146100f257806355f804b3146101075780635c60da1b14610127578063eb8d24441461016e5761007e565b806302c88989146100955780631249c58b146100b557806318160ddd146100ca5761007e565b3661007e57600080fd5b34801561008a57600080fd5b5061009361019a565b005b3480156100a157600080fd5b506100936100b0366004610783565b6101f8565b3480156100c157600080fd5b506100936102b7565b3480156100d657600080fd5b506100df610424565b6040519081526020015b60405180910390f35b3480156100fe57600080fd5b50610093610436565b34801561011357600080fd5b506100936101223660046107c2565b6104ae565b34801561013357600080fd5b507f360894a13ba1a3210667c828492db98dca3e2076cc3735a920a3ca505d382bbc546040516001600160a01b0390911681526020016100e9565b34801561017a57600080fd5b50620186a25461018a9060ff1681565b60405190151581526020016100e9565b60006101cd7f360894a13ba1a3210667c828492db98dca3e2076cc3735a920a3ca505d382bbc546001600160a01b031690565b90503660008037600080366000845af43d6000803e8080156101ee573d6000f35b3d6000fd5b505050565b306001600160a01b03166313effa0f6040518163ffffffff1660e01b815260040160206040518083038186803b15801561023157600080fd5b505afa158015610245573d6000803e3d6000fd5b505050506040513d601f19601f820116820180604052508101906102699190610873565b6001600160a01b0316336001600160a01b0316146102a25760405162461bcd60e51b81526004016102999061089c565b60405180910390fd5b620186a2805460ff1916911515919091179055565b6002620186a054141561030c5760405162461bcd60e51b815260206004820152601f60248201527f5265656e7472616e637947756172643a207265656e7472616e742063616c6c006044820152606401610299565b6002620186a055306001600160a01b03166313effa0f6040518163ffffffff1660e01b815260040160206040518083038186803b15801561034c57600080fd5b505afa158015610360573d6000803e3d6000fd5b505050506040513d601f19601f820116820180604052508101906103849190610873565b6001600160a01b0316336001600160a01b0316146103b45760405162461bcd60e51b81526004016102999061089c565b620186a25460ff166103fa5760405162461bcd60e51b815260206004820152600f60248201526e53616c65206e6f742061637469766560881b6044820152606401610299565b61040b33610406610424565b61056e565b61041b620186a180546001019055565b6001620186a055565b6000610431620186a15490565b905090565b6002620186a054141561048b5760405162461bcd60e51b815260206004820152601f60248201527f5265656e7472616e637947756172643a207265656e7472616e742063616c6c006044820152606401610299565b6002620186a055476104a461049e6105d3565b82610646565b506001620186a055565b306001600160a01b03166313effa0f6040518163ffffffff1660e01b815260040160206040518083038186803b1580156104e757600080fd5b505afa1580156104fb573d6000803e3d6000fd5b505050506040513d601f19601f8201168201806040525081019061051f9190610873565b6001600160a01b0316336001600160a01b03161461054f5760405162461bcd60e51b81526004016102999061089c565b610568816040518060200160405280600081525061075f565b50565b90565b604051633dc8ded760e01b81526001600160a01b0383166004820152602481018290523090633dc8ded7906044015b600060405180830381600087803b1580156105b757600080fd5b505af11580156105cb573d6000803e3d6000fd5b505050505050565b6000306001600160a01b03166313effa0f6040518163ffffffff1660e01b815260040160206040518083038186803b15801561060e57600080fd5b505afa158015610622573d6000803e3d6000fd5b505050506040513d601f19601f820116820180604052508101906104319190610873565b804710156106965760405162461bcd60e51b815260206004820152601d60248201527f416464726573733a20696e73756666696369656e742062616c616e63650000006044820152606401610299565b6000826001600160a01b03168260405160006040518083038185875af1925050503d80600081146106e3576040519150601f19603f3d011682016040523d82523d6000602084013e6106e8565b606091505b50509050806101f35760405162461bcd60e51b815260206004820152603a60248201527f416464726573733a20756e61626c6520746f2073656e642076616c75652c207260448201527f6563697069656e74206d617920686176652072657665727465640000000000006064820152608401610299565b6040516293c58160e11b815230906301278b029061059d908590859060040161090c565b60006020828403121561079557600080fd5b813580151581146107a557600080fd5b9392505050565b634e487b7160e01b600052604160045260246000fd5b6000602082840312156107d457600080fd5b813567ffffffffffffffff808211156107ec57600080fd5b818401915084601f83011261080057600080fd5b813581811115610812576108126107ac565b604051601f8201601f19908116603f0116810190838211818310171561083a5761083a6107ac565b8160405282815287602084870101111561085357600080fd5b826020860160208301376000928101602001929092525095945050505050565b60006020828403121561088557600080fd5b81516001600160a01b03811681146107a557600080fd5b6020808252600990820152682737ba1037bbb732b960b91b604082015260600190565b6000815180845260005b818110156108e5576020818501810151868301820152016108c9565b818111156108f7576000602083870101525b50601f01601f19169290920160200192915050565b60408152600061091f60408301856108bf565b828103602084015261093181856108bf565b9594505050505056fea2646970667358221220e74308ee6cee535bc688ffb9c05787fb3bbd50d6b1f50d62daebb5b27f2eaf0264736f6c63430008090033",
      "opcodes": "PUSH1 0x80 PUSH1 0x40 MSTORE PUSH3 0x186A2 DUP1 SLOAD PUSH1 0xFF NOT AND PUSH1 0x1 OR SWAP1 SSTORE CALLVALUE DUP1 ISZERO PUSH3 0x20 JUMPI PUSH1 0x0 DUP1 REVERT JUMPDEST POP PUSH1 0x40 MLOAD PUSH3 0xD7C CODESIZE SUB DUP1 PUSH3 0xD7C DUP4 CODECOPY DUP2 ADD PUSH1 0x40 DUP2 SWAP1 MSTORE PUSH3 0x43 SWAP2 PUSH3 0x236 JUMP JUMPDEST DUP2 PUSH1 0x40 MLOAD DUP1 PUSH1 0x40 ADD PUSH1 0x40 MSTORE DUP1 PUSH1 0xA DUP2 MSTORE PUSH1 0x20 ADD PUSH10 0x5F5F78616C7A7A795F5F PUSH1 0xB0 SHL DUP2 MSTORE POP PUSH1 0x40 MLOAD DUP1 PUSH1 0x40 ADD PUSH1 0x40 MSTORE DUP1 PUSH1 0x3 DUP2 MSTORE PUSH1 0x20 ADD PUSH3 0x307861 PUSH1 0xE8 SHL DUP2 MSTORE POP PUSH1 0x40 MLOAD DUP1 PUSH1 0x80 ADD PUSH1 0x40 MSTORE DUP1 PUSH2 0x9C4 PUSH2 0xFFFF AND DUP2 MSTORE PUSH1 0x20 ADD DUP6 DUP2 MSTORE PUSH1 0x20 ADD PUSH1 0x40 MLOAD DUP1 PUSH1 0x20 ADD PUSH1 0x40 MSTORE DUP1 PUSH1 0x0 DUP2 MSTORE POP DUP2 MSTORE PUSH1 0x20 ADD PUSH1 0x0 ISZERO ISZERO DUP2 MSTORE POP PUSH3 0xCD DUP5 PUSH3 0x18F PUSH1 0x20 SHL PUSH1 0x20 SHR JUMP JUMPDEST PUSH1 0x0 DUP5 PUSH1 0x1 PUSH1 0x1 PUSH1 0xA0 SHL SUB AND CALLER DUP6 DUP6 DUP6 PUSH1 0x40 MLOAD PUSH1 0x24 ADD PUSH3 0xF2 SWAP5 SWAP4 SWAP3 SWAP2 SWAP1 PUSH3 0x33F JUMP JUMPDEST PUSH1 0x40 DUP1 MLOAD PUSH1 0x1F NOT DUP2 DUP5 SUB ADD DUP2 MSTORE SWAP2 DUP2 MSTORE PUSH1 0x20 DUP3 ADD DUP1 MLOAD PUSH1 0x1 PUSH1 0x1 PUSH1 0xE0 SHL SUB AND PUSH4 0xB1A78E3F PUSH1 0xE0 SHL OR SWAP1 MSTORE MLOAD PUSH3 0x129 SWAP2 SWAP1 PUSH3 0x3DE JUMP JUMPDEST PUSH1 0x0 PUSH1 0x40 MLOAD DUP1 DUP4 SUB DUP2 DUP6 GAS DELEGATECALL SWAP2 POP POP RETURNDATASIZE DUP1 PUSH1 0x0 DUP2 EQ PUSH3 0x166 JUMPI PUSH1 0x40 MLOAD SWAP2 POP PUSH1 0x1F NOT PUSH1 0x3F RETURNDATASIZE ADD AND DUP3 ADD PUSH1 0x40 MSTORE RETURNDATASIZE DUP3 MSTORE RETURNDATASIZE PUSH1 0x0 PUSH1 0x20 DUP5 ADD RETURNDATACOPY PUSH3 0x16B JUMP JUMPDEST PUSH1 0x60 SWAP2 POP JUMPDEST POP POP SWAP1 POP DUP1 PUSH3 0x17A JUMPI PUSH1 0x0 DUP1 REVERT JUMPDEST POP POP PUSH1 0x1 PUSH3 0x186A0 SSTORE POP PUSH3 0x3FC SWAP4 POP POP POP POP JUMP JUMPDEST DUP1 PUSH3 0x1C9 PUSH32 0x360894A13BA1A3210667C828492DB98DCA3E2076CC3735A920A3CA505D382BBC PUSH1 0x0 SHL PUSH3 0x1EA PUSH1 0x20 SHL PUSH3 0x56B OR PUSH1 0x20 SHR JUMP JUMPDEST DUP1 SLOAD PUSH1 0x1 PUSH1 0x1 PUSH1 0xA0 SHL SUB NOT AND PUSH1 0x1 PUSH1 0x1 PUSH1 0xA0 SHL SUB SWAP3 SWAP1 SWAP3 AND SWAP2 SWAP1 SWAP2 OR SWAP1 SSTORE POP JUMP JUMPDEST SWAP1 JUMP JUMPDEST PUSH4 0x4E487B71 PUSH1 0xE0 SHL PUSH1 0x0 MSTORE PUSH1 0x41 PUSH1 0x4 MSTORE PUSH1 0x24 PUSH1 0x0 REVERT JUMPDEST PUSH1 0x0 JUMPDEST DUP4 DUP2 LT ISZERO PUSH3 0x220 JUMPI DUP2 DUP2 ADD MLOAD DUP4 DUP3 ADD MSTORE PUSH1 0x20 ADD PUSH3 0x206 JUMP JUMPDEST DUP4 DUP2 GT ISZERO PUSH3 0x230 JUMPI PUSH1 0x0 DUP5 DUP5 ADD MSTORE JUMPDEST POP POP POP POP JUMP JUMPDEST PUSH1 0x0 DUP1 PUSH1 0x40 DUP4 DUP6 SUB SLT ISZERO PUSH3 0x24A JUMPI PUSH1 0x0 DUP1 REVERT JUMPDEST DUP3 MLOAD PUSH1 0x1 PUSH1 0x1 PUSH1 0xA0 SHL SUB DUP2 AND DUP2 EQ PUSH3 0x262 JUMPI PUSH1 0x0 DUP1 REVERT JUMPDEST PUSH1 0x20 DUP5 ADD MLOAD SWAP1 SWAP3 POP PUSH1 0x1 PUSH1 0x1 PUSH1 0x40 SHL SUB DUP1 DUP3 GT ISZERO PUSH3 0x280 JUMPI PUSH1 0x0 DUP1 REVERT JUMPDEST DUP2 DUP6 ADD SWAP2 POP DUP6 PUSH1 0x1F DUP4 ADD SLT PUSH3 0x295 JUMPI PUSH1 0x0 DUP1 REVERT JUMPDEST DUP2 MLOAD DUP2 DUP2 GT ISZERO PUSH3 0x2AA JUMPI PUSH3 0x2AA PUSH3 0x1ED JUMP JUMPDEST PUSH1 0x40 MLOAD PUSH1 0x1F DUP3 ADD PUSH1 0x1F NOT SWAP1 DUP2 AND PUSH1 0x3F ADD AND DUP2 ADD SWAP1 DUP4 DUP3 GT DUP2 DUP4 LT OR ISZERO PUSH3 0x2D5 JUMPI PUSH3 0x2D5 PUSH3 0x1ED JUMP JUMPDEST DUP2 PUSH1 0x40 MSTORE DUP3 DUP2 MSTORE DUP9 PUSH1 0x20 DUP5 DUP8 ADD ADD GT ISZERO PUSH3 0x2EF JUMPI PUSH1 0x0 DUP1 REVERT JUMPDEST PUSH3 0x302 DUP4 PUSH1 0x20 DUP4 ADD PUSH1 0x20 DUP9 ADD PUSH3 0x203 JUMP JUMPDEST DUP1 SWAP6 POP POP POP POP POP POP SWAP3 POP SWAP3 SWAP1 POP JUMP JUMPDEST PUSH1 0x0 DUP2 MLOAD DUP1 DUP5 MSTORE PUSH3 0x32B DUP2 PUSH1 0x20 DUP7 ADD PUSH1 0x20 DUP7 ADD PUSH3 0x203 JUMP JUMPDEST PUSH1 0x1F ADD PUSH1 0x1F NOT AND SWAP3 SWAP1 SWAP3 ADD PUSH1 0x20 ADD SWAP3 SWAP2 POP POP JUMP JUMPDEST PUSH1 0x1 PUSH1 0x1 PUSH1 0xA0 SHL SUB DUP6 AND DUP2 MSTORE PUSH1 0x80 PUSH1 0x20 DUP3 ADD DUP2 SWAP1 MSTORE PUSH1 0x0 SWAP1 PUSH3 0x365 SWAP1 DUP4 ADD DUP7 PUSH3 0x311 JUMP JUMPDEST DUP3 DUP2 SUB PUSH1 0x40 DUP5 ADD MSTORE PUSH3 0x379 DUP2 DUP7 PUSH3 0x311 JUMP JUMPDEST SWAP1 POP DUP3 DUP2 SUB PUSH1 0x60 DUP5 ADD MSTORE PUSH2 0xFFFF DUP5 MLOAD AND DUP2 MSTORE PUSH1 0x20 DUP5 ADD MLOAD PUSH1 0x80 PUSH1 0x20 DUP4 ADD MSTORE PUSH3 0x3A6 PUSH1 0x80 DUP4 ADD DUP3 PUSH3 0x311 JUMP JUMPDEST SWAP1 POP PUSH1 0x40 DUP6 ADD MLOAD DUP3 DUP3 SUB PUSH1 0x40 DUP5 ADD MSTORE PUSH3 0x3C1 DUP3 DUP3 PUSH3 0x311 JUMP JUMPDEST SWAP2 POP POP PUSH1 0x60 DUP6 ADD MLOAD ISZERO ISZERO PUSH1 0x60 DUP4 ADD MSTORE DUP1 SWAP3 POP POP POP SWAP6 SWAP5 POP POP POP POP POP JUMP JUMPDEST PUSH1 0x0 DUP3 MLOAD PUSH3 0x3F2 DUP2 DUP5 PUSH1 0x20 DUP8 ADD PUSH3 0x203 JUMP JUMPDEST SWAP2 SWAP1 SWAP2 ADD SWAP3 SWAP2 POP POP JUMP JUMPDEST PUSH2 0x970 DUP1 PUSH3 0x40C PUSH1 0x0 CODECOPY PUSH1 0x0 RETURN INVALID PUSH1 0x80 PUSH1 0x40 MSTORE PUSH1 0x4 CALLDATASIZE LT PUSH2 0x74 JUMPI PUSH1 0x0 CALLDATALOAD PUSH1 0xE0 SHR DUP1 PUSH4 0x3CCFD60B GT PUSH2 0x4E JUMPI DUP1 PUSH4 0x3CCFD60B EQ PUSH2 0xF2 JUMPI DUP1 PUSH4 0x55F804B3 EQ PUSH2 0x107 JUMPI DUP1 PUSH4 0x5C60DA1B EQ PUSH2 0x127 JUMPI DUP1 PUSH4 0xEB8D2444 EQ PUSH2 0x16E JUMPI PUSH2 0x7E JUMP JUMPDEST DUP1 PUSH4 0x2C88989 EQ PUSH2 0x95 JUMPI DUP1 PUSH4 0x1249C58B EQ PUSH2 0xB5 JUMPI DUP1 PUSH4 0x18160DDD EQ PUSH2 0xCA JUMPI PUSH2 0x7E JUMP JUMPDEST CALLDATASIZE PUSH2 0x7E JUMPI PUSH1 0x0 DUP1 REVERT JUMPDEST CALLVALUE DUP1 ISZERO PUSH2 0x8A JUMPI PUSH1 0x0 DUP1 REVERT JUMPDEST POP PUSH2 0x93 PUSH2 0x19A JUMP JUMPDEST STOP JUMPDEST CALLVALUE DUP1 ISZERO PUSH2 0xA1 JUMPI PUSH1 0x0 DUP1 REVERT JUMPDEST POP PUSH2 0x93 PUSH2 0xB0 CALLDATASIZE PUSH1 0x4 PUSH2 0x783 JUMP JUMPDEST PUSH2 0x1F8 JUMP JUMPDEST CALLVALUE DUP1 ISZERO PUSH2 0xC1 JUMPI PUSH1 0x0 DUP1 REVERT JUMPDEST POP PUSH2 0x93 PUSH2 0x2B7 JUMP JUMPDEST CALLVALUE DUP1 ISZERO PUSH2 0xD6 JUMPI PUSH1 0x0 DUP1 REVERT JUMPDEST POP PUSH2 0xDF PUSH2 0x424 JUMP JUMPDEST PUSH1 0x40 MLOAD SWAP1 DUP2 MSTORE PUSH1 0x20 ADD JUMPDEST PUSH1 0x40 MLOAD DUP1 SWAP2 SUB SWAP1 RETURN JUMPDEST CALLVALUE DUP1 ISZERO PUSH2 0xFE JUMPI PUSH1 0x0 DUP1 REVERT JUMPDEST POP PUSH2 0x93 PUSH2 0x436 JUMP JUMPDEST CALLVALUE DUP1 ISZERO PUSH2 0x113 JUMPI PUSH1 0x0 DUP1 REVERT JUMPDEST POP PUSH2 0x93 PUSH2 0x122 CALLDATASIZE PUSH1 0x4 PUSH2 0x7C2 JUMP JUMPDEST PUSH2 0x4AE JUMP JUMPDEST CALLVALUE DUP1 ISZERO PUSH2 0x133 JUMPI PUSH1 0x0 DUP1 REVERT JUMPDEST POP PUSH32 0x360894A13BA1A3210667C828492DB98DCA3E2076CC3735A920A3CA505D382BBC SLOAD PUSH1 0x40 MLOAD PUSH1 0x1 PUSH1 0x1 PUSH1 0xA0 SHL SUB SWAP1 SWAP2 AND DUP2 MSTORE PUSH1 0x20 ADD PUSH2 0xE9 JUMP JUMPDEST CALLVALUE DUP1 ISZERO PUSH2 0x17A JUMPI PUSH1 0x0 DUP1 REVERT JUMPDEST POP PUSH3 0x186A2 SLOAD PUSH2 0x18A SWAP1 PUSH1 0xFF AND DUP2 JUMP JUMPDEST PUSH1 0x40 MLOAD SWAP1 ISZERO ISZERO DUP2 MSTORE PUSH1 0x20 ADD PUSH2 0xE9 JUMP JUMPDEST PUSH1 0x0 PUSH2 0x1CD PUSH32 0x360894A13BA1A3210667C828492DB98DCA3E2076CC3735A920A3CA505D382BBC SLOAD PUSH1 0x1 PUSH1 0x1 PUSH1 0xA0 SHL SUB AND SWAP1 JUMP JUMPDEST SWAP1 POP CALLDATASIZE PUSH1 0x0 DUP1 CALLDATACOPY PUSH1 0x0 DUP1 CALLDATASIZE PUSH1 0x0 DUP5 GAS DELEGATECALL RETURNDATASIZE PUSH1 0x0 DUP1 RETURNDATACOPY DUP1 DUP1 ISZERO PUSH2 0x1EE JUMPI RETURNDATASIZE PUSH1 0x0 RETURN JUMPDEST RETURNDATASIZE PUSH1 0x0 REVERT JUMPDEST POP POP POP JUMP JUMPDEST ADDRESS PUSH1 0x1 PUSH1 0x1 PUSH1 0xA0 SHL SUB AND PUSH4 0x13EFFA0F PUSH1 0x40 MLOAD DUP2 PUSH4 0xFFFFFFFF AND PUSH1 0xE0 SHL DUP2 MSTORE PUSH1 0x4 ADD PUSH1 0x20 PUSH1 0x40 MLOAD DUP1 DUP4 SUB DUP2 DUP7 DUP1 EXTCODESIZE ISZERO DUP1 ISZERO PUSH2 0x231 JUMPI PUSH1 0x0 DUP1 REVERT JUMPDEST POP GAS STATICCALL ISZERO DUP1 ISZERO PUSH2 0x245 JUMPI RETURNDATASIZE PUSH1 0x0 DUP1 RETURNDATACOPY RETURNDATASIZE PUSH1 0x0 REVERT JUMPDEST POP POP POP POP PUSH1 0x40 MLOAD RETURNDATASIZE PUSH1 0x1F NOT PUSH1 0x1F DUP3 ADD AND DUP3 ADD DUP1 PUSH1 0x40 MSTORE POP DUP2 ADD SWAP1 PUSH2 0x269 SWAP2 SWAP1 PUSH2 0x873 JUMP JUMPDEST PUSH1 0x1 PUSH1 0x1 PUSH1 0xA0 SHL SUB AND CALLER PUSH1 0x1 PUSH1 0x1 PUSH1 0xA0 SHL SUB AND EQ PUSH2 0x2A2 JUMPI PUSH1 0x40 MLOAD PUSH3 0x461BCD PUSH1 0xE5 SHL DUP2 MSTORE PUSH1 0x4 ADD PUSH2 0x299 SWAP1 PUSH2 0x89C JUMP JUMPDEST PUSH1 0x40 MLOAD DUP1 SWAP2 SUB SWAP1 REVERT JUMPDEST PUSH3 0x186A2 DUP1 SLOAD PUSH1 0xFF NOT AND SWAP2 ISZERO ISZERO SWAP2 SWAP1 SWAP2 OR SWAP1 SSTORE JUMP JUMPDEST PUSH1 0x2 PUSH3 0x186A0 SLOAD EQ ISZERO PUSH2 0x30C JUMPI PUSH1 0x40 MLOAD PUSH3 0x461BCD PUSH1 0xE5 SHL DUP2 MSTORE PUSH1 0x20 PUSH1 0x4 DUP3 ADD MSTORE PUSH1 0x1F PUSH1 0x24 DUP3 ADD MSTORE PUSH32 0x5265656E7472616E637947756172643A207265656E7472616E742063616C6C00 PUSH1 0x44 DUP3 ADD MSTORE PUSH1 0x64 ADD PUSH2 0x299 JUMP JUMPDEST PUSH1 0x2 PUSH3 0x186A0 SSTORE ADDRESS PUSH1 0x1 PUSH1 0x1 PUSH1 0xA0 SHL SUB AND PUSH4 0x13EFFA0F PUSH1 0x40 MLOAD DUP2 PUSH4 0xFFFFFFFF AND PUSH1 0xE0 SHL DUP2 MSTORE PUSH1 0x4 ADD PUSH1 0x20 PUSH1 0x40 MLOAD DUP1 DUP4 SUB DUP2 DUP7 DUP1 EXTCODESIZE ISZERO DUP1 ISZERO PUSH2 0x34C JUMPI PUSH1 0x0 DUP1 REVERT JUMPDEST POP GAS STATICCALL ISZERO DUP1 ISZERO PUSH2 0x360 JUMPI RETURNDATASIZE PUSH1 0x0 DUP1 RETURNDATACOPY RETURNDATASIZE PUSH1 0x0 REVERT JUMPDEST POP POP POP POP PUSH1 0x40 MLOAD RETURNDATASIZE PUSH1 0x1F NOT PUSH1 0x1F DUP3 ADD AND DUP3 ADD DUP1 PUSH1 0x40 MSTORE POP DUP2 ADD SWAP1 PUSH2 0x384 SWAP2 SWAP1 PUSH2 0x873 JUMP JUMPDEST PUSH1 0x1 PUSH1 0x1 PUSH1 0xA0 SHL SUB AND CALLER PUSH1 0x1 PUSH1 0x1 PUSH1 0xA0 SHL SUB AND EQ PUSH2 0x3B4 JUMPI PUSH1 0x40 MLOAD PUSH3 0x461BCD PUSH1 0xE5 SHL DUP2 MSTORE PUSH1 0x4 ADD PUSH2 0x299 SWAP1 PUSH2 0x89C JUMP JUMPDEST PUSH3 0x186A2 SLOAD PUSH1 0xFF AND PUSH2 0x3FA JUMPI PUSH1 0x40 MLOAD PUSH3 0x461BCD PUSH1 0xE5 SHL DUP2 MSTORE PUSH1 0x20 PUSH1 0x4 DUP3 ADD MSTORE PUSH1 0xF PUSH1 0x24 DUP3 ADD MSTORE PUSH15 0x53616C65206E6F7420616374697665 PUSH1 0x88 SHL PUSH1 0x44 DUP3 ADD MSTORE PUSH1 0x64 ADD PUSH2 0x299 JUMP JUMPDEST PUSH2 0x40B CALLER PUSH2 0x406 PUSH2 0x424 JUMP JUMPDEST PUSH2 0x56E JUMP JUMPDEST PUSH2 0x41B PUSH3 0x186A1 DUP1 SLOAD PUSH1 0x1 ADD SWAP1 SSTORE JUMP JUMPDEST PUSH1 0x1 PUSH3 0x186A0 SSTORE JUMP JUMPDEST PUSH1 0x0 PUSH2 0x431 PUSH3 0x186A1 SLOAD SWAP1 JUMP JUMPDEST SWAP1 POP SWAP1 JUMP JUMPDEST PUSH1 0x2 PUSH3 0x186A0 SLOAD EQ ISZERO PUSH2 0x48B JUMPI PUSH1 0x40 MLOAD PUSH3 0x461BCD PUSH1 0xE5 SHL DUP2 MSTORE PUSH1 0x20 PUSH1 0x4 DUP3 ADD MSTORE PUSH1 0x1F PUSH1 0x24 DUP3 ADD MSTORE PUSH32 0x5265656E7472616E637947756172643A207265656E7472616E742063616C6C00 PUSH1 0x44 DUP3 ADD MSTORE PUSH1 0x64 ADD PUSH2 0x299 JUMP JUMPDEST PUSH1 0x2 PUSH3 0x186A0 SSTORE SELFBALANCE PUSH2 0x4A4 PUSH2 0x49E PUSH2 0x5D3 JUMP JUMPDEST DUP3 PUSH2 0x646 JUMP JUMPDEST POP PUSH1 0x1 PUSH3 0x186A0 SSTORE JUMP JUMPDEST ADDRESS PUSH1 0x1 PUSH1 0x1 PUSH1 0xA0 SHL SUB AND PUSH4 0x13EFFA0F PUSH1 0x40 MLOAD DUP2 PUSH4 0xFFFFFFFF AND PUSH1 0xE0 SHL DUP2 MSTORE PUSH1 0x4 ADD PUSH1 0x20 PUSH1 0x40 MLOAD DUP1 DUP4 SUB DUP2 DUP7 DUP1 EXTCODESIZE ISZERO DUP1 ISZERO PUSH2 0x4E7 JUMPI PUSH1 0x0 DUP1 REVERT JUMPDEST POP GAS STATICCALL ISZERO DUP1 ISZERO PUSH2 0x4FB JUMPI RETURNDATASIZE PUSH1 0x0 DUP1 RETURNDATACOPY RETURNDATASIZE PUSH1 0x0 REVERT JUMPDEST POP POP POP POP PUSH1 0x40 MLOAD RETURNDATASIZE PUSH1 0x1F NOT PUSH1 0x1F DUP3 ADD AND DUP3 ADD DUP1 PUSH1 0x40 MSTORE POP DUP2 ADD SWAP1 PUSH2 0x51F SWAP2 SWAP1 PUSH2 0x873 JUMP JUMPDEST PUSH1 0x1 PUSH1 0x1 PUSH1 0xA0 SHL SUB AND CALLER PUSH1 0x1 PUSH1 0x1 PUSH1 0xA0 SHL SUB AND EQ PUSH2 0x54F JUMPI PUSH1 0x40 MLOAD PUSH3 0x461BCD PUSH1 0xE5 SHL DUP2 MSTORE PUSH1 0x4 ADD PUSH2 0x299 SWAP1 PUSH2 0x89C JUMP JUMPDEST PUSH2 0x568 DUP2 PUSH1 0x40 MLOAD DUP1 PUSH1 0x20 ADD PUSH1 0x40 MSTORE DUP1 PUSH1 0x0 DUP2 MSTORE POP PUSH2 0x75F JUMP JUMPDEST POP JUMP JUMPDEST SWAP1 JUMP JUMPDEST PUSH1 0x40 MLOAD PUSH4 0x3DC8DED7 PUSH1 0xE0 SHL DUP2 MSTORE PUSH1 0x1 PUSH1 0x1 PUSH1 0xA0 SHL SUB DUP4 AND PUSH1 0x4 DUP3 ADD MSTORE PUSH1 0x24 DUP2 ADD DUP3 SWAP1 MSTORE ADDRESS SWAP1 PUSH4 0x3DC8DED7 SWAP1 PUSH1 0x44 ADD JUMPDEST PUSH1 0x0 PUSH1 0x40 MLOAD DUP1 DUP4 SUB DUP2 PUSH1 0x0 DUP8 DUP1 EXTCODESIZE ISZERO DUP1 ISZERO PUSH2 0x5B7 JUMPI PUSH1 0x0 DUP1 REVERT JUMPDEST POP GAS CALL ISZERO DUP1 ISZERO PUSH2 0x5CB JUMPI RETURNDATASIZE PUSH1 0x0 DUP1 RETURNDATACOPY RETURNDATASIZE PUSH1 0x0 REVERT JUMPDEST POP POP POP POP POP POP JUMP JUMPDEST PUSH1 0x0 ADDRESS PUSH1 0x1 PUSH1 0x1 PUSH1 0xA0 SHL SUB AND PUSH4 0x13EFFA0F PUSH1 0x40 MLOAD DUP2 PUSH4 0xFFFFFFFF AND PUSH1 0xE0 SHL DUP2 MSTORE PUSH1 0x4 ADD PUSH1 0x20 PUSH1 0x40 MLOAD DUP1 DUP4 SUB DUP2 DUP7 DUP1 EXTCODESIZE ISZERO DUP1 ISZERO PUSH2 0x60E JUMPI PUSH1 0x0 DUP1 REVERT JUMPDEST POP GAS STATICCALL ISZERO DUP1 ISZERO PUSH2 0x622 JUMPI RETURNDATASIZE PUSH1 0x0 DUP1 RETURNDATACOPY RETURNDATASIZE PUSH1 0x0 REVERT JUMPDEST POP POP POP POP PUSH1 0x40 MLOAD RETURNDATASIZE PUSH1 0x1F NOT PUSH1 0x1F DUP3 ADD AND DUP3 ADD DUP1 PUSH1 0x40 MSTORE POP DUP2 ADD SWAP1 PUSH2 0x431 SWAP2 SWAP1 PUSH2 0x873 JUMP JUMPDEST DUP1 SELFBALANCE LT ISZERO PUSH2 0x696 JUMPI PUSH1 0x40 MLOAD PUSH3 0x461BCD PUSH1 0xE5 SHL DUP2 MSTORE PUSH1 0x20 PUSH1 0x4 DUP3 ADD MSTORE PUSH1 0x1D PUSH1 0x24 DUP3 ADD MSTORE PUSH32 0x416464726573733A20696E73756666696369656E742062616C616E6365000000 PUSH1 0x44 DUP3 ADD MSTORE PUSH1 0x64 ADD PUSH2 0x299 JUMP JUMPDEST PUSH1 0x0 DUP3 PUSH1 0x1 PUSH1 0x1 PUSH1 0xA0 SHL SUB AND DUP3 PUSH1 0x40 MLOAD PUSH1 0x0 PUSH1 0x40 MLOAD DUP1 DUP4 SUB DUP2 DUP6 DUP8 GAS CALL SWAP3 POP POP POP RETURNDATASIZE DUP1 PUSH1 0x0 DUP2 EQ PUSH2 0x6E3 JUMPI PUSH1 0x40 MLOAD SWAP2 POP PUSH1 0x1F NOT PUSH1 0x3F RETURNDATASIZE ADD AND DUP3 ADD PUSH1 0x40 MSTORE RETURNDATASIZE DUP3 MSTORE RETURNDATASIZE PUSH1 0x0 PUSH1 0x20 DUP5 ADD RETURNDATACOPY PUSH2 0x6E8 JUMP JUMPDEST PUSH1 0x60 SWAP2 POP JUMPDEST POP POP SWAP1 POP DUP1 PUSH2 0x1F3 JUMPI PUSH1 0x40 MLOAD PUSH3 0x461BCD PUSH1 0xE5 SHL DUP2 MSTORE PUSH1 0x20 PUSH1 0x4 DUP3 ADD MSTORE PUSH1 0x3A PUSH1 0x24 DUP3 ADD MSTORE PUSH32 0x416464726573733A20756E61626C6520746F2073656E642076616C75652C2072 PUSH1 0x44 DUP3 ADD MSTORE PUSH32 0x6563697069656E74206D61792068617665207265766572746564000000000000 PUSH1 0x64 DUP3 ADD MSTORE PUSH1 0x84 ADD PUSH2 0x299 JUMP JUMPDEST PUSH1 0x40 MLOAD PUSH3 0x93C581 PUSH1 0xE1 SHL DUP2 MSTORE ADDRESS SWAP1 PUSH4 0x1278B02 SWAP1 PUSH2 0x59D SWAP1 DUP6 SWAP1 DUP6 SWAP1 PUSH1 0x4 ADD PUSH2 0x90C JUMP JUMPDEST PUSH1 0x0 PUSH1 0x20 DUP3 DUP5 SUB SLT ISZERO PUSH2 0x795 JUMPI PUSH1 0x0 DUP1 REVERT JUMPDEST DUP2 CALLDATALOAD DUP1 ISZERO ISZERO DUP2 EQ PUSH2 0x7A5 JUMPI PUSH1 0x0 DUP1 REVERT JUMPDEST SWAP4 SWAP3 POP POP POP JUMP JUMPDEST PUSH4 0x4E487B71 PUSH1 0xE0 SHL PUSH1 0x0 MSTORE PUSH1 0x41 PUSH1 0x4 MSTORE PUSH1 0x24 PUSH1 0x0 REVERT JUMPDEST PUSH1 0x0 PUSH1 0x20 DUP3 DUP5 SUB SLT ISZERO PUSH2 0x7D4 JUMPI PUSH1 0x0 DUP1 REVERT JUMPDEST DUP2 CALLDATALOAD PUSH8 0xFFFFFFFFFFFFFFFF DUP1 DUP3 GT ISZERO PUSH2 0x7EC JUMPI PUSH1 0x0 DUP1 REVERT JUMPDEST DUP2 DUP5 ADD SWAP2 POP DUP5 PUSH1 0x1F DUP4 ADD SLT PUSH2 0x800 JUMPI PUSH1 0x0 DUP1 REVERT JUMPDEST DUP2 CALLDATALOAD DUP2 DUP2 GT ISZERO PUSH2 0x812 JUMPI PUSH2 0x812 PUSH2 0x7AC JUMP JUMPDEST PUSH1 0x40 MLOAD PUSH1 0x1F DUP3 ADD PUSH1 0x1F NOT SWAP1 DUP2 AND PUSH1 0x3F ADD AND DUP2 ADD SWAP1 DUP4 DUP3 GT DUP2 DUP4 LT OR ISZERO PUSH2 0x83A JUMPI PUSH2 0x83A PUSH2 0x7AC JUMP JUMPDEST DUP2 PUSH1 0x40 MSTORE DUP3 DUP2 MSTORE DUP8 PUSH1 0x20 DUP5 DUP8 ADD ADD GT ISZERO PUSH2 0x853 JUMPI PUSH1 0x0 DUP1 REVERT JUMPDEST DUP3 PUSH1 0x20 DUP7 ADD PUSH1 0x20 DUP4 ADD CALLDATACOPY PUSH1 0x0 SWAP3 DUP2 ADD PUSH1 0x20 ADD SWAP3 SWAP1 SWAP3 MSTORE POP SWAP6 SWAP5 POP POP POP POP POP JUMP JUMPDEST PUSH1 0x0 PUSH1 0x20 DUP3 DUP5 SUB SLT ISZERO PUSH2 0x885 JUMPI PUSH1 0x0 DUP1 REVERT JUMPDEST DUP2 MLOAD PUSH1 0x1 PUSH1 0x1 PUSH1 0xA0 SHL SUB DUP2 AND DUP2 EQ PUSH2 0x7A5 JUMPI PUSH1 0x0 DUP1 REVERT JUMPDEST PUSH1 0x20 DUP1 DUP3 MSTORE PUSH1 0x9 SWAP1 DUP3 ADD MSTORE PUSH9 0x2737BA1037BBB732B9 PUSH1 0xB9 SHL PUSH1 0x40 DUP3 ADD MSTORE PUSH1 0x60 ADD SWAP1 JUMP JUMPDEST PUSH1 0x0 DUP2 MLOAD DUP1 DUP5 MSTORE PUSH1 0x0 JUMPDEST DUP2 DUP2 LT ISZERO PUSH2 0x8E5 JUMPI PUSH1 0x20 DUP2 DUP6 ADD DUP2 ADD MLOAD DUP7 DUP4 ADD DUP3 ADD MSTORE ADD PUSH2 0x8C9 JUMP JUMPDEST DUP2 DUP2 GT ISZERO PUSH2 0x8F7 JUMPI PUSH1 0x0 PUSH1 0x20 DUP4 DUP8 ADD ADD MSTORE JUMPDEST POP PUSH1 0x1F ADD PUSH1 0x1F NOT AND SWAP3 SWAP1 SWAP3 ADD PUSH1 0x20 ADD SWAP3 SWAP2 POP POP JUMP JUMPDEST PUSH1 0x40 DUP2 MSTORE PUSH1 0x0 PUSH2 0x91F PUSH1 0x40 DUP4 ADD DUP6 PUSH2 0x8BF JUMP JUMPDEST DUP3 DUP2 SUB PUSH1 0x20 DUP5 ADD MSTORE PUSH2 0x931 DUP2 DUP6 PUSH2 0x8BF JUMP JUMPDEST SWAP6 SWAP5 POP POP POP POP POP JUMP INVALID LOG2 PUSH5 0x6970667358 0x22 SLT KECCAK256 0xE7 NUMBER ADDMOD 0xEE PUSH13 0xEE535BC688FFB9C05787FB3BBD POP 0xD6 0xB1 CREATE2 0xD PUSH3 0xDAEBB5 0xB2 PUSH32 0x2EAF0264736F6C63430008090033000000000000000000000000000000000000 "
    },
    "gasEstimates": {
      "creation": {
        "codeDepositCost": "483200",
        "executionCost": "infinite",
        "totalCost": "infinite"
      },
      "external": {
        "": "infinite",
        "implementation()": "2345",
        "mint()": "infinite",
        "saleIsActive()": "2376",
        "setBaseURI(string)": "infinite",
        "setSaleIsActive(bool)": "infinite",
        "totalSupply()": "2364",
        "withdraw()": "infinite"
      }
    },
    "methodIdentifiers": {
      "implementation()": "5c60da1b",
      "mint()": "1249c58b",
      "saleIsActive()": "eb8d2444",
      "setBaseURI(string)": "55f804b3",
      "setSaleIsActive(bool)": "02c88989",
      "totalSupply()": "18160ddd",
      "withdraw()": "3ccfd60b"
    }
  },
  "storageLayout": {
    "storage": [
      {
        "astId": 2891,
        "contract": "__xalzzy__.sol:__xalzzy__",
        "label": "gap",
        "offset": 0,
        "slot": "0",
        "type": "t_array(t_uint256)100000_storage"
      },
      {
        "astId": 1894,
        "contract": "__xalzzy__.sol:__xalzzy__",
        "label": "_status",
        "offset": 0,
        "slot": "100000",
        "type": "t_uint256"
      },
      {
        "astId": 2334,
        "contract": "__xalzzy__.sol:__xalzzy__",
        "label": "supplyCounter",
        "offset": 0,
        "slot": "100001",
        "type": "t_struct(Counter)2226_storage"
      },
      {
        "astId": 2373,
        "contract": "__xalzzy__.sol:__xalzzy__",
        "label": "saleIsActive",
        "offset": 0,
        "slot": "100002",
        "type": "t_bool"
      }
    ],
    "types": {
      "t_array(t_uint256)100000_storage": {
        "base": "t_uint256",
        "encoding": "inplace",
        "label": "uint256[100000]",
        "numberOfBytes": "3200000"
      },
      "t_bool": {
        "encoding": "inplace",
        "label": "bool",
        "numberOfBytes": "1"
      },
      "t_struct(Counter)2226_storage": {
        "encoding": "inplace",
        "label": "struct Counters.Counter",
        "members": [
          {
            "astId": 2225,
            "contract": "__xalzzy__.sol:__xalzzy__",
            "label": "_value",
            "offset": 0,
            "slot": "0",
            "type": "t_uint256"
          }
        ],
        "numberOfBytes": "32"
      },
      "t_uint256": {
        "encoding": "inplace",
        "label": "uint256",
        "numberOfBytes": "32"
      }
    }
  },
  "userdoc": {
    "kind": "user",
    "methods": {
      "saleIsActive()": {
        "notice": "ACTIVATION *"
      },
      "setBaseURI(string)": {
        "notice": "URI HANDLING *"
      },
      "withdraw()": {
        "notice": "PAYOUT *"
      }
    },
    "version": 1
  }
}