{
	"data": {
		"bytecode": {
			"linkReferences": {},
			"object": "60806040526001620186a260006101000a81548160ff0219169083151502179055503480156200002e57600080fd5b5060405162001767380380620017678339818101604052810190620000549190620004bb565b816040518060400160405280600a81526020017f5f5f78616c7a7a795f5f000000000000000000000000000000000000000000008152506040518060400160405280600381526020017f307861000000000000000000000000000000000000000000000000000000000081525060405180608001604052806109c461ffff168152602001858152602001604051806020016040528060008152508152602001600015158152506200010b846200023160201b60201c565b60008473ffffffffffffffffffffffffffffffffffffffff16338585856040516024016200013d94939291906200068f565b6040516020818303038152906040527fb1a78e3f000000000000000000000000000000000000000000000000000000007bffffffffffffffffffffffffffffffffffffffffffffffffffffffff19166020820180517bffffffffffffffffffffffffffffffffffffffffffffffffffffffff8381831617835250505050604051620001c991906200073e565b600060405180830381855af49150503d806000811462000206576040519150601f19603f3d011682016040523d82523d6000602084013e6200020b565b606091505b50509050806200021a57600080fd5b50505050506001620186a081905550505062000757565b806200026b7f360894a13ba1a3210667c828492db98dca3e2076cc3735a920a3ca505d382bbc60001b620002af60201b620006991760201c565b60000160006101000a81548173ffffffffffffffffffffffffffffffffffffffff021916908373ffffffffffffffffffffffffffffffffffffffff16021790555050565b6000819050919050565b6000604051905090565b600080fd5b600080fd5b600073ffffffffffffffffffffffffffffffffffffffff82169050919050565b6000620002fa82620002cd565b9050919050565b6200030c81620002ed565b81146200031857600080fd5b50565b6000815190506200032c8162000301565b92915050565b600080fd5b600080fd5b6000601f19601f8301169050919050565b7f4e487b7100000000000000000000000000000000000000000000000000000000600052604160045260246000fd5b62000387826200033c565b810181811067ffffffffffffffff82111715620003a957620003a86200034d565b5b80604052505050565b6000620003be620002b9565b9050620003cc82826200037c565b919050565b600067ffffffffffffffff821115620003ef57620003ee6200034d565b5b620003fa826200033c565b9050602081019050919050565b60005b83811015620004275780820151818401526020810190506200040a565b8381111562000437576000848401525b50505050565b6000620004546200044e84620003d1565b620003b2565b90508281526020810184848401111562000473576200047262000337565b5b6200048084828562000407565b509392505050565b600082601f830112620004a0576200049f62000332565b5b8151620004b28482602086016200043d565b91505092915050565b60008060408385031215620004d557620004d4620002c3565b5b6000620004e5858286016200031b565b925050602083015167ffffffffffffffff811115620005095762000508620002c8565b5b620005178582860162000488565b9150509250929050565b6200052c81620002ed565b82525050565b600081519050919050565b600082825260208201905092915050565b60006200055b8262000532565b6200056781856200053d565b93506200057981856020860162000407565b62000584816200033c565b840191505092915050565b600061ffff82169050919050565b620005a8816200058f565b82525050565b600082825260208201905092915050565b6000620005cc8262000532565b620005d88185620005ae565b9350620005ea81856020860162000407565b620005f5816200033c565b840191505092915050565b60008115159050919050565b620006178162000600565b82525050565b60006080830160008301516200063760008601826200059d565b5060208301518482036020860152620006518282620005bf565b915050604083015184820360408601526200066d8282620005bf565b91505060608301516200068460608601826200060c565b508091505092915050565b6000608082019050620006a6600083018762000521565b8181036020830152620006ba81866200054e565b90508181036040830152620006d081856200054e565b90508181036060830152620006e681846200061d565b905095945050505050565b600081519050919050565b600081905092915050565b60006200071482620006f1565b620007208185620006fc565b93506200073281856020860162000407565b80840191505092915050565b60006200074c828462000707565b915081905092915050565b61100080620007676000396000f3fe6080604052600436106100745760003560e01c80633ccfd60b1161004e5780633ccfd60b1461010057806355f804b3146101175780635c60da1b14610140578063eb8d24441461016b5761007e565b806302c88989146100955780631249c58b146100be57806318160ddd146100d55761007e565b3661007e57600080fd5b34801561008a57600080fd5b50610093610196565b005b3480156100a157600080fd5b506100bc60048036038101906100b7919061098b565b6101c8565b005b3480156100ca57600080fd5b506100d36102d9565b005b3480156100e157600080fd5b506100ea610497565b6040516100f791906109d1565b60405180910390f35b34801561010c57600080fd5b506101156104aa565b005b34801561012357600080fd5b5061013e60048036038101906101399190610b32565b61051f565b005b34801561014c57600080fd5b5061015561062d565b6040516101629190610bbc565b60405180910390f35b34801561017757600080fd5b50610180610684565b60405161018d9190610be6565b60405180910390f35b60006101a061062d565b90503660008037600080366000845af43d6000803e80600081146101c3573d6000f35b3d6000fd5b6101d06106a3565b73ffffffffffffffffffffffffffffffffffffffff166313effa0f6040518163ffffffff1660e01b815260040160206040518083038186803b15801561021557600080fd5b505afa158015610229573d6000803e3d6000fd5b505050506040513d601f19601f8201168201806040525081019061024d9190610c2d565b73ffffffffffffffffffffffffffffffffffffffff163373ffffffffffffffffffffffffffffffffffffffff16146102ba576040517f08c379a00000000000000000000000000000000000000000000000000000000081526004016102b190610cb7565b60405180910390fd5b80620186a260006101000a81548160ff02191690831515021790555050565b6002620186a0541415610321576040517f08c379a000000000000000000000000000000000000000000000000000000000815260040161031890610d23565b60405180910390fd5b6002620186a0819055506103336106a3565b73ffffffffffffffffffffffffffffffffffffffff166313effa0f6040518163ffffffff1660e01b815260040160206040518083038186803b15801561037857600080fd5b505afa15801561038c573d6000803e3d6000fd5b505050506040513d601f19601f820116820180604052508101906103b09190610c2d565b73ffffffffffffffffffffffffffffffffffffffff163373ffffffffffffffffffffffffffffffffffffffff161461041d576040517f08c379a000000000000000000000000000000000000000000000000000000000815260040161041490610cb7565b60405180910390fd5b620186a260009054906101000a900460ff1661046e576040517f08c379a000000000000000000000000000000000000000000000000000000000815260040161046590610d8f565b60405180910390fd5b61047f3361047a610497565b6106ab565b61048b620186a1610723565b6001620186a081905550565b60006104a5620186a1610739565b905090565b6002620186a05414156104f2576040517f08c379a00000000000000000000000000000000000000000000000000000000081526004016104e990610d23565b60405180910390fd5b6002620186a081905550600047905061051261050c610747565b826107d3565b506001620186a081905550565b6105276106a3565b73ffffffffffffffffffffffffffffffffffffffff166313effa0f6040518163ffffffff1660e01b815260040160206040518083038186803b15801561056c57600080fd5b505afa158015610580573d6000803e3d6000fd5b505050506040513d601f19601f820116820180604052508101906105a49190610c2d565b73ffffffffffffffffffffffffffffffffffffffff163373ffffffffffffffffffffffffffffffffffffffff1614610611576040517f08c379a000000000000000000000000000000000000000000000000000000000815260040161060890610cb7565b60405180910390fd5b61062a81604051806020016040528060008152506108c7565b50565b600061065b7f360894a13ba1a3210667c828492db98dca3e2076cc3735a920a3ca505d382bbc60001b610699565b60000160009054906101000a900473ffffffffffffffffffffffffffffffffffffffff16905090565b620186a260009054906101000a900460ff1681565b6000819050919050565b600030905090565b6106b36106a3565b73ffffffffffffffffffffffffffffffffffffffff16633dc8ded783836040518363ffffffff1660e01b81526004016106ed929190610daf565b600060405180830381600087803b15801561070757600080fd5b505af115801561071b573d6000803e3d6000fd5b505050505050565b6001816000016000828254019250508190555050565b600081600001549050919050565b60006107516106a3565b73ffffffffffffffffffffffffffffffffffffffff166313effa0f6040518163ffffffff1660e01b815260040160206040518083038186803b15801561079657600080fd5b505afa1580156107aa573d6000803e3d6000fd5b505050506040513d601f19601f820116820180604052508101906107ce9190610c2d565b905090565b80471015610816576040517f08c379a000000000000000000000000000000000000000000000000000000000815260040161080d90610e24565b60405180910390fd5b60008273ffffffffffffffffffffffffffffffffffffffff168260405161083c90610e75565b60006040518083038185875af1925050503d8060008114610879576040519150601f19603f3d011682016040523d82523d6000602084013e61087e565b606091505b50509050806108c2576040517f08c379a00000000000000000000000000000000000000000000000000000000081526004016108b990610efc565b60405180910390fd5b505050565b6108cf6106a3565b73ffffffffffffffffffffffffffffffffffffffff166301278b0283836040518363ffffffff1660e01b8152600401610909929190610f93565b600060405180830381600087803b15801561092357600080fd5b505af1158015610937573d6000803e3d6000fd5b505050505050565b6000604051905090565b600080fd5b600080fd5b60008115159050919050565b61096881610953565b811461097357600080fd5b50565b6000813590506109858161095f565b92915050565b6000602082840312156109a1576109a0610949565b5b60006109af84828501610976565b91505092915050565b6000819050919050565b6109cb816109b8565b82525050565b60006020820190506109e660008301846109c2565b92915050565b600080fd5b600080fd5b6000601f19601f8301169050919050565b7f4e487b7100000000000000000000000000000000000000000000000000000000600052604160045260246000fd5b610a3f826109f6565b810181811067ffffffffffffffff82111715610a5e57610a5d610a07565b5b80604052505050565b6000610a7161093f565b9050610a7d8282610a36565b919050565b600067ffffffffffffffff821115610a9d57610a9c610a07565b5b610aa6826109f6565b9050602081019050919050565b82818337600083830152505050565b6000610ad5610ad084610a82565b610a67565b905082815260208101848484011115610af157610af06109f1565b5b610afc848285610ab3565b509392505050565b600082601f830112610b1957610b186109ec565b5b8135610b29848260208601610ac2565b91505092915050565b600060208284031215610b4857610b47610949565b5b600082013567ffffffffffffffff811115610b6657610b6561094e565b5b610b7284828501610b04565b91505092915050565b600073ffffffffffffffffffffffffffffffffffffffff82169050919050565b6000610ba682610b7b565b9050919050565b610bb681610b9b565b82525050565b6000602082019050610bd16000830184610bad565b92915050565b610be081610953565b82525050565b6000602082019050610bfb6000830184610bd7565b92915050565b610c0a81610b9b565b8114610c1557600080fd5b50565b600081519050610c2781610c01565b92915050565b600060208284031215610c4357610c42610949565b5b6000610c5184828501610c18565b91505092915050565b600082825260208201905092915050565b7f4e6f74206f776e65720000000000000000000000000000000000000000000000600082015250565b6000610ca1600983610c5a565b9150610cac82610c6b565b602082019050919050565b60006020820190508181036000830152610cd081610c94565b9050919050565b7f5265656e7472616e637947756172643a207265656e7472616e742063616c6c00600082015250565b6000610d0d601f83610c5a565b9150610d1882610cd7565b602082019050919050565b60006020820190508181036000830152610d3c81610d00565b9050919050565b7f53616c65206e6f74206163746976650000000000000000000000000000000000600082015250565b6000610d79600f83610c5a565b9150610d8482610d43565b602082019050919050565b60006020820190508181036000830152610da881610d6c565b9050919050565b6000604082019050610dc46000830185610bad565b610dd160208301846109c2565b9392505050565b7f416464726573733a20696e73756666696369656e742062616c616e6365000000600082015250565b6000610e0e601d83610c5a565b9150610e1982610dd8565b602082019050919050565b60006020820190508181036000830152610e3d81610e01565b9050919050565b600081905092915050565b50565b6000610e5f600083610e44565b9150610e6a82610e4f565b600082019050919050565b6000610e8082610e52565b9150819050919050565b7f416464726573733a20756e61626c6520746f2073656e642076616c75652c207260008201527f6563697069656e74206d61792068617665207265766572746564000000000000602082015250565b6000610ee6603a83610c5a565b9150610ef182610e8a565b604082019050919050565b60006020820190508181036000830152610f1581610ed9565b9050919050565b600081519050919050565b60005b83811015610f45578082015181840152602081019050610f2a565b83811115610f54576000848401525b50505050565b6000610f6582610f1c565b610f6f8185610c5a565b9350610f7f818560208601610f27565b610f88816109f6565b840191505092915050565b60006040820190508181036000830152610fad8185610f5a565b90508181036020830152610fc18184610f5a565b9050939250505056fea26469706673582212203b713b1bbf3e43c89ae50d1dc1d7c311cfa2362ab3152412d8947efbe2ca3dc864736f6c63430008090033",
			"opcodes": "PUSH1 0x80 PUSH1 0x40 MSTORE PUSH1 0x1 PUSH3 0x186A2 PUSH1 0x0 PUSH2 0x100 EXP DUP2 SLOAD DUP2 PUSH1 0xFF MUL NOT AND SWAP1 DUP4 ISZERO ISZERO MUL OR SWAP1 SSTORE POP CALLVALUE DUP1 ISZERO PUSH3 0x2E JUMPI PUSH1 0x0 DUP1 REVERT JUMPDEST POP PUSH1 0x40 MLOAD PUSH3 0x1767 CODESIZE SUB DUP1 PUSH3 0x1767 DUP4 CODECOPY DUP2 DUP2 ADD PUSH1 0x40 MSTORE DUP2 ADD SWAP1 PUSH3 0x54 SWAP2 SWAP1 PUSH3 0x4BB JUMP JUMPDEST DUP2 PUSH1 0x40 MLOAD DUP1 PUSH1 0x40 ADD PUSH1 0x40 MSTORE DUP1 PUSH1 0xA DUP2 MSTORE PUSH1 0x20 ADD PUSH32 0x5F5F78616C7A7A795F5F00000000000000000000000000000000000000000000 DUP2 MSTORE POP PUSH1 0x40 MLOAD DUP1 PUSH1 0x40 ADD PUSH1 0x40 MSTORE DUP1 PUSH1 0x3 DUP2 MSTORE PUSH1 0x20 ADD PUSH32 0x3078610000000000000000000000000000000000000000000000000000000000 DUP2 MSTORE POP PUSH1 0x40 MLOAD DUP1 PUSH1 0x80 ADD PUSH1 0x40 MSTORE DUP1 PUSH2 0x9C4 PUSH2 0xFFFF AND DUP2 MSTORE PUSH1 0x20 ADD DUP6 DUP2 MSTORE PUSH1 0x20 ADD PUSH1 0x40 MLOAD DUP1 PUSH1 0x20 ADD PUSH1 0x40 MSTORE DUP1 PUSH1 0x0 DUP2 MSTORE POP DUP2 MSTORE PUSH1 0x20 ADD PUSH1 0x0 ISZERO ISZERO DUP2 MSTORE POP PUSH3 0x10B DUP5 PUSH3 0x231 PUSH1 0x20 SHL PUSH1 0x20 SHR JUMP JUMPDEST PUSH1 0x0 DUP5 PUSH20 0xFFFFFFFFFFFFFFFFFFFFFFFFFFFFFFFFFFFFFFFF AND CALLER DUP6 DUP6 DUP6 PUSH1 0x40 MLOAD PUSH1 0x24 ADD PUSH3 0x13D SWAP5 SWAP4 SWAP3 SWAP2 SWAP1 PUSH3 0x68F JUMP JUMPDEST PUSH1 0x40 MLOAD PUSH1 0x20 DUP2 DUP4 SUB SUB DUP2 MSTORE SWAP1 PUSH1 0x40 MSTORE PUSH32 0xB1A78E3F00000000000000000000000000000000000000000000000000000000 PUSH28 0xFFFFFFFFFFFFFFFFFFFFFFFFFFFFFFFFFFFFFFFFFFFFFFFFFFFFFFFF NOT AND PUSH1 0x20 DUP3 ADD DUP1 MLOAD PUSH28 0xFFFFFFFFFFFFFFFFFFFFFFFFFFFFFFFFFFFFFFFFFFFFFFFFFFFFFFFF DUP4 DUP2 DUP4 AND OR DUP4 MSTORE POP POP POP POP PUSH1 0x40 MLOAD PUSH3 0x1C9 SWAP2 SWAP1 PUSH3 0x73E JUMP JUMPDEST PUSH1 0x0 PUSH1 0x40 MLOAD DUP1 DUP4 SUB DUP2 DUP6 GAS DELEGATECALL SWAP2 POP POP RETURNDATASIZE DUP1 PUSH1 0x0 DUP2 EQ PUSH3 0x206 JUMPI PUSH1 0x40 MLOAD SWAP2 POP PUSH1 0x1F NOT PUSH1 0x3F RETURNDATASIZE ADD AND DUP3 ADD PUSH1 0x40 MSTORE RETURNDATASIZE DUP3 MSTORE RETURNDATASIZE PUSH1 0x0 PUSH1 0x20 DUP5 ADD RETURNDATACOPY PUSH3 0x20B JUMP JUMPDEST PUSH1 0x60 SWAP2 POP JUMPDEST POP POP SWAP1 POP DUP1 PUSH3 0x21A JUMPI PUSH1 0x0 DUP1 REVERT JUMPDEST POP POP POP POP POP PUSH1 0x1 PUSH3 0x186A0 DUP2 SWAP1 SSTORE POP POP POP PUSH3 0x757 JUMP JUMPDEST DUP1 PUSH3 0x26B PUSH32 0x360894A13BA1A3210667C828492DB98DCA3E2076CC3735A920A3CA505D382BBC PUSH1 0x0 SHL PUSH3 0x2AF PUSH1 0x20 SHL PUSH3 0x699 OR PUSH1 0x20 SHR JUMP JUMPDEST PUSH1 0x0 ADD PUSH1 0x0 PUSH2 0x100 EXP DUP2 SLOAD DUP2 PUSH20 0xFFFFFFFFFFFFFFFFFFFFFFFFFFFFFFFFFFFFFFFF MUL NOT AND SWAP1 DUP4 PUSH20 0xFFFFFFFFFFFFFFFFFFFFFFFFFFFFFFFFFFFFFFFF AND MUL OR SWAP1 SSTORE POP POP JUMP JUMPDEST PUSH1 0x0 DUP2 SWAP1 POP SWAP2 SWAP1 POP JUMP JUMPDEST PUSH1 0x0 PUSH1 0x40 MLOAD SWAP1 POP SWAP1 JUMP JUMPDEST PUSH1 0x0 DUP1 REVERT JUMPDEST PUSH1 0x0 DUP1 REVERT JUMPDEST PUSH1 0x0 PUSH20 0xFFFFFFFFFFFFFFFFFFFFFFFFFFFFFFFFFFFFFFFF DUP3 AND SWAP1 POP SWAP2 SWAP1 POP JUMP JUMPDEST PUSH1 0x0 PUSH3 0x2FA DUP3 PUSH3 0x2CD JUMP JUMPDEST SWAP1 POP SWAP2 SWAP1 POP JUMP JUMPDEST PUSH3 0x30C DUP2 PUSH3 0x2ED JUMP JUMPDEST DUP2 EQ PUSH3 0x318 JUMPI PUSH1 0x0 DUP1 REVERT JUMPDEST POP JUMP JUMPDEST PUSH1 0x0 DUP2 MLOAD SWAP1 POP PUSH3 0x32C DUP2 PUSH3 0x301 JUMP JUMPDEST SWAP3 SWAP2 POP POP JUMP JUMPDEST PUSH1 0x0 DUP1 REVERT JUMPDEST PUSH1 0x0 DUP1 REVERT JUMPDEST PUSH1 0x0 PUSH1 0x1F NOT PUSH1 0x1F DUP4 ADD AND SWAP1 POP SWAP2 SWAP1 POP JUMP JUMPDEST PUSH32 0x4E487B7100000000000000000000000000000000000000000000000000000000 PUSH1 0x0 MSTORE PUSH1 0x41 PUSH1 0x4 MSTORE PUSH1 0x24 PUSH1 0x0 REVERT JUMPDEST PUSH3 0x387 DUP3 PUSH3 0x33C JUMP JUMPDEST DUP2 ADD DUP2 DUP2 LT PUSH8 0xFFFFFFFFFFFFFFFF DUP3 GT OR ISZERO PUSH3 0x3A9 JUMPI PUSH3 0x3A8 PUSH3 0x34D JUMP JUMPDEST JUMPDEST DUP1 PUSH1 0x40 MSTORE POP POP POP JUMP JUMPDEST PUSH1 0x0 PUSH3 0x3BE PUSH3 0x2B9 JUMP JUMPDEST SWAP1 POP PUSH3 0x3CC DUP3 DUP3 PUSH3 0x37C JUMP JUMPDEST SWAP2 SWAP1 POP JUMP JUMPDEST PUSH1 0x0 PUSH8 0xFFFFFFFFFFFFFFFF DUP3 GT ISZERO PUSH3 0x3EF JUMPI PUSH3 0x3EE PUSH3 0x34D JUMP JUMPDEST JUMPDEST PUSH3 0x3FA DUP3 PUSH3 0x33C JUMP JUMPDEST SWAP1 POP PUSH1 0x20 DUP2 ADD SWAP1 POP SWAP2 SWAP1 POP JUMP JUMPDEST PUSH1 0x0 JUMPDEST DUP4 DUP2 LT ISZERO PUSH3 0x427 JUMPI DUP1 DUP3 ADD MLOAD DUP2 DUP5 ADD MSTORE PUSH1 0x20 DUP2 ADD SWAP1 POP PUSH3 0x40A JUMP JUMPDEST DUP4 DUP2 GT ISZERO PUSH3 0x437 JUMPI PUSH1 0x0 DUP5 DUP5 ADD MSTORE JUMPDEST POP POP POP POP JUMP JUMPDEST PUSH1 0x0 PUSH3 0x454 PUSH3 0x44E DUP5 PUSH3 0x3D1 JUMP JUMPDEST PUSH3 0x3B2 JUMP JUMPDEST SWAP1 POP DUP3 DUP2 MSTORE PUSH1 0x20 DUP2 ADD DUP5 DUP5 DUP5 ADD GT ISZERO PUSH3 0x473 JUMPI PUSH3 0x472 PUSH3 0x337 JUMP JUMPDEST JUMPDEST PUSH3 0x480 DUP5 DUP3 DUP6 PUSH3 0x407 JUMP JUMPDEST POP SWAP4 SWAP3 POP POP POP JUMP JUMPDEST PUSH1 0x0 DUP3 PUSH1 0x1F DUP4 ADD SLT PUSH3 0x4A0 JUMPI PUSH3 0x49F PUSH3 0x332 JUMP JUMPDEST JUMPDEST DUP2 MLOAD PUSH3 0x4B2 DUP5 DUP3 PUSH1 0x20 DUP7 ADD PUSH3 0x43D JUMP JUMPDEST SWAP2 POP POP SWAP3 SWAP2 POP POP JUMP JUMPDEST PUSH1 0x0 DUP1 PUSH1 0x40 DUP4 DUP6 SUB SLT ISZERO PUSH3 0x4D5 JUMPI PUSH3 0x4D4 PUSH3 0x2C3 JUMP JUMPDEST JUMPDEST PUSH1 0x0 PUSH3 0x4E5 DUP6 DUP3 DUP7 ADD PUSH3 0x31B JUMP JUMPDEST SWAP3 POP POP PUSH1 0x20 DUP4 ADD MLOAD PUSH8 0xFFFFFFFFFFFFFFFF DUP2 GT ISZERO PUSH3 0x509 JUMPI PUSH3 0x508 PUSH3 0x2C8 JUMP JUMPDEST JUMPDEST PUSH3 0x517 DUP6 DUP3 DUP7 ADD PUSH3 0x488 JUMP JUMPDEST SWAP2 POP POP SWAP3 POP SWAP3 SWAP1 POP JUMP JUMPDEST PUSH3 0x52C DUP2 PUSH3 0x2ED JUMP JUMPDEST DUP3 MSTORE POP POP JUMP JUMPDEST PUSH1 0x0 DUP2 MLOAD SWAP1 POP SWAP2 SWAP1 POP JUMP JUMPDEST PUSH1 0x0 DUP3 DUP3 MSTORE PUSH1 0x20 DUP3 ADD SWAP1 POP SWAP3 SWAP2 POP POP JUMP JUMPDEST PUSH1 0x0 PUSH3 0x55B DUP3 PUSH3 0x532 JUMP JUMPDEST PUSH3 0x567 DUP2 DUP6 PUSH3 0x53D JUMP JUMPDEST SWAP4 POP PUSH3 0x579 DUP2 DUP6 PUSH1 0x20 DUP7 ADD PUSH3 0x407 JUMP JUMPDEST PUSH3 0x584 DUP2 PUSH3 0x33C JUMP JUMPDEST DUP5 ADD SWAP2 POP POP SWAP3 SWAP2 POP POP JUMP JUMPDEST PUSH1 0x0 PUSH2 0xFFFF DUP3 AND SWAP1 POP SWAP2 SWAP1 POP JUMP JUMPDEST PUSH3 0x5A8 DUP2 PUSH3 0x58F JUMP JUMPDEST DUP3 MSTORE POP POP JUMP JUMPDEST PUSH1 0x0 DUP3 DUP3 MSTORE PUSH1 0x20 DUP3 ADD SWAP1 POP SWAP3 SWAP2 POP POP JUMP JUMPDEST PUSH1 0x0 PUSH3 0x5CC DUP3 PUSH3 0x532 JUMP JUMPDEST PUSH3 0x5D8 DUP2 DUP6 PUSH3 0x5AE JUMP JUMPDEST SWAP4 POP PUSH3 0x5EA DUP2 DUP6 PUSH1 0x20 DUP7 ADD PUSH3 0x407 JUMP JUMPDEST PUSH3 0x5F5 DUP2 PUSH3 0x33C JUMP JUMPDEST DUP5 ADD SWAP2 POP POP SWAP3 SWAP2 POP POP JUMP JUMPDEST PUSH1 0x0 DUP2 ISZERO ISZERO SWAP1 POP SWAP2 SWAP1 POP JUMP JUMPDEST PUSH3 0x617 DUP2 PUSH3 0x600 JUMP JUMPDEST DUP3 MSTORE POP POP JUMP JUMPDEST PUSH1 0x0 PUSH1 0x80 DUP4 ADD PUSH1 0x0 DUP4 ADD MLOAD PUSH3 0x637 PUSH1 0x0 DUP7 ADD DUP3 PUSH3 0x59D JUMP JUMPDEST POP PUSH1 0x20 DUP4 ADD MLOAD DUP5 DUP3 SUB PUSH1 0x20 DUP7 ADD MSTORE PUSH3 0x651 DUP3 DUP3 PUSH3 0x5BF JUMP JUMPDEST SWAP2 POP POP PUSH1 0x40 DUP4 ADD MLOAD DUP5 DUP3 SUB PUSH1 0x40 DUP7 ADD MSTORE PUSH3 0x66D DUP3 DUP3 PUSH3 0x5BF JUMP JUMPDEST SWAP2 POP POP PUSH1 0x60 DUP4 ADD MLOAD PUSH3 0x684 PUSH1 0x60 DUP7 ADD DUP3 PUSH3 0x60C JUMP JUMPDEST POP DUP1 SWAP2 POP POP SWAP3 SWAP2 POP POP JUMP JUMPDEST PUSH1 0x0 PUSH1 0x80 DUP3 ADD SWAP1 POP PUSH3 0x6A6 PUSH1 0x0 DUP4 ADD DUP8 PUSH3 0x521 JUMP JUMPDEST DUP2 DUP2 SUB PUSH1 0x20 DUP4 ADD MSTORE PUSH3 0x6BA DUP2 DUP7 PUSH3 0x54E JUMP JUMPDEST SWAP1 POP DUP2 DUP2 SUB PUSH1 0x40 DUP4 ADD MSTORE PUSH3 0x6D0 DUP2 DUP6 PUSH3 0x54E JUMP JUMPDEST SWAP1 POP DUP2 DUP2 SUB PUSH1 0x60 DUP4 ADD MSTORE PUSH3 0x6E6 DUP2 DUP5 PUSH3 0x61D JUMP JUMPDEST SWAP1 POP SWAP6 SWAP5 POP POP POP POP POP JUMP JUMPDEST PUSH1 0x0 DUP2 MLOAD SWAP1 POP SWAP2 SWAP1 POP JUMP JUMPDEST PUSH1 0x0 DUP2 SWAP1 POP SWAP3 SWAP2 POP POP JUMP JUMPDEST PUSH1 0x0 PUSH3 0x714 DUP3 PUSH3 0x6F1 JUMP JUMPDEST PUSH3 0x720 DUP2 DUP6 PUSH3 0x6FC JUMP JUMPDEST SWAP4 POP PUSH3 0x732 DUP2 DUP6 PUSH1 0x20 DUP7 ADD PUSH3 0x407 JUMP JUMPDEST DUP1 DUP5 ADD SWAP2 POP POP SWAP3 SWAP2 POP POP JUMP JUMPDEST PUSH1 0x0 PUSH3 0x74C DUP3 DUP5 PUSH3 0x707 JUMP JUMPDEST SWAP2 POP DUP2 SWAP1 POP SWAP3 SWAP2 POP POP JUMP JUMPDEST PUSH2 0x1000 DUP1 PUSH3 0x767 PUSH1 0x0 CODECOPY PUSH1 0x0 RETURN INVALID PUSH1 0x80 PUSH1 0x40 MSTORE PUSH1 0x4 CALLDATASIZE LT PUSH2 0x74 JUMPI PUSH1 0x0 CALLDATALOAD PUSH1 0xE0 SHR DUP1 PUSH4 0x3CCFD60B GT PUSH2 0x4E JUMPI DUP1 PUSH4 0x3CCFD60B EQ PUSH2 0x100 JUMPI DUP1 PUSH4 0x55F804B3 EQ PUSH2 0x117 JUMPI DUP1 PUSH4 0x5C60DA1B EQ PUSH2 0x140 JUMPI DUP1 PUSH4 0xEB8D2444 EQ PUSH2 0x16B JUMPI PUSH2 0x7E JUMP JUMPDEST DUP1 PUSH4 0x2C88989 EQ PUSH2 0x95 JUMPI DUP1 PUSH4 0x1249C58B EQ PUSH2 0xBE JUMPI DUP1 PUSH4 0x18160DDD EQ PUSH2 0xD5 JUMPI PUSH2 0x7E JUMP JUMPDEST CALLDATASIZE PUSH2 0x7E JUMPI PUSH1 0x0 DUP1 REVERT JUMPDEST CALLVALUE DUP1 ISZERO PUSH2 0x8A JUMPI PUSH1 0x0 DUP1 REVERT JUMPDEST POP PUSH2 0x93 PUSH2 0x196 JUMP JUMPDEST STOP JUMPDEST CALLVALUE DUP1 ISZERO PUSH2 0xA1 JUMPI PUSH1 0x0 DUP1 REVERT JUMPDEST POP PUSH2 0xBC PUSH1 0x4 DUP1 CALLDATASIZE SUB DUP2 ADD SWAP1 PUSH2 0xB7 SWAP2 SWAP1 PUSH2 0x98B JUMP JUMPDEST PUSH2 0x1C8 JUMP JUMPDEST STOP JUMPDEST CALLVALUE DUP1 ISZERO PUSH2 0xCA JUMPI PUSH1 0x0 DUP1 REVERT JUMPDEST POP PUSH2 0xD3 PUSH2 0x2D9 JUMP JUMPDEST STOP JUMPDEST CALLVALUE DUP1 ISZERO PUSH2 0xE1 JUMPI PUSH1 0x0 DUP1 REVERT JUMPDEST POP PUSH2 0xEA PUSH2 0x497 JUMP JUMPDEST PUSH1 0x40 MLOAD PUSH2 0xF7 SWAP2 SWAP1 PUSH2 0x9D1 JUMP JUMPDEST PUSH1 0x40 MLOAD DUP1 SWAP2 SUB SWAP1 RETURN JUMPDEST CALLVALUE DUP1 ISZERO PUSH2 0x10C JUMPI PUSH1 0x0 DUP1 REVERT JUMPDEST POP PUSH2 0x115 PUSH2 0x4AA JUMP JUMPDEST STOP JUMPDEST CALLVALUE DUP1 ISZERO PUSH2 0x123 JUMPI PUSH1 0x0 DUP1 REVERT JUMPDEST POP PUSH2 0x13E PUSH1 0x4 DUP1 CALLDATASIZE SUB DUP2 ADD SWAP1 PUSH2 0x139 SWAP2 SWAP1 PUSH2 0xB32 JUMP JUMPDEST PUSH2 0x51F JUMP JUMPDEST STOP JUMPDEST CALLVALUE DUP1 ISZERO PUSH2 0x14C JUMPI PUSH1 0x0 DUP1 REVERT JUMPDEST POP PUSH2 0x155 PUSH2 0x62D JUMP JUMPDEST PUSH1 0x40 MLOAD PUSH2 0x162 SWAP2 SWAP1 PUSH2 0xBBC JUMP JUMPDEST PUSH1 0x40 MLOAD DUP1 SWAP2 SUB SWAP1 RETURN JUMPDEST CALLVALUE DUP1 ISZERO PUSH2 0x177 JUMPI PUSH1 0x0 DUP1 REVERT JUMPDEST POP PUSH2 0x180 PUSH2 0x684 JUMP JUMPDEST PUSH1 0x40 MLOAD PUSH2 0x18D SWAP2 SWAP1 PUSH2 0xBE6 JUMP JUMPDEST PUSH1 0x40 MLOAD DUP1 SWAP2 SUB SWAP1 RETURN JUMPDEST PUSH1 0x0 PUSH2 0x1A0 PUSH2 0x62D JUMP JUMPDEST SWAP1 POP CALLDATASIZE PUSH1 0x0 DUP1 CALLDATACOPY PUSH1 0x0 DUP1 CALLDATASIZE PUSH1 0x0 DUP5 GAS DELEGATECALL RETURNDATASIZE PUSH1 0x0 DUP1 RETURNDATACOPY DUP1 PUSH1 0x0 DUP2 EQ PUSH2 0x1C3 JUMPI RETURNDATASIZE PUSH1 0x0 RETURN JUMPDEST RETURNDATASIZE PUSH1 0x0 REVERT JUMPDEST PUSH2 0x1D0 PUSH2 0x6A3 JUMP JUMPDEST PUSH20 0xFFFFFFFFFFFFFFFFFFFFFFFFFFFFFFFFFFFFFFFF AND PUSH4 0x13EFFA0F PUSH1 0x40 MLOAD DUP2 PUSH4 0xFFFFFFFF AND PUSH1 0xE0 SHL DUP2 MSTORE PUSH1 0x4 ADD PUSH1 0x20 PUSH1 0x40 MLOAD DUP1 DUP4 SUB DUP2 DUP7 DUP1 EXTCODESIZE ISZERO DUP1 ISZERO PUSH2 0x215 JUMPI PUSH1 0x0 DUP1 REVERT JUMPDEST POP GAS STATICCALL ISZERO DUP1 ISZERO PUSH2 0x229 JUMPI RETURNDATASIZE PUSH1 0x0 DUP1 RETURNDATACOPY RETURNDATASIZE PUSH1 0x0 REVERT JUMPDEST POP POP POP POP PUSH1 0x40 MLOAD RETURNDATASIZE PUSH1 0x1F NOT PUSH1 0x1F DUP3 ADD AND DUP3 ADD DUP1 PUSH1 0x40 MSTORE POP DUP2 ADD SWAP1 PUSH2 0x24D SWAP2 SWAP1 PUSH2 0xC2D JUMP JUMPDEST PUSH20 0xFFFFFFFFFFFFFFFFFFFFFFFFFFFFFFFFFFFFFFFF AND CALLER PUSH20 0xFFFFFFFFFFFFFFFFFFFFFFFFFFFFFFFFFFFFFFFF AND EQ PUSH2 0x2BA JUMPI PUSH1 0x40 MLOAD PUSH32 0x8C379A000000000000000000000000000000000000000000000000000000000 DUP2 MSTORE PUSH1 0x4 ADD PUSH2 0x2B1 SWAP1 PUSH2 0xCB7 JUMP JUMPDEST PUSH1 0x40 MLOAD DUP1 SWAP2 SUB SWAP1 REVERT JUMPDEST DUP1 PUSH3 0x186A2 PUSH1 0x0 PUSH2 0x100 EXP DUP2 SLOAD DUP2 PUSH1 0xFF MUL NOT AND SWAP1 DUP4 ISZERO ISZERO MUL OR SWAP1 SSTORE POP POP JUMP JUMPDEST PUSH1 0x2 PUSH3 0x186A0 SLOAD EQ ISZERO PUSH2 0x321 JUMPI PUSH1 0x40 MLOAD PUSH32 0x8C379A000000000000000000000000000000000000000000000000000000000 DUP2 MSTORE PUSH1 0x4 ADD PUSH2 0x318 SWAP1 PUSH2 0xD23 JUMP JUMPDEST PUSH1 0x40 MLOAD DUP1 SWAP2 SUB SWAP1 REVERT JUMPDEST PUSH1 0x2 PUSH3 0x186A0 DUP2 SWAP1 SSTORE POP PUSH2 0x333 PUSH2 0x6A3 JUMP JUMPDEST PUSH20 0xFFFFFFFFFFFFFFFFFFFFFFFFFFFFFFFFFFFFFFFF AND PUSH4 0x13EFFA0F PUSH1 0x40 MLOAD DUP2 PUSH4 0xFFFFFFFF AND PUSH1 0xE0 SHL DUP2 MSTORE PUSH1 0x4 ADD PUSH1 0x20 PUSH1 0x40 MLOAD DUP1 DUP4 SUB DUP2 DUP7 DUP1 EXTCODESIZE ISZERO DUP1 ISZERO PUSH2 0x378 JUMPI PUSH1 0x0 DUP1 REVERT JUMPDEST POP GAS STATICCALL ISZERO DUP1 ISZERO PUSH2 0x38C JUMPI RETURNDATASIZE PUSH1 0x0 DUP1 RETURNDATACOPY RETURNDATASIZE PUSH1 0x0 REVERT JUMPDEST POP POP POP POP PUSH1 0x40 MLOAD RETURNDATASIZE PUSH1 0x1F NOT PUSH1 0x1F DUP3 ADD AND DUP3 ADD DUP1 PUSH1 0x40 MSTORE POP DUP2 ADD SWAP1 PUSH2 0x3B0 SWAP2 SWAP1 PUSH2 0xC2D JUMP JUMPDEST PUSH20 0xFFFFFFFFFFFFFFFFFFFFFFFFFFFFFFFFFFFFFFFF AND CALLER PUSH20 0xFFFFFFFFFFFFFFFFFFFFFFFFFFFFFFFFFFFFFFFF AND EQ PUSH2 0x41D JUMPI PUSH1 0x40 MLOAD PUSH32 0x8C379A000000000000000000000000000000000000000000000000000000000 DUP2 MSTORE PUSH1 0x4 ADD PUSH2 0x414 SWAP1 PUSH2 0xCB7 JUMP JUMPDEST PUSH1 0x40 MLOAD DUP1 SWAP2 SUB SWAP1 REVERT JUMPDEST PUSH3 0x186A2 PUSH1 0x0 SWAP1 SLOAD SWAP1 PUSH2 0x100 EXP SWAP1 DIV PUSH1 0xFF AND PUSH2 0x46E JUMPI PUSH1 0x40 MLOAD PUSH32 0x8C379A000000000000000000000000000000000000000000000000000000000 DUP2 MSTORE PUSH1 0x4 ADD PUSH2 0x465 SWAP1 PUSH2 0xD8F JUMP JUMPDEST PUSH1 0x40 MLOAD DUP1 SWAP2 SUB SWAP1 REVERT JUMPDEST PUSH2 0x47F CALLER PUSH2 0x47A PUSH2 0x497 JUMP JUMPDEST PUSH2 0x6AB JUMP JUMPDEST PUSH2 0x48B PUSH3 0x186A1 PUSH2 0x723 JUMP JUMPDEST PUSH1 0x1 PUSH3 0x186A0 DUP2 SWAP1 SSTORE POP JUMP JUMPDEST PUSH1 0x0 PUSH2 0x4A5 PUSH3 0x186A1 PUSH2 0x739 JUMP JUMPDEST SWAP1 POP SWAP1 JUMP JUMPDEST PUSH1 0x2 PUSH3 0x186A0 SLOAD EQ ISZERO PUSH2 0x4F2 JUMPI PUSH1 0x40 MLOAD PUSH32 0x8C379A000000000000000000000000000000000000000000000000000000000 DUP2 MSTORE PUSH1 0x4 ADD PUSH2 0x4E9 SWAP1 PUSH2 0xD23 JUMP JUMPDEST PUSH1 0x40 MLOAD DUP1 SWAP2 SUB SWAP1 REVERT JUMPDEST PUSH1 0x2 PUSH3 0x186A0 DUP2 SWAP1 SSTORE POP PUSH1 0x0 SELFBALANCE SWAP1 POP PUSH2 0x512 PUSH2 0x50C PUSH2 0x747 JUMP JUMPDEST DUP3 PUSH2 0x7D3 JUMP JUMPDEST POP PUSH1 0x1 PUSH3 0x186A0 DUP2 SWAP1 SSTORE POP JUMP JUMPDEST PUSH2 0x527 PUSH2 0x6A3 JUMP JUMPDEST PUSH20 0xFFFFFFFFFFFFFFFFFFFFFFFFFFFFFFFFFFFFFFFF AND PUSH4 0x13EFFA0F PUSH1 0x40 MLOAD DUP2 PUSH4 0xFFFFFFFF AND PUSH1 0xE0 SHL DUP2 MSTORE PUSH1 0x4 ADD PUSH1 0x20 PUSH1 0x40 MLOAD DUP1 DUP4 SUB DUP2 DUP7 DUP1 EXTCODESIZE ISZERO DUP1 ISZERO PUSH2 0x56C JUMPI PUSH1 0x0 DUP1 REVERT JUMPDEST POP GAS STATICCALL ISZERO DUP1 ISZERO PUSH2 0x580 JUMPI RETURNDATASIZE PUSH1 0x0 DUP1 RETURNDATACOPY RETURNDATASIZE PUSH1 0x0 REVERT JUMPDEST POP POP POP POP PUSH1 0x40 MLOAD RETURNDATASIZE PUSH1 0x1F NOT PUSH1 0x1F DUP3 ADD AND DUP3 ADD DUP1 PUSH1 0x40 MSTORE POP DUP2 ADD SWAP1 PUSH2 0x5A4 SWAP2 SWAP1 PUSH2 0xC2D JUMP JUMPDEST PUSH20 0xFFFFFFFFFFFFFFFFFFFFFFFFFFFFFFFFFFFFFFFF AND CALLER PUSH20 0xFFFFFFFFFFFFFFFFFFFFFFFFFFFFFFFFFFFFFFFF AND EQ PUSH2 0x611 JUMPI PUSH1 0x40 MLOAD PUSH32 0x8C379A000000000000000000000000000000000000000000000000000000000 DUP2 MSTORE PUSH1 0x4 ADD PUSH2 0x608 SWAP1 PUSH2 0xCB7 JUMP JUMPDEST PUSH1 0x40 MLOAD DUP1 SWAP2 SUB SWAP1 REVERT JUMPDEST PUSH2 0x62A DUP2 PUSH1 0x40 MLOAD DUP1 PUSH1 0x20 ADD PUSH1 0x40 MSTORE DUP1 PUSH1 0x0 DUP2 MSTORE POP PUSH2 0x8C7 JUMP JUMPDEST POP JUMP JUMPDEST PUSH1 0x0 PUSH2 0x65B PUSH32 0x360894A13BA1A3210667C828492DB98DCA3E2076CC3735A920A3CA505D382BBC PUSH1 0x0 SHL PUSH2 0x699 JUMP JUMPDEST PUSH1 0x0 ADD PUSH1 0x0 SWAP1 SLOAD SWAP1 PUSH2 0x100 EXP SWAP1 DIV PUSH20 0xFFFFFFFFFFFFFFFFFFFFFFFFFFFFFFFFFFFFFFFF AND SWAP1 POP SWAP1 JUMP JUMPDEST PUSH3 0x186A2 PUSH1 0x0 SWAP1 SLOAD SWAP1 PUSH2 0x100 EXP SWAP1 DIV PUSH1 0xFF AND DUP2 JUMP JUMPDEST PUSH1 0x0 DUP2 SWAP1 POP SWAP2 SWAP1 POP JUMP JUMPDEST PUSH1 0x0 ADDRESS SWAP1 POP SWAP1 JUMP JUMPDEST PUSH2 0x6B3 PUSH2 0x6A3 JUMP JUMPDEST PUSH20 0xFFFFFFFFFFFFFFFFFFFFFFFFFFFFFFFFFFFFFFFF AND PUSH4 0x3DC8DED7 DUP4 DUP4 PUSH1 0x40 MLOAD DUP4 PUSH4 0xFFFFFFFF AND PUSH1 0xE0 SHL DUP2 MSTORE PUSH1 0x4 ADD PUSH2 0x6ED SWAP3 SWAP2 SWAP1 PUSH2 0xDAF JUMP JUMPDEST PUSH1 0x0 PUSH1 0x40 MLOAD DUP1 DUP4 SUB DUP2 PUSH1 0x0 DUP8 DUP1 EXTCODESIZE ISZERO DUP1 ISZERO PUSH2 0x707 JUMPI PUSH1 0x0 DUP1 REVERT JUMPDEST POP GAS CALL ISZERO DUP1 ISZERO PUSH2 0x71B JUMPI RETURNDATASIZE PUSH1 0x0 DUP1 RETURNDATACOPY RETURNDATASIZE PUSH1 0x0 REVERT JUMPDEST POP POP POP POP POP POP JUMP JUMPDEST PUSH1 0x1 DUP2 PUSH1 0x0 ADD PUSH1 0x0 DUP3 DUP3 SLOAD ADD SWAP3 POP POP DUP2 SWAP1 SSTORE POP POP JUMP JUMPDEST PUSH1 0x0 DUP2 PUSH1 0x0 ADD SLOAD SWAP1 POP SWAP2 SWAP1 POP JUMP JUMPDEST PUSH1 0x0 PUSH2 0x751 PUSH2 0x6A3 JUMP JUMPDEST PUSH20 0xFFFFFFFFFFFFFFFFFFFFFFFFFFFFFFFFFFFFFFFF AND PUSH4 0x13EFFA0F PUSH1 0x40 MLOAD DUP2 PUSH4 0xFFFFFFFF AND PUSH1 0xE0 SHL DUP2 MSTORE PUSH1 0x4 ADD PUSH1 0x20 PUSH1 0x40 MLOAD DUP1 DUP4 SUB DUP2 DUP7 DUP1 EXTCODESIZE ISZERO DUP1 ISZERO PUSH2 0x796 JUMPI PUSH1 0x0 DUP1 REVERT JUMPDEST POP GAS STATICCALL ISZERO DUP1 ISZERO PUSH2 0x7AA JUMPI RETURNDATASIZE PUSH1 0x0 DUP1 RETURNDATACOPY RETURNDATASIZE PUSH1 0x0 REVERT JUMPDEST POP POP POP POP PUSH1 0x40 MLOAD RETURNDATASIZE PUSH1 0x1F NOT PUSH1 0x1F DUP3 ADD AND DUP3 ADD DUP1 PUSH1 0x40 MSTORE POP DUP2 ADD SWAP1 PUSH2 0x7CE SWAP2 SWAP1 PUSH2 0xC2D JUMP JUMPDEST SWAP1 POP SWAP1 JUMP JUMPDEST DUP1 SELFBALANCE LT ISZERO PUSH2 0x816 JUMPI PUSH1 0x40 MLOAD PUSH32 0x8C379A000000000000000000000000000000000000000000000000000000000 DUP2 MSTORE PUSH1 0x4 ADD PUSH2 0x80D SWAP1 PUSH2 0xE24 JUMP JUMPDEST PUSH1 0x40 MLOAD DUP1 SWAP2 SUB SWAP1 REVERT JUMPDEST PUSH1 0x0 DUP3 PUSH20 0xFFFFFFFFFFFFFFFFFFFFFFFFFFFFFFFFFFFFFFFF AND DUP3 PUSH1 0x40 MLOAD PUSH2 0x83C SWAP1 PUSH2 0xE75 JUMP JUMPDEST PUSH1 0x0 PUSH1 0x40 MLOAD DUP1 DUP4 SUB DUP2 DUP6 DUP8 GAS CALL SWAP3 POP POP POP RETURNDATASIZE DUP1 PUSH1 0x0 DUP2 EQ PUSH2 0x879 JUMPI PUSH1 0x40 MLOAD SWAP2 POP PUSH1 0x1F NOT PUSH1 0x3F RETURNDATASIZE ADD AND DUP3 ADD PUSH1 0x40 MSTORE RETURNDATASIZE DUP3 MSTORE RETURNDATASIZE PUSH1 0x0 PUSH1 0x20 DUP5 ADD RETURNDATACOPY PUSH2 0x87E JUMP JUMPDEST PUSH1 0x60 SWAP2 POP JUMPDEST POP POP SWAP1 POP DUP1 PUSH2 0x8C2 JUMPI PUSH1 0x40 MLOAD PUSH32 0x8C379A000000000000000000000000000000000000000000000000000000000 DUP2 MSTORE PUSH1 0x4 ADD PUSH2 0x8B9 SWAP1 PUSH2 0xEFC JUMP JUMPDEST PUSH1 0x40 MLOAD DUP1 SWAP2 SUB SWAP1 REVERT JUMPDEST POP POP POP JUMP JUMPDEST PUSH2 0x8CF PUSH2 0x6A3 JUMP JUMPDEST PUSH20 0xFFFFFFFFFFFFFFFFFFFFFFFFFFFFFFFFFFFFFFFF AND PUSH4 0x1278B02 DUP4 DUP4 PUSH1 0x40 MLOAD DUP4 PUSH4 0xFFFFFFFF AND PUSH1 0xE0 SHL DUP2 MSTORE PUSH1 0x4 ADD PUSH2 0x909 SWAP3 SWAP2 SWAP1 PUSH2 0xF93 JUMP JUMPDEST PUSH1 0x0 PUSH1 0x40 MLOAD DUP1 DUP4 SUB DUP2 PUSH1 0x0 DUP8 DUP1 EXTCODESIZE ISZERO DUP1 ISZERO PUSH2 0x923 JUMPI PUSH1 0x0 DUP1 REVERT JUMPDEST POP GAS CALL ISZERO DUP1 ISZERO PUSH2 0x937 JUMPI RETURNDATASIZE PUSH1 0x0 DUP1 RETURNDATACOPY RETURNDATASIZE PUSH1 0x0 REVERT JUMPDEST POP POP POP POP POP POP JUMP JUMPDEST PUSH1 0x0 PUSH1 0x40 MLOAD SWAP1 POP SWAP1 JUMP JUMPDEST PUSH1 0x0 DUP1 REVERT JUMPDEST PUSH1 0x0 DUP1 REVERT JUMPDEST PUSH1 0x0 DUP2 ISZERO ISZERO SWAP1 POP SWAP2 SWAP1 POP JUMP JUMPDEST PUSH2 0x968 DUP2 PUSH2 0x953 JUMP JUMPDEST DUP2 EQ PUSH2 0x973 JUMPI PUSH1 0x0 DUP1 REVERT JUMPDEST POP JUMP JUMPDEST PUSH1 0x0 DUP2 CALLDATALOAD SWAP1 POP PUSH2 0x985 DUP2 PUSH2 0x95F JUMP JUMPDEST SWAP3 SWAP2 POP POP JUMP JUMPDEST PUSH1 0x0 PUSH1 0x20 DUP3 DUP5 SUB SLT ISZERO PUSH2 0x9A1 JUMPI PUSH2 0x9A0 PUSH2 0x949 JUMP JUMPDEST JUMPDEST PUSH1 0x0 PUSH2 0x9AF DUP5 DUP3 DUP6 ADD PUSH2 0x976 JUMP JUMPDEST SWAP2 POP POP SWAP3 SWAP2 POP POP JUMP JUMPDEST PUSH1 0x0 DUP2 SWAP1 POP SWAP2 SWAP1 POP JUMP JUMPDEST PUSH2 0x9CB DUP2 PUSH2 0x9B8 JUMP JUMPDEST DUP3 MSTORE POP POP JUMP JUMPDEST PUSH1 0x0 PUSH1 0x20 DUP3 ADD SWAP1 POP PUSH2 0x9E6 PUSH1 0x0 DUP4 ADD DUP5 PUSH2 0x9C2 JUMP JUMPDEST SWAP3 SWAP2 POP POP JUMP JUMPDEST PUSH1 0x0 DUP1 REVERT JUMPDEST PUSH1 0x0 DUP1 REVERT JUMPDEST PUSH1 0x0 PUSH1 0x1F NOT PUSH1 0x1F DUP4 ADD AND SWAP1 POP SWAP2 SWAP1 POP JUMP JUMPDEST PUSH32 0x4E487B7100000000000000000000000000000000000000000000000000000000 PUSH1 0x0 MSTORE PUSH1 0x41 PUSH1 0x4 MSTORE PUSH1 0x24 PUSH1 0x0 REVERT JUMPDEST PUSH2 0xA3F DUP3 PUSH2 0x9F6 JUMP JUMPDEST DUP2 ADD DUP2 DUP2 LT PUSH8 0xFFFFFFFFFFFFFFFF DUP3 GT OR ISZERO PUSH2 0xA5E JUMPI PUSH2 0xA5D PUSH2 0xA07 JUMP JUMPDEST JUMPDEST DUP1 PUSH1 0x40 MSTORE POP POP POP JUMP JUMPDEST PUSH1 0x0 PUSH2 0xA71 PUSH2 0x93F JUMP JUMPDEST SWAP1 POP PUSH2 0xA7D DUP3 DUP3 PUSH2 0xA36 JUMP JUMPDEST SWAP2 SWAP1 POP JUMP JUMPDEST PUSH1 0x0 PUSH8 0xFFFFFFFFFFFFFFFF DUP3 GT ISZERO PUSH2 0xA9D JUMPI PUSH2 0xA9C PUSH2 0xA07 JUMP JUMPDEST JUMPDEST PUSH2 0xAA6 DUP3 PUSH2 0x9F6 JUMP JUMPDEST SWAP1 POP PUSH1 0x20 DUP2 ADD SWAP1 POP SWAP2 SWAP1 POP JUMP JUMPDEST DUP3 DUP2 DUP4 CALLDATACOPY PUSH1 0x0 DUP4 DUP4 ADD MSTORE POP POP POP JUMP JUMPDEST PUSH1 0x0 PUSH2 0xAD5 PUSH2 0xAD0 DUP5 PUSH2 0xA82 JUMP JUMPDEST PUSH2 0xA67 JUMP JUMPDEST SWAP1 POP DUP3 DUP2 MSTORE PUSH1 0x20 DUP2 ADD DUP5 DUP5 DUP5 ADD GT ISZERO PUSH2 0xAF1 JUMPI PUSH2 0xAF0 PUSH2 0x9F1 JUMP JUMPDEST JUMPDEST PUSH2 0xAFC DUP5 DUP3 DUP6 PUSH2 0xAB3 JUMP JUMPDEST POP SWAP4 SWAP3 POP POP POP JUMP JUMPDEST PUSH1 0x0 DUP3 PUSH1 0x1F DUP4 ADD SLT PUSH2 0xB19 JUMPI PUSH2 0xB18 PUSH2 0x9EC JUMP JUMPDEST JUMPDEST DUP2 CALLDATALOAD PUSH2 0xB29 DUP5 DUP3 PUSH1 0x20 DUP7 ADD PUSH2 0xAC2 JUMP JUMPDEST SWAP2 POP POP SWAP3 SWAP2 POP POP JUMP JUMPDEST PUSH1 0x0 PUSH1 0x20 DUP3 DUP5 SUB SLT ISZERO PUSH2 0xB48 JUMPI PUSH2 0xB47 PUSH2 0x949 JUMP JUMPDEST JUMPDEST PUSH1 0x0 DUP3 ADD CALLDATALOAD PUSH8 0xFFFFFFFFFFFFFFFF DUP2 GT ISZERO PUSH2 0xB66 JUMPI PUSH2 0xB65 PUSH2 0x94E JUMP JUMPDEST JUMPDEST PUSH2 0xB72 DUP5 DUP3 DUP6 ADD PUSH2 0xB04 JUMP JUMPDEST SWAP2 POP POP SWAP3 SWAP2 POP POP JUMP JUMPDEST PUSH1 0x0 PUSH20 0xFFFFFFFFFFFFFFFFFFFFFFFFFFFFFFFFFFFFFFFF DUP3 AND SWAP1 POP SWAP2 SWAP1 POP JUMP JUMPDEST PUSH1 0x0 PUSH2 0xBA6 DUP3 PUSH2 0xB7B JUMP JUMPDEST SWAP1 POP SWAP2 SWAP1 POP JUMP JUMPDEST PUSH2 0xBB6 DUP2 PUSH2 0xB9B JUMP JUMPDEST DUP3 MSTORE POP POP JUMP JUMPDEST PUSH1 0x0 PUSH1 0x20 DUP3 ADD SWAP1 POP PUSH2 0xBD1 PUSH1 0x0 DUP4 ADD DUP5 PUSH2 0xBAD JUMP JUMPDEST SWAP3 SWAP2 POP POP JUMP JUMPDEST PUSH2 0xBE0 DUP2 PUSH2 0x953 JUMP JUMPDEST DUP3 MSTORE POP POP JUMP JUMPDEST PUSH1 0x0 PUSH1 0x20 DUP3 ADD SWAP1 POP PUSH2 0xBFB PUSH1 0x0 DUP4 ADD DUP5 PUSH2 0xBD7 JUMP JUMPDEST SWAP3 SWAP2 POP POP JUMP JUMPDEST PUSH2 0xC0A DUP2 PUSH2 0xB9B JUMP JUMPDEST DUP2 EQ PUSH2 0xC15 JUMPI PUSH1 0x0 DUP1 REVERT JUMPDEST POP JUMP JUMPDEST PUSH1 0x0 DUP2 MLOAD SWAP1 POP PUSH2 0xC27 DUP2 PUSH2 0xC01 JUMP JUMPDEST SWAP3 SWAP2 POP POP JUMP JUMPDEST PUSH1 0x0 PUSH1 0x20 DUP3 DUP5 SUB SLT ISZERO PUSH2 0xC43 JUMPI PUSH2 0xC42 PUSH2 0x949 JUMP JUMPDEST JUMPDEST PUSH1 0x0 PUSH2 0xC51 DUP5 DUP3 DUP6 ADD PUSH2 0xC18 JUMP JUMPDEST SWAP2 POP POP SWAP3 SWAP2 POP POP JUMP JUMPDEST PUSH1 0x0 DUP3 DUP3 MSTORE PUSH1 0x20 DUP3 ADD SWAP1 POP SWAP3 SWAP2 POP POP JUMP JUMPDEST PUSH32 0x4E6F74206F776E65720000000000000000000000000000000000000000000000 PUSH1 0x0 DUP3 ADD MSTORE POP JUMP JUMPDEST PUSH1 0x0 PUSH2 0xCA1 PUSH1 0x9 DUP4 PUSH2 0xC5A JUMP JUMPDEST SWAP2 POP PUSH2 0xCAC DUP3 PUSH2 0xC6B JUMP JUMPDEST PUSH1 0x20 DUP3 ADD SWAP1 POP SWAP2 SWAP1 POP JUMP JUMPDEST PUSH1 0x0 PUSH1 0x20 DUP3 ADD SWAP1 POP DUP2 DUP2 SUB PUSH1 0x0 DUP4 ADD MSTORE PUSH2 0xCD0 DUP2 PUSH2 0xC94 JUMP JUMPDEST SWAP1 POP SWAP2 SWAP1 POP JUMP JUMPDEST PUSH32 0x5265656E7472616E637947756172643A207265656E7472616E742063616C6C00 PUSH1 0x0 DUP3 ADD MSTORE POP JUMP JUMPDEST PUSH1 0x0 PUSH2 0xD0D PUSH1 0x1F DUP4 PUSH2 0xC5A JUMP JUMPDEST SWAP2 POP PUSH2 0xD18 DUP3 PUSH2 0xCD7 JUMP JUMPDEST PUSH1 0x20 DUP3 ADD SWAP1 POP SWAP2 SWAP1 POP JUMP JUMPDEST PUSH1 0x0 PUSH1 0x20 DUP3 ADD SWAP1 POP DUP2 DUP2 SUB PUSH1 0x0 DUP4 ADD MSTORE PUSH2 0xD3C DUP2 PUSH2 0xD00 JUMP JUMPDEST SWAP1 POP SWAP2 SWAP1 POP JUMP JUMPDEST PUSH32 0x53616C65206E6F74206163746976650000000000000000000000000000000000 PUSH1 0x0 DUP3 ADD MSTORE POP JUMP JUMPDEST PUSH1 0x0 PUSH2 0xD79 PUSH1 0xF DUP4 PUSH2 0xC5A JUMP JUMPDEST SWAP2 POP PUSH2 0xD84 DUP3 PUSH2 0xD43 JUMP JUMPDEST PUSH1 0x20 DUP3 ADD SWAP1 POP SWAP2 SWAP1 POP JUMP JUMPDEST PUSH1 0x0 PUSH1 0x20 DUP3 ADD SWAP1 POP DUP2 DUP2 SUB PUSH1 0x0 DUP4 ADD MSTORE PUSH2 0xDA8 DUP2 PUSH2 0xD6C JUMP JUMPDEST SWAP1 POP SWAP2 SWAP1 POP JUMP JUMPDEST PUSH1 0x0 PUSH1 0x40 DUP3 ADD SWAP1 POP PUSH2 0xDC4 PUSH1 0x0 DUP4 ADD DUP6 PUSH2 0xBAD JUMP JUMPDEST PUSH2 0xDD1 PUSH1 0x20 DUP4 ADD DUP5 PUSH2 0x9C2 JUMP JUMPDEST SWAP4 SWAP3 POP POP POP JUMP JUMPDEST PUSH32 0x416464726573733A20696E73756666696369656E742062616C616E6365000000 PUSH1 0x0 DUP3 ADD MSTORE POP JUMP JUMPDEST PUSH1 0x0 PUSH2 0xE0E PUSH1 0x1D DUP4 PUSH2 0xC5A JUMP JUMPDEST SWAP2 POP PUSH2 0xE19 DUP3 PUSH2 0xDD8 JUMP JUMPDEST PUSH1 0x20 DUP3 ADD SWAP1 POP SWAP2 SWAP1 POP JUMP JUMPDEST PUSH1 0x0 PUSH1 0x20 DUP3 ADD SWAP1 POP DUP2 DUP2 SUB PUSH1 0x0 DUP4 ADD MSTORE PUSH2 0xE3D DUP2 PUSH2 0xE01 JUMP JUMPDEST SWAP1 POP SWAP2 SWAP1 POP JUMP JUMPDEST PUSH1 0x0 DUP2 SWAP1 POP SWAP3 SWAP2 POP POP JUMP JUMPDEST POP JUMP JUMPDEST PUSH1 0x0 PUSH2 0xE5F PUSH1 0x0 DUP4 PUSH2 0xE44 JUMP JUMPDEST SWAP2 POP PUSH2 0xE6A DUP3 PUSH2 0xE4F JUMP JUMPDEST PUSH1 0x0 DUP3 ADD SWAP1 POP SWAP2 SWAP1 POP JUMP JUMPDEST PUSH1 0x0 PUSH2 0xE80 DUP3 PUSH2 0xE52 JUMP JUMPDEST SWAP2 POP DUP2 SWAP1 POP SWAP2 SWAP1 POP JUMP JUMPDEST PUSH32 0x416464726573733A20756E61626C6520746F2073656E642076616C75652C2072 PUSH1 0x0 DUP3 ADD MSTORE PUSH32 0x6563697069656E74206D61792068617665207265766572746564000000000000 PUSH1 0x20 DUP3 ADD MSTORE POP JUMP JUMPDEST PUSH1 0x0 PUSH2 0xEE6 PUSH1 0x3A DUP4 PUSH2 0xC5A JUMP JUMPDEST SWAP2 POP PUSH2 0xEF1 DUP3 PUSH2 0xE8A JUMP JUMPDEST PUSH1 0x40 DUP3 ADD SWAP1 POP SWAP2 SWAP1 POP JUMP JUMPDEST PUSH1 0x0 PUSH1 0x20 DUP3 ADD SWAP1 POP DUP2 DUP2 SUB PUSH1 0x0 DUP4 ADD MSTORE PUSH2 0xF15 DUP2 PUSH2 0xED9 JUMP JUMPDEST SWAP1 POP SWAP2 SWAP1 POP JUMP JUMPDEST PUSH1 0x0 DUP2 MLOAD SWAP1 POP SWAP2 SWAP1 POP JUMP JUMPDEST PUSH1 0x0 JUMPDEST DUP4 DUP2 LT ISZERO PUSH2 0xF45 JUMPI DUP1 DUP3 ADD MLOAD DUP2 DUP5 ADD MSTORE PUSH1 0x20 DUP2 ADD SWAP1 POP PUSH2 0xF2A JUMP JUMPDEST DUP4 DUP2 GT ISZERO PUSH2 0xF54 JUMPI PUSH1 0x0 DUP5 DUP5 ADD MSTORE JUMPDEST POP POP POP POP JUMP JUMPDEST PUSH1 0x0 PUSH2 0xF65 DUP3 PUSH2 0xF1C JUMP JUMPDEST PUSH2 0xF6F DUP2 DUP6 PUSH2 0xC5A JUMP JUMPDEST SWAP4 POP PUSH2 0xF7F DUP2 DUP6 PUSH1 0x20 DUP7 ADD PUSH2 0xF27 JUMP JUMPDEST PUSH2 0xF88 DUP2 PUSH2 0x9F6 JUMP JUMPDEST DUP5 ADD SWAP2 POP POP SWAP3 SWAP2 POP POP JUMP JUMPDEST PUSH1 0x0 PUSH1 0x40 DUP3 ADD SWAP1 POP DUP2 DUP2 SUB PUSH1 0x0 DUP4 ADD MSTORE PUSH2 0xFAD DUP2 DUP6 PUSH2 0xF5A JUMP JUMPDEST SWAP1 POP DUP2 DUP2 SUB PUSH1 0x20 DUP4 ADD MSTORE PUSH2 0xFC1 DUP2 DUP5 PUSH2 0xF5A JUMP JUMPDEST SWAP1 POP SWAP4 SWAP3 POP POP POP JUMP INVALID LOG2 PUSH5 0x6970667358 0x22 SLT KECCAK256 EXTCODESIZE PUSH18 0x3B1BBF3E43C89AE50D1DC1D7C311CFA2362A 0xB3 ISZERO 0x24 SLT 0xD8 SWAP5 PUSH31 0xFBE2CA3DC864736F6C63430008090033000000000000000000000000000000 "
		},
		"gasEstimates": {
			"creation": {
				"codeDepositCost": "819200",
				"executionCost": "infinite",
				"totalCost": "infinite"
			},
			"external": {
				"": "infinite",
				"implementation()": "2621",
				"mint()": "infinite",
				"saleIsActive()": "2537",
				"setBaseURI(string)": "infinite",
				"setSaleIsActive(bool)": "infinite",
				"totalSupply()": "2531",
				"withdraw()": "infinite"
			}
		},
		"methodIdentifiers": {
			"implementation()": "5c60da1b",
			"mint()": "1249c58b",
			"saleIsActive()": "eb8d2444",
			"setBaseURI(string)": "55f804b3",
			"setSaleIsActive(bool)": "02c88989",
			"totalSupply()": "18160ddd",
			"withdraw()": "3ccfd60b"
		}
	},
	"abi": [
		{
			"inputs": [
				{
					"internalType": "address",
					"name": "baseFactory",
					"type": "address"
				},
				{
					"internalType": "string",
					"name": "customBaseURI_",
					"type": "string"
				}
			],
			"stateMutability": "nonpayable",
			"type": "constructor"
		},
		{
			"stateMutability": "nonpayable",
			"type": "fallback"
		},
		{
			"inputs": [],
			"name": "implementation",
			"outputs": [
				{
					"internalType": "address",
					"name": "",
					"type": "address"
				}
			],
			"stateMutability": "view",
			"type": "function"
		},
		{
			"inputs": [],
			"name": "mint",
			"outputs": [],
			"stateMutability": "nonpayable",
			"type": "function"
		},
		{
			"inputs": [],
			"name": "saleIsActive",
			"outputs": [
				{
					"internalType": "bool",
					"name": "",
					"type": "bool"
				}
			],
			"stateMutability": "view",
			"type": "function"
		},
		{
			"inputs": [
				{
					"internalType": "string",
					"name": "customBaseURI_",
					"type": "string"
				}
			],
			"name": "setBaseURI",
			"outputs": [],
			"stateMutability": "nonpayable",
			"type": "function"
		},
		{
			"inputs": [
				{
					"internalType": "bool",
					"name": "saleIsActive_",
					"type": "bool"
				}
			],
			"name": "setSaleIsActive",
			"outputs": [],
			"stateMutability": "nonpayable",
			"type": "function"
		},
		{
			"inputs": [],
			"name": "totalSupply",
			"outputs": [
				{
					"internalType": "uint256",
					"name": "",
					"type": "uint256"
				}
			],
			"stateMutability": "view",
			"type": "function"
		},
		{
			"inputs": [],
			"name": "withdraw",
			"outputs": [],
			"stateMutability": "nonpayable",
			"type": "function"
		},
		{
			"stateMutability": "payable",
			"type": "receive"
		}
	]
}